{
  "contractName": "AccessRestriction",
  "abi": [
    {
      "constant": true,
      "inputs": [],
      "name": "creationTime",
      "outputs": [
        {
          "internalType": "uint256",
          "name": "",
          "type": "uint256"
        }
      ],
      "payable": false,
      "stateMutability": "view",
      "type": "function"
    },
    {
      "constant": true,
      "inputs": [],
      "name": "owner",
      "outputs": [
        {
          "internalType": "address",
          "name": "",
          "type": "address"
        }
      ],
      "payable": false,
      "stateMutability": "view",
      "type": "function"
    },
    {
      "constant": false,
      "inputs": [
        {
          "internalType": "address",
          "name": "_newOwner",
          "type": "address"
        }
      ],
      "name": "changeOwner",
      "outputs": [],
      "payable": false,
      "stateMutability": "nonpayable",
      "type": "function"
    },
    {
      "constant": false,
      "inputs": [],
      "name": "disown",
      "outputs": [],
      "payable": false,
      "stateMutability": "nonpayable",
      "type": "function"
    }
  ],
  "bytecode": "0x6080604052600080546001600160a01b031916331790554260015534801561002657600080fd5b5061024f806100366000396000f3fe608060405234801561001057600080fd5b506004361061004c5760003560e01c80631e9bf0da146100515780638da5cb5b1461005b578063a6f9dae11461007f578063d8270dce146100a5575b600080fd5b6100596100bf565b005b610063610189565b604080516001600160a01b039092168252519081900360200190f35b6100596004803603602081101561009557600080fd5b50356001600160a01b0316610198565b6100ad610214565b60408051918252519081900360200190f35b6000546001600160a01b0316338114610118576040805162461bcd60e51b815260206004820152601660248201527529b2b73232b9103737ba1030baba3437b934bd32b21760511b604482015290519081900360640190fd5b60015462375f000180421015610175576040805162461bcd60e51b815260206004820152601a60248201527f46756e6374696f6e2063616c6c656420746f6f206561726c792e000000000000604482015290519081900360640190fd5b5050600080546001600160a01b0319169055565b6000546001600160a01b031681565b6000546001600160a01b03163381146101f1576040805162461bcd60e51b815260206004820152601660248201527529b2b73232b9103737ba1030baba3437b934bd32b21760511b604482015290519081900360640190fd5b50600080546001600160a01b0319166001600160a01b0392909216919091179055565b6001548156fea265627a7a7231582093b45dc6338088df916f7aa82839f820c88affae2b215161d3ffeff0862adbd564736f6c63430005100032",
  "source": "pragma solidity ^0.5.0;\r\n\r\ncontract AccessRestriction {\r\n    // These will be assigned at the construction\r\n    // phase, where `msg.sender` is the account\r\n    // creating this contract.\r\n    address public owner = msg.sender;\r\n    uint public creationTime = now;\r\n\r\n    // Modifiers can be used to change\r\n    // the body of a function.\r\n    // If this modifier is used, it will\r\n    // prepend a check that only passes\r\n    // if the function is called from\r\n    // a certain address.\r\n    modifier onlyBy(address _account)\r\n    {\r\n        require(\r\n            msg.sender == _account,\r\n            \"Sender not authorized.\"\r\n        );\r\n        _;\r\n    }\r\n    \r\n    modifier onlyByAddresses(address _account1, address _account2)\r\n    {\r\n        require(\r\n            msg.sender == _account1 || msg.sender == _account2,\r\n            \"Sender not authorized.\"\r\n        );\r\n        _;\r\n    }\r\n\r\n    /// Make `_newOwner` the new owner of this\r\n    /// contract.\r\n    function changeOwner(address _newOwner)\r\n        public\r\n        onlyBy(owner)\r\n    {\r\n        owner = _newOwner;\r\n    }\r\n\r\n    modifier onlyAfter(uint _time) {\r\n        require(\r\n            now >= _time,\r\n            \"Function called too early.\"\r\n        );\r\n        _;\r\n    }\r\n\r\n    /// Erase ownership information.\r\n    /// May only be called 6 weeks after\r\n    /// the contract has been created.\r\n    function disown()\r\n        public\r\n        onlyBy(owner)\r\n        onlyAfter(creationTime + 6 weeks)\r\n    {\r\n        delete owner;\r\n    }\r\n\r\n    // This modifier requires a certain\r\n    // fee being associated with a function call.\r\n    // If the caller sent too much, he or she is\r\n    // refunded, but only after the function body.\r\n    // This was dangerous before Solidity version 0.4.0,\r\n    // where it was possible to skip the part after `_;`.\r\n    modifier costs(uint _amount) {\r\n        require(\r\n            msg.value >= _amount,\r\n            \"Not enough Ether provided.\"\r\n        );\r\n        _;\r\n        if (msg.value > _amount)\r\n            msg.sender.transfer(msg.value - _amount);\r\n    }\r\n}\r\n",
  "sourcePath": "/home/grifma/Code/vi-admin-ui/contracts/AccessRestriction.sol",
  "compiler": {
    "name": "solc",
    "version": "0.5.16+commit.9c3226ce.Emscripten.clang"
  },
  "schemaVersion": "3.0.23",
  "updatedAt": "2020-05-14T11:10:25.805Z",
  "devdoc": {
    "methods": {}
  },
  "userdoc": {
    "methods": {
      "changeOwner(address)": {
        "notice": "Make `_newOwner` the new owner of this contract."
      },
      "disown()": {
        "notice": "Erase ownership information. May only be called 6 weeks after the contract has been created."
      }
    }
  }
}