{
  "contractName": "AllowanceCrowdsaleImpl",
  "abi": [
    {
      "inputs": [
        {
          "internalType": "uint256",
          "name": "rate",
          "type": "uint256"
        },
        {
          "internalType": "address payable",
          "name": "wallet",
          "type": "address"
        },
        {
          "internalType": "contract IERC20",
          "name": "token",
          "type": "address"
        },
        {
          "internalType": "address",
          "name": "tokenWallet",
          "type": "address"
        }
      ],
      "payable": false,
      "stateMutability": "nonpayable",
      "type": "constructor"
    },
    {
      "anonymous": false,
      "inputs": [
        {
          "indexed": true,
          "internalType": "address",
          "name": "purchaser",
          "type": "address"
        },
        {
          "indexed": true,
          "internalType": "address",
          "name": "beneficiary",
          "type": "address"
        },
        {
          "indexed": false,
          "internalType": "uint256",
          "name": "value",
          "type": "uint256"
        },
        {
          "indexed": false,
          "internalType": "uint256",
          "name": "amount",
          "type": "uint256"
        }
      ],
      "name": "TokensPurchased",
      "type": "event"
    },
    {
      "payable": true,
      "stateMutability": "payable",
      "type": "fallback"
    },
    {
      "constant": false,
      "inputs": [
        {
          "internalType": "address",
          "name": "beneficiary",
          "type": "address"
        }
      ],
      "name": "buyTokens",
      "outputs": [],
      "payable": true,
      "stateMutability": "payable",
      "type": "function"
    },
    {
      "constant": true,
      "inputs": [],
      "name": "rate",
      "outputs": [
        {
          "internalType": "uint256",
          "name": "",
          "type": "uint256"
        }
      ],
      "payable": false,
      "stateMutability": "view",
      "type": "function"
    },
    {
      "constant": true,
      "inputs": [],
      "name": "remainingTokens",
      "outputs": [
        {
          "internalType": "uint256",
          "name": "",
          "type": "uint256"
        }
      ],
      "payable": false,
      "stateMutability": "view",
      "type": "function"
    },
    {
      "constant": true,
      "inputs": [],
      "name": "token",
      "outputs": [
        {
          "internalType": "contract IERC20",
          "name": "",
          "type": "address"
        }
      ],
      "payable": false,
      "stateMutability": "view",
      "type": "function"
    },
    {
      "constant": true,
      "inputs": [],
      "name": "tokenWallet",
      "outputs": [
        {
          "internalType": "address",
          "name": "",
          "type": "address"
        }
      ],
      "payable": false,
      "stateMutability": "view",
      "type": "function"
    },
    {
      "constant": true,
      "inputs": [],
      "name": "wallet",
      "outputs": [
        {
          "internalType": "address payable",
          "name": "",
          "type": "address"
        }
      ],
      "payable": false,
      "stateMutability": "view",
      "type": "function"
    },
    {
      "constant": true,
      "inputs": [],
      "name": "weiRaised",
      "outputs": [
        {
          "internalType": "uint256",
          "name": "",
          "type": "uint256"
        }
      ],
      "payable": false,
      "stateMutability": "view",
      "type": "function"
    }
  ],
  "bytecode": "0x608060405234801561001057600080fd5b50604051610ab9380380610ab98339818101604052608081101561003357600080fd5b5080516020820151604083015160609093015160016000559192909180848484826100a5576040805162461bcd60e51b815260206004820152601460248201527f43726f776473616c653a20726174652069732030000000000000000000000000604482015290519081900360640190fd5b6001600160a01b0382166100ea5760405162461bcd60e51b8152600401808060200182810382526025815260200180610a946025913960400191505060405180910390fd5b6001600160a01b03811661012f5760405162461bcd60e51b8152600401808060200182810382526024815260200180610a706024913960400191505060405180910390fd5b600392909255600280546001600160a01b03199081166001600160a01b0393841617909155600180549091169282169290921790915581166101a25760405162461bcd60e51b8152600401808060200182810382526034815260200180610a3c6034913960400191505060405180910390fd5b600580546001600160a01b039092166001600160a01b031990921691909117905550505050610866806101d66000396000f3fe6080604052600436106100705760003560e01c8063bf5839031161004e578063bf583903146100e8578063bff99c6c146100fd578063ec8ac4d814610112578063fc0c546a1461013857610070565b80632c4e722e1461007b5780634042b66f146100a2578063521eb273146100b7575b6100793361014d565b005b34801561008757600080fd5b50610090610251565b60408051918252519081900360200190f35b3480156100ae57600080fd5b50610090610257565b3480156100c357600080fd5b506100cc61025d565b604080516001600160a01b039092168252519081900360200190f35b3480156100f457600080fd5b5061009061026c565b34801561010957600080fd5b506100cc610385565b6100796004803603602081101561012857600080fd5b50356001600160a01b031661014d565b34801561014457600080fd5b506100cc610394565b60008054600101908190553461016383826103a3565b600061016e8261043a565b600454909150610184908363ffffffff61045716565b60045561019184826104b8565b604080518381526020810183905281516001600160a01b0387169233927f6faf93231a456e552dbc9961f58d9713ee4f2e69d15f1975b050ef0911053a7b929081900390910190a36101e3848361024d565b6101eb6104c2565b6101f5848361024d565b5050600054811461024d576040805162461bcd60e51b815260206004820152601f60248201527f5265656e7472616e637947756172643a207265656e7472616e742063616c6c00604482015290519081900360640190fd5b5050565b60035490565b60045490565b6002546001600160a01b031690565b6000610380610279610394565b600554604080516370a0823160e01b81526001600160a01b039283166004820152905192909116916370a0823191602480820192602092909190829003018186803b1580156102c757600080fd5b505afa1580156102db573d6000803e3d6000fd5b505050506040513d60208110156102f157600080fd5b50516102fb610394565b60055460408051636eb1769f60e11b81526001600160a01b0392831660048201523060248201529051929091169163dd62ed3e91604480820192602092909190829003018186803b15801561034f57600080fd5b505afa158015610363573d6000803e3d6000fd5b505050506040513d602081101561037957600080fd5b50516104fe565b905090565b6005546001600160a01b031690565b6001546001600160a01b031690565b6001600160a01b0382166103e85760405162461bcd60e51b815260040180806020018281038252602a8152602001806107de602a913960400191505060405180910390fd5b8061024d576040805162461bcd60e51b815260206004820152601960248201527f43726f776473616c653a20776569416d6f756e74206973203000000000000000604482015290519081900360640190fd5b60006104516003548361051490919063ffffffff16565b92915050565b6000828201838110156104b1576040805162461bcd60e51b815260206004820152601b60248201527f536166654d6174683a206164646974696f6e206f766572666c6f770000000000604482015290519081900360640190fd5b9392505050565b61024d828261056d565b6002546040516001600160a01b03909116903480156108fc02916000818181858888f193505050501580156104fb573d6000803e3d6000fd5b50565b600081831061050d57816104b1565b5090919050565b60008261052357506000610451565b8282028284828161053057fe5b04146104b15760405162461bcd60e51b81526004018080602001828103825260218152602001806107bd6021913960400191505060405180910390fd5b60055461024d906001600160a01b03168383610587610394565b6001600160a01b031692919063ffffffff61059e16565b604080516001600160a01b0385811660248301528416604482015260648082018490528251808303909101815260849091019091526020810180516001600160e01b03166323b872dd60e01b1790526105f89085906105fe565b50505050565b610610826001600160a01b03166107b6565b610661576040805162461bcd60e51b815260206004820152601f60248201527f5361666545524332303a2063616c6c20746f206e6f6e2d636f6e747261637400604482015290519081900360640190fd5b60006060836001600160a01b0316836040518082805190602001908083835b6020831061069f5780518252601f199092019160209182019101610680565b6001836020036101000a0380198251168184511680821785525050505050509050019150506000604051808303816000865af19150503d8060008114610701576040519150601f19603f3d011682016040523d82523d6000602084013e610706565b606091505b50915091508161075d576040805162461bcd60e51b815260206004820181905260248201527f5361666545524332303a206c6f772d6c6576656c2063616c6c206661696c6564604482015290519081900360640190fd5b8051156105f85780806020019051602081101561077957600080fd5b50516105f85760405162461bcd60e51b815260040180806020018281038252602a815260200180610808602a913960400191505060405180910390fd5b3b15159056fe536166654d6174683a206d756c7469706c69636174696f6e206f766572666c6f7743726f776473616c653a2062656e656669636961727920697320746865207a65726f20616464726573735361666545524332303a204552433230206f7065726174696f6e20646964206e6f742073756363656564a265627a7a72315820ef7dfe788c1f475cff1759bf2a53fa5466039620377d58658891f662b22f48eb64736f6c63430005100032416c6c6f77616e636543726f776473616c653a20746f6b656e2077616c6c657420697320746865207a65726f206164647265737343726f776473616c653a20746f6b656e20697320746865207a65726f206164647265737343726f776473616c653a2077616c6c657420697320746865207a65726f2061646472657373",
  "source": "pragma solidity ^0.5.0;\n\nimport \"../token/ERC20/IERC20.sol\";\nimport \"../crowdsale/emission/AllowanceCrowdsale.sol\";\n\ncontract AllowanceCrowdsaleImpl is AllowanceCrowdsale {\n    constructor (uint256 rate, address payable wallet, IERC20 token, address tokenWallet)\n        public\n        Crowdsale(rate, wallet, token)\n        AllowanceCrowdsale(tokenWallet)\n    {\n        // solhint-disable-previous-line no-empty-blocks\n    }\n}\n",
  "sourcePath": "/home/grifma/Code/vi-admin-ui/contracts/lib/openzeppelin-solidity/contracts/mocks/AllowanceCrowdsaleImpl.sol",
  "compiler": {
    "name": "solc",
    "version": "0.5.16+commit.9c3226ce.Emscripten.clang"
  },
  "schemaVersion": "3.0.23",
  "updatedAt": "2020-05-14T20:26:11.242Z",
  "devdoc": {
    "methods": {
      "buyTokens(address)": {
        "details": "low level token purchase ***DO NOT OVERRIDE*** This function has a non-reentrancy guard, so it shouldn't be called by another `nonReentrant` function.",
        "params": {
          "beneficiary": "Recipient of the token purchase"
        }
      },
      "rate()": {
        "return": "the number of token units a buyer gets per wei."
      },
      "remainingTokens()": {
        "details": "Checks the amount of tokens left in the allowance.",
        "return": "Amount of tokens left in the allowance"
      },
      "token()": {
        "return": "the token being sold."
      },
      "tokenWallet()": {
        "return": "the address of the wallet that will hold the tokens."
      },
      "wallet()": {
        "return": "the address where funds are collected."
      },
      "weiRaised()": {
        "return": "the amount of wei raised."
      }
    }
  },
  "userdoc": {
    "methods": {}
  }
}