{
  "contractName": "CapperRoleMock",
  "abi": [
    {
      "anonymous": false,
      "inputs": [
        {
          "indexed": true,
          "internalType": "address",
          "name": "account",
          "type": "address"
        }
      ],
      "name": "CapperAdded",
      "type": "event"
    },
    {
      "anonymous": false,
      "inputs": [
        {
          "indexed": true,
          "internalType": "address",
          "name": "account",
          "type": "address"
        }
      ],
      "name": "CapperRemoved",
      "type": "event"
    },
    {
      "constant": false,
      "inputs": [
        {
          "internalType": "address",
          "name": "account",
          "type": "address"
        }
      ],
      "name": "addCapper",
      "outputs": [],
      "payable": false,
      "stateMutability": "nonpayable",
      "type": "function"
    },
    {
      "constant": true,
      "inputs": [
        {
          "internalType": "address",
          "name": "account",
          "type": "address"
        }
      ],
      "name": "isCapper",
      "outputs": [
        {
          "internalType": "bool",
          "name": "",
          "type": "bool"
        }
      ],
      "payable": false,
      "stateMutability": "view",
      "type": "function"
    },
    {
      "constant": false,
      "inputs": [],
      "name": "renounceCapper",
      "outputs": [],
      "payable": false,
      "stateMutability": "nonpayable",
      "type": "function"
    },
    {
      "constant": false,
      "inputs": [
        {
          "internalType": "address",
          "name": "account",
          "type": "address"
        }
      ],
      "name": "removeCapper",
      "outputs": [],
      "payable": false,
      "stateMutability": "nonpayable",
      "type": "function"
    },
    {
      "constant": true,
      "inputs": [],
      "name": "onlyCapperMock",
      "outputs": [],
      "payable": false,
      "stateMutability": "view",
      "type": "function"
    }
  ],
  "bytecode": "0x6080604052610016336001600160e01b0361001b16565b61015b565b61003381600061006a60201b6102b41790919060201c565b6040516001600160a01b038216907fa7555c95b69d4f5cc847881feb4ab2883a1921319e34fa2043747b793d65b36e90600090a250565b61007d82826001600160e01b036100f416565b156100cf576040805162461bcd60e51b815260206004820152601f60248201527f526f6c65733a206163636f756e7420616c72656164792068617320726f6c6500604482015290519081900360640190fd5b6001600160a01b0316600090815260209190915260409020805460ff19166001179055565b60006001600160a01b03821661013b5760405162461bcd60e51b81526004018080602001828103825260228152602001806105ae6022913960400191505060405180910390fd5b506001600160a01b03166000908152602091909152604090205460ff1690565b6104448061016a6000396000f3fe608060405234801561001057600080fd5b50600436106100575760003560e01c8063395645611461005c5780633f4a6484146100965780635d5576f8146100be5780638dfbcf36146100c6578063d1e07bcb146100ec575b600080fd5b6100826004803603602081101561007257600080fd5b50356001600160a01b03166100f4565b604080519115158252519081900360200190f35b6100bc600480360360208110156100ac57600080fd5b50356001600160a01b031661010c565b005b6100bc610118565b6100bc600480360360208110156100dc57600080fd5b50356001600160a01b0316610123565b6100bc610170565b6000610106818363ffffffff6101b416565b92915050565b6101158161021b565b50565b6101213361021b565b565b61012c336100f4565b6101675760405162461bcd60e51b81526004018080602001828103825260308152602001806103e06030913960400191505060405180910390fd5b61011581610224565b610179336100f4565b6101215760405162461bcd60e51b81526004018080602001828103825260308152602001806103e06030913960400191505060405180910390fd5b60006001600160a01b0382166101fb5760405162461bcd60e51b81526004018080602001828103825260228152602001806103be6022913960400191505060405180910390fd5b506001600160a01b03166000908152602091909152604090205460ff1690565b6101158161026c565b61023560008263ffffffff6102b416565b6040516001600160a01b038216907fa7555c95b69d4f5cc847881feb4ab2883a1921319e34fa2043747b793d65b36e90600090a250565b61027d60008263ffffffff61033516565b6040516001600160a01b038216907f427400d279c506df610224b22ecce89b693fc1865864113f21c8d19c1f0c2a3b90600090a250565b6102be82826101b4565b15610310576040805162461bcd60e51b815260206004820152601f60248201527f526f6c65733a206163636f756e7420616c72656164792068617320726f6c6500604482015290519081900360640190fd5b6001600160a01b0316600090815260209190915260409020805460ff19166001179055565b61033f82826101b4565b61037a5760405162461bcd60e51b815260040180806020018281038252602181526020018061039d6021913960400191505060405180910390fd5b6001600160a01b0316600090815260209190915260409020805460ff1916905556fe526f6c65733a206163636f756e7420646f6573206e6f74206861766520726f6c65526f6c65733a206163636f756e7420697320746865207a65726f2061646472657373436170706572526f6c653a2063616c6c657220646f6573206e6f742068617665207468652043617070657220726f6c65a265627a7a7231582061dfabcdd7eb3a4a33a825a1df0a6f399f74e9961d3610a58ad81789738a587464736f6c63430005100032526f6c65733a206163636f756e7420697320746865207a65726f2061646472657373",
  "source": "pragma solidity ^0.5.0;\n\nimport \"../access/roles/CapperRole.sol\";\n\ncontract CapperRoleMock is CapperRole {\n    function removeCapper(address account) public {\n        _removeCapper(account);\n    }\n\n    function onlyCapperMock() public view onlyCapper {\n        // solhint-disable-previous-line no-empty-blocks\n    }\n\n    // Causes a compilation error if super._removeCapper is not internal\n    function _removeCapper(address account) internal {\n        super._removeCapper(account);\n    }\n}\n",
  "sourcePath": "/home/grifma/Code/vi-admin-ui/contracts/lib/openzeppelin-solidity/contracts/mocks/CapperRoleMock.sol",
  "compiler": {
    "name": "solc",
    "version": "0.5.16+commit.9c3226ce.Emscripten.clang"
  },
  "schemaVersion": "3.0.23",
  "updatedAt": "2020-05-14T11:10:26.036Z",
  "devdoc": {
    "methods": {}
  },
  "userdoc": {
    "methods": {}
  }
}