{
  "contractName": "ConditionalEscrowMock",
  "abi": [
    {
      "anonymous": false,
      "inputs": [
        {
          "indexed": true,
          "internalType": "address",
          "name": "payee",
          "type": "address"
        },
        {
          "indexed": false,
          "internalType": "uint256",
          "name": "weiAmount",
          "type": "uint256"
        }
      ],
      "name": "Deposited",
      "type": "event"
    },
    {
      "anonymous": false,
      "inputs": [
        {
          "indexed": false,
          "internalType": "address",
          "name": "recipient",
          "type": "address"
        }
      ],
      "name": "PrimaryTransferred",
      "type": "event"
    },
    {
      "anonymous": false,
      "inputs": [
        {
          "indexed": true,
          "internalType": "address",
          "name": "payee",
          "type": "address"
        },
        {
          "indexed": false,
          "internalType": "uint256",
          "name": "weiAmount",
          "type": "uint256"
        }
      ],
      "name": "Withdrawn",
      "type": "event"
    },
    {
      "constant": false,
      "inputs": [
        {
          "internalType": "address",
          "name": "payee",
          "type": "address"
        }
      ],
      "name": "deposit",
      "outputs": [],
      "payable": true,
      "stateMutability": "payable",
      "type": "function"
    },
    {
      "constant": true,
      "inputs": [
        {
          "internalType": "address",
          "name": "payee",
          "type": "address"
        }
      ],
      "name": "depositsOf",
      "outputs": [
        {
          "internalType": "uint256",
          "name": "",
          "type": "uint256"
        }
      ],
      "payable": false,
      "stateMutability": "view",
      "type": "function"
    },
    {
      "constant": true,
      "inputs": [],
      "name": "primary",
      "outputs": [
        {
          "internalType": "address",
          "name": "",
          "type": "address"
        }
      ],
      "payable": false,
      "stateMutability": "view",
      "type": "function"
    },
    {
      "constant": false,
      "inputs": [
        {
          "internalType": "address",
          "name": "recipient",
          "type": "address"
        }
      ],
      "name": "transferPrimary",
      "outputs": [],
      "payable": false,
      "stateMutability": "nonpayable",
      "type": "function"
    },
    {
      "constant": false,
      "inputs": [
        {
          "internalType": "address payable",
          "name": "payee",
          "type": "address"
        }
      ],
      "name": "withdraw",
      "outputs": [],
      "payable": false,
      "stateMutability": "nonpayable",
      "type": "function"
    },
    {
      "constant": false,
      "inputs": [
        {
          "internalType": "address",
          "name": "payee",
          "type": "address"
        },
        {
          "internalType": "bool",
          "name": "allowed",
          "type": "bool"
        }
      ],
      "name": "setAllowed",
      "outputs": [],
      "payable": false,
      "stateMutability": "nonpayable",
      "type": "function"
    },
    {
      "constant": true,
      "inputs": [
        {
          "internalType": "address",
          "name": "payee",
          "type": "address"
        }
      ],
      "name": "withdrawalAllowed",
      "outputs": [
        {
          "internalType": "bool",
          "name": "",
          "type": "bool"
        }
      ],
      "payable": false,
      "stateMutability": "view",
      "type": "function"
    }
  ],
  "bytecode": "0x60806040819052600080546001600160a01b0319163317908190556001600160a01b031681527f4101e71e974f68df5e9730cc223280b41654676bbb052cdcc735c3337e64d2d990602090a16106668061005a6000396000f3fe6080604052600436106100705760003560e01c8063685ca1941161004e578063685ca19414610118578063c6dbdf611461015f578063e3a9db1a14610190578063f340fa01146101d557610070565b80632348238c146100755780634697f05d146100aa57806351cff8d9146100e5575b600080fd5b34801561008157600080fd5b506100a86004803603602081101561009857600080fd5b50356001600160a01b03166101fb565b005b3480156100b657600080fd5b506100a8600480360360408110156100cd57600080fd5b506001600160a01b03813516906020013515156102e3565b3480156100f157600080fd5b506100a86004803603602081101561010857600080fd5b50356001600160a01b031661030e565b34801561012457600080fd5b5061014b6004803603602081101561013b57600080fd5b50356001600160a01b031661035e565b604080519115158252519081900360200190f35b34801561016b57600080fd5b5061017461037c565b604080516001600160a01b039092168252519081900360200190f35b34801561019c57600080fd5b506101c3600480360360208110156101b357600080fd5b50356001600160a01b031661038b565b60408051918252519081900360200190f35b6100a8600480360360208110156101eb57600080fd5b50356001600160a01b03166103a6565b6000546001600160a01b031633146102445760405162461bcd60e51b815260040180806020018281038252602c815260200180610606602c913960400191505060405180910390fd5b6001600160a01b0381166102895760405162461bcd60e51b815260040180806020018281038252602a8152602001806105dc602a913960400191505060405180910390fd5b600080546001600160a01b0319166001600160a01b03838116919091179182905560408051929091168252517f4101e71e974f68df5e9730cc223280b41654676bbb052cdcc735c3337e64d2d9916020908290030190a150565b6001600160a01b03919091166000908152600260205260409020805460ff1916911515919091179055565b6103178161035e565b6103525760405162461bcd60e51b81526004018080602001828103825260338152602001806105a96033913960400191505060405180910390fd5b61035b81610470565b50565b6001600160a01b031660009081526002602052604090205460ff1690565b6000546001600160a01b031690565b6001600160a01b031660009081526001602052604090205490565b6000546001600160a01b031633146103ef5760405162461bcd60e51b815260040180806020018281038252602c815260200180610606602c913960400191505060405180910390fd5b6001600160a01b038116600090815260016020526040902054349061041a908263ffffffff61054716565b6001600160a01b038316600081815260016020908152604091829020939093558051848152905191927f2da466a7b24304f47e87fa2e1e5a81b9831ce54fec19055ce277ca2f39ba42c492918290030190a25050565b6000546001600160a01b031633146104b95760405162461bcd60e51b815260040180806020018281038252602c815260200180610606602c913960400191505060405180910390fd5b6001600160a01b038116600081815260016020526040808220805490839055905190929183156108fc02918491818181858888f19350505050158015610503573d6000803e3d6000fd5b506040805182815290516001600160a01b038416917f7084f5476618d8e60b11ef0d7d3f06914655adb8793e28ff7f018d4c76d505d5919081900360200190a25050565b6000828201838110156105a1576040805162461bcd60e51b815260206004820152601b60248201527f536166654d6174683a206164646974696f6e206f766572666c6f770000000000604482015290519081900360640190fd5b939250505056fe436f6e646974696f6e616c457363726f773a207061796565206973206e6f7420616c6c6f77656420746f2077697468647261775365636f6e646172793a206e6577207072696d61727920697320746865207a65726f20616464726573735365636f6e646172793a2063616c6c6572206973206e6f7420746865207072696d617279206163636f756e74a265627a7a72315820b2b250bb8087a7ae2c5e3262b07f5e9eb81d5ca6fd8401fd94084a56f2f504f564736f6c63430005100032",
  "source": "pragma solidity ^0.5.0;\n\nimport \"../payment/escrow/ConditionalEscrow.sol\";\n\n// mock class using ConditionalEscrow\ncontract ConditionalEscrowMock is ConditionalEscrow {\n    mapping(address => bool) private _allowed;\n\n    function setAllowed(address payee, bool allowed) public {\n        _allowed[payee] = allowed;\n    }\n\n    function withdrawalAllowed(address payee) public view returns (bool) {\n        return _allowed[payee];\n    }\n}\n",
  "sourcePath": "/home/grifma/Code/vi-admin-ui/contracts/lib/openzeppelin-solidity/contracts/mocks/ConditionalEscrowMock.sol",
  "compiler": {
    "name": "solc",
    "version": "0.5.16+commit.9c3226ce.Emscripten.clang"
  },
  "schemaVersion": "3.0.23",
  "updatedAt": "2020-05-14T20:26:11.248Z",
  "devdoc": {
    "methods": {
      "deposit(address)": {
        "details": "Stores the sent amount as credit to be withdrawn.",
        "params": {
          "payee": "The destination address of the funds."
        }
      },
      "primary()": {
        "return": "the address of the primary."
      },
      "transferPrimary(address)": {
        "details": "Transfers contract to a new primary.",
        "params": {
          "recipient": "The address of new primary."
        }
      }
    }
  },
  "userdoc": {
    "methods": {}
  }
}