{
  "contractName": "ERC777",
  "abi": [
    {
      "inputs": [
        {
          "internalType": "string",
          "name": "name",
          "type": "string"
        },
        {
          "internalType": "string",
          "name": "symbol",
          "type": "string"
        },
        {
          "internalType": "address[]",
          "name": "defaultOperators",
          "type": "address[]"
        }
      ],
      "payable": false,
      "stateMutability": "nonpayable",
      "type": "constructor"
    },
    {
      "anonymous": false,
      "inputs": [
        {
          "indexed": true,
          "internalType": "address",
          "name": "operator",
          "type": "address"
        },
        {
          "indexed": true,
          "internalType": "address",
          "name": "tokenHolder",
          "type": "address"
        }
      ],
      "name": "AuthorizedOperator",
      "type": "event"
    },
    {
      "anonymous": false,
      "inputs": [
        {
          "indexed": true,
          "internalType": "address",
          "name": "operator",
          "type": "address"
        },
        {
          "indexed": true,
          "internalType": "address",
          "name": "from",
          "type": "address"
        },
        {
          "indexed": false,
          "internalType": "uint256",
          "name": "amount",
          "type": "uint256"
        },
        {
          "indexed": false,
          "internalType": "bytes",
          "name": "data",
          "type": "bytes"
        },
        {
          "indexed": false,
          "internalType": "bytes",
          "name": "operatorData",
          "type": "bytes"
        }
      ],
      "name": "Burned",
      "type": "event"
    },
    {
      "anonymous": false,
      "inputs": [
        {
          "indexed": true,
          "internalType": "address",
          "name": "operator",
          "type": "address"
        },
        {
          "indexed": true,
          "internalType": "address",
          "name": "to",
          "type": "address"
        },
        {
          "indexed": false,
          "internalType": "uint256",
          "name": "amount",
          "type": "uint256"
        },
        {
          "indexed": false,
          "internalType": "bytes",
          "name": "data",
          "type": "bytes"
        },
        {
          "indexed": false,
          "internalType": "bytes",
          "name": "operatorData",
          "type": "bytes"
        }
      ],
      "name": "Minted",
      "type": "event"
    },
    {
      "anonymous": false,
      "inputs": [
        {
          "indexed": true,
          "internalType": "address",
          "name": "operator",
          "type": "address"
        },
        {
          "indexed": true,
          "internalType": "address",
          "name": "tokenHolder",
          "type": "address"
        }
      ],
      "name": "RevokedOperator",
      "type": "event"
    },
    {
      "anonymous": false,
      "inputs": [
        {
          "indexed": true,
          "internalType": "address",
          "name": "operator",
          "type": "address"
        },
        {
          "indexed": true,
          "internalType": "address",
          "name": "from",
          "type": "address"
        },
        {
          "indexed": true,
          "internalType": "address",
          "name": "to",
          "type": "address"
        },
        {
          "indexed": false,
          "internalType": "uint256",
          "name": "amount",
          "type": "uint256"
        },
        {
          "indexed": false,
          "internalType": "bytes",
          "name": "data",
          "type": "bytes"
        },
        {
          "indexed": false,
          "internalType": "bytes",
          "name": "operatorData",
          "type": "bytes"
        }
      ],
      "name": "Sent",
      "type": "event"
    },
    {
      "constant": false,
      "inputs": [
        {
          "internalType": "address",
          "name": "to",
          "type": "address"
        },
        {
          "internalType": "uint256",
          "name": "amount",
          "type": "uint256"
        },
        {
          "internalType": "bytes",
          "name": "data",
          "type": "bytes"
        }
      ],
      "name": "send",
      "outputs": [],
      "payable": false,
      "stateMutability": "nonpayable",
      "type": "function"
    },
    {
      "constant": false,
      "inputs": [
        {
          "internalType": "address",
          "name": "from",
          "type": "address"
        },
        {
          "internalType": "address",
          "name": "to",
          "type": "address"
        },
        {
          "internalType": "uint256",
          "name": "amount",
          "type": "uint256"
        },
        {
          "internalType": "bytes",
          "name": "data",
          "type": "bytes"
        },
        {
          "internalType": "bytes",
          "name": "operatorData",
          "type": "bytes"
        }
      ],
      "name": "operatorSend",
      "outputs": [],
      "payable": false,
      "stateMutability": "nonpayable",
      "type": "function"
    },
    {
      "constant": false,
      "inputs": [
        {
          "internalType": "uint256",
          "name": "amount",
          "type": "uint256"
        },
        {
          "internalType": "bytes",
          "name": "data",
          "type": "bytes"
        }
      ],
      "name": "burn",
      "outputs": [],
      "payable": false,
      "stateMutability": "nonpayable",
      "type": "function"
    },
    {
      "constant": false,
      "inputs": [
        {
          "internalType": "address",
          "name": "from",
          "type": "address"
        },
        {
          "internalType": "uint256",
          "name": "amount",
          "type": "uint256"
        },
        {
          "internalType": "bytes",
          "name": "data",
          "type": "bytes"
        },
        {
          "internalType": "bytes",
          "name": "operatorData",
          "type": "bytes"
        }
      ],
      "name": "operatorBurn",
      "outputs": [],
      "payable": false,
      "stateMutability": "nonpayable",
      "type": "function"
    },
    {
      "constant": false,
      "inputs": [
        {
          "internalType": "address",
          "name": "operator",
          "type": "address"
        }
      ],
      "name": "authorizeOperator",
      "outputs": [],
      "payable": false,
      "stateMutability": "nonpayable",
      "type": "function"
    },
    {
      "constant": false,
      "inputs": [
        {
          "internalType": "address",
          "name": "operator",
          "type": "address"
        }
      ],
      "name": "revokeOperator",
      "outputs": [],
      "payable": false,
      "stateMutability": "nonpayable",
      "type": "function"
    },
    {
      "constant": true,
      "inputs": [],
      "name": "name",
      "outputs": [
        {
          "internalType": "string",
          "name": "",
          "type": "string"
        }
      ],
      "payable": false,
      "stateMutability": "view",
      "type": "function"
    },
    {
      "constant": true,
      "inputs": [],
      "name": "symbol",
      "outputs": [
        {
          "internalType": "string",
          "name": "",
          "type": "string"
        }
      ],
      "payable": false,
      "stateMutability": "view",
      "type": "function"
    },
    {
      "constant": true,
      "inputs": [],
      "name": "totalSupply",
      "outputs": [
        {
          "internalType": "uint256",
          "name": "",
          "type": "uint256"
        }
      ],
      "payable": false,
      "stateMutability": "view",
      "type": "function"
    },
    {
      "constant": true,
      "inputs": [
        {
          "internalType": "address",
          "name": "tokenHolder",
          "type": "address"
        }
      ],
      "name": "balanceOf",
      "outputs": [
        {
          "internalType": "uint256",
          "name": "",
          "type": "uint256"
        }
      ],
      "payable": false,
      "stateMutability": "view",
      "type": "function"
    },
    {
      "constant": true,
      "inputs": [],
      "name": "granularity",
      "outputs": [
        {
          "internalType": "uint256",
          "name": "",
          "type": "uint256"
        }
      ],
      "payable": false,
      "stateMutability": "view",
      "type": "function"
    },
    {
      "constant": true,
      "inputs": [],
      "name": "defaultOperators",
      "outputs": [
        {
          "internalType": "address[]",
          "name": "",
          "type": "address[]"
        }
      ],
      "payable": false,
      "stateMutability": "view",
      "type": "function"
    },
    {
      "constant": true,
      "inputs": [
        {
          "internalType": "address",
          "name": "operator",
          "type": "address"
        },
        {
          "internalType": "address",
          "name": "tokenHolder",
          "type": "address"
        }
      ],
      "name": "isOperatorFor",
      "outputs": [
        {
          "internalType": "bool",
          "name": "",
          "type": "bool"
        }
      ],
      "payable": false,
      "stateMutability": "view",
      "type": "function"
    }
  ],
  "bytecode": "0x6080604052600080546001600160a01b031916731820a4b7618bde71dce8cdc73aab6c95905fad241790553480156200003757600080fd5b506040516200189938038062001899833981810160405260608110156200005d57600080fd5b81019080805160405193929190846401000000008211156200007e57600080fd5b9083019060208201858111156200009457600080fd5b8251640100000000811182820188101715620000af57600080fd5b82525081516020918201929091019080838360005b83811015620000de578181015183820152602001620000c4565b50505050905090810190601f1680156200010c5780820380516001836020036101000a031916815260200191505b50604052602001805160405193929190846401000000008211156200013057600080fd5b9083019060208201858111156200014657600080fd5b82516401000000008111828201881017156200016157600080fd5b82525081516020918201929091019080838360005b838110156200019057818101518382015260200162000176565b50505050905090810190601f168015620001be5780820380516001836020036101000a031916815260200191505b5060405260200180516040519392919084640100000000821115620001e257600080fd5b908301906020820185811115620001f857600080fd5b82518660208202830111640100000000821117156200021657600080fd5b82525081516020918201928201910280838360005b83811015620002455781810151838201526020016200022b565b5050505091909101604052505084516200026992506001915060208601906200038b565b5081516200027f9060029060208501906200038b565b5080516200029590600590602084019062000410565b5060005b600554811015620002f55760016006600060058481548110620002b857fe5b6000918252602080832091909101546001600160a01b031683528201929092526040019020805460ff191691151591909117905560010162000299565b5060008054604080516a22a9219b9b9baa37b5b2b760a91b8152815190819003600b0181206329965a1d60e01b825230600483018190526024830191909152604482015290516001600160a01b03909216926329965a1d9260648084019382900301818387803b1580156200036957600080fd5b505af11580156200037e573d6000803e3d6000fd5b50505050505050620004bd565b828054600181600116156101000203166002900490600052602060002090601f016020900481019282601f10620003ce57805160ff1916838001178555620003fe565b82800160010185558215620003fe579182015b82811115620003fe578251825591602001919060010190620003e1565b506200040c92915062000476565b5090565b82805482825590600052602060002090810192821562000468579160200282015b828111156200046857825182546001600160a01b0319166001600160a01b0390911617825560209092019160019091019062000431565b506200040c92915062000496565b6200049391905b808211156200040c57600081556001016200047d565b90565b6200049391905b808211156200040c5780546001600160a01b03191681556001016200049d565b6113cc80620004cd6000396000f3fe608060405234801561001057600080fd5b50600436106100cf5760003560e01c8063959b8c3f1161008c578063d95b637111610066578063d95b637114610382578063fad8b32a146103c4578063fc673c4f146103ea578063fe9d9303146104bd576100cf565b8063959b8c3f146102d157806395d89b41146102f75780639bd9bbc6146102ff576100cf565b806306e48538146100d457806306fdde031461012c57806318160ddd146101a9578063556f0dc7146101c357806362ad1b83146101cb57806370a08231146102ab575b600080fd5b6100dc610532565b60408051602080825283518183015283519192839290830191858101910280838360005b83811015610118578181015183820152602001610100565b505050509050019250505060405180910390f35b610134610594565b6040805160208082528351818301528351919283929083019185019080838360005b8381101561016e578181015183820152602001610156565b50505050905090810190601f16801561019b5780820380516001836020036101000a031916815260200191505b509250505060405180910390f35b6101b1610620565b60408051918252519081900360200190f35b6101b1610626565b6102a9600480360360a08110156101e157600080fd5b6001600160a01b03823581169260208101359091169160408201359190810190608081016060820135600160201b81111561021b57600080fd5b82018360208201111561022d57600080fd5b803590602001918460018302840111600160201b8311171561024e57600080fd5b919390929091602081019035600160201b81111561026b57600080fd5b82018360208201111561027d57600080fd5b803590602001918460018302840111600160201b8311171561029e57600080fd5b50909250905061062b565b005b6101b1600480360360208110156102c157600080fd5b50356001600160a01b03166106be565b6102a9600480360360208110156102e757600080fd5b50356001600160a01b03166106d9565b6101346107a8565b6102a96004803603606081101561031557600080fd5b6001600160a01b0382351691602081013591810190606081016040820135600160201b81111561034457600080fd5b82018360208201111561035657600080fd5b803590602001918460018302840111600160201b8311171561037757600080fd5b509092509050610806565b6103b06004803603604081101561039857600080fd5b506001600160a01b038135811691602001351661085d565b604080519115158252519081900360200190f35b6102a9600480360360208110156103da57600080fd5b50356001600160a01b03166108ff565b6102a96004803603608081101561040057600080fd5b6001600160a01b0382351691602081013591810190606081016040820135600160201b81111561042f57600080fd5b82018360208201111561044157600080fd5b803590602001918460018302840111600160201b8311171561046257600080fd5b919390929091602081019035600160201b81111561047f57600080fd5b82018360208201111561049157600080fd5b803590602001918460018302840111600160201b831117156104b257600080fd5b5090925090506109ce565b6102a9600480360360408110156104d357600080fd5b81359190810190604081016020820135600160201b8111156104f457600080fd5b82018360208201111561050657600080fd5b803590602001918460018302840111600160201b8311171561052757600080fd5b509092509050610a5f565b6060600580548060200260200160405190810160405280929190818152602001828054801561058a57602002820191906000526020600020905b81546001600160a01b0316815260019091019060200180831161056c575b5050505050905090565b60018054604080516020601f6002600019610100878916150201909516949094049384018190048102820181019092528281526060939092909183018282801561058a5780601f106105f45761010080835404028352916020019161058a565b820191906000526020600020905b81548152906001019060200180831161060257509395945050505050565b60045490565b600190565b610635338861085d565b61063e57600080fd5b6106b53388888888888080601f01602080910402602001604051908101604052809392919081815260200183838082843760009201919091525050604080516020601f8c018190048102820181019092528a815292508a9150899081908401838280828437600092019190915250610ab492505050565b50505050505050565b6001600160a01b031660009081526003602052604090205490565b336001600160a01b03821614156106ef57600080fd5b6001600160a01b03811660009081526006602052604090205460ff1615610740573360009081526008602090815260408083206001600160a01b03851684529091529020805460ff1916905561076f565b3360009081526007602090815260408083206001600160a01b03851684529091529020805460ff191660011790555b60405133906001600160a01b038316907ff4caeb2d6ca8932a215a353d0703c326ec2d81fc68170f320eb2ab49e9df61f990600090a350565b60028054604080516020601f600019610100600187161502019094168590049384018190048102820181019092528281526060939092909183018282801561058a5780601f106105f45761010080835404028352916020019161058a565b6108573333868686868080601f016020809104026020016040519081016040528093929190818152602001838380828437600092018290525060408051602081019091529081529250610ab4915050565b50505050565b6000816001600160a01b0316836001600160a01b031614806108c857506001600160a01b03831660009081526006602052604090205460ff1680156108c857506001600160a01b0380831660009081526008602090815260408083209387168352929052205460ff16155b806108f857506001600160a01b0380831660009081526007602090815260408083209387168352929052205460ff165b9392505050565b6001600160a01b03811633141561091557600080fd5b6001600160a01b03811660009081526006602052604090205460ff1615610969573360009081526008602090815260408083206001600160a01b03851684529091529020805460ff19166001179055610995565b3360009081526007602090815260408083206001600160a01b03851684529091529020805460ff191690555b60405133906001600160a01b038316907f50546e66e5f44d728365dc3908c63bc5cfeeab470722c1677e3073a6ac294aa190600090a350565b6109d8338761085d565b6109e157600080fd5b610a5733878787878080601f01602080910402602001604051908101604052809392919081815260200183838082843760009201919091525050604080516020601f8b018190048102820181019092528981529250899150889081908401838280828437600092019190915250610c9b92505050565b505050505050565b610aaf33338585858080601f016020809104026020016040519081016040528093929190818152602001838380828437600092018290525060408051602081019091529081529250610c9b915050565b505050565b6001600160a01b038516610ac757600080fd5b6001600160a01b038416610ada57600080fd5b610ae8868686868686610e48565b6001600160a01b038516600090815260036020526040902054610b11908463ffffffff61108416565b6001600160a01b038087166000908152600360205260408082209390935590861681522054610b46908463ffffffff6110e116565b6001600160a01b038516600090815260036020526040902055610b6d86868686868661113b565b836001600160a01b0316856001600160a01b0316876001600160a01b03167f06b541ddaa720db2b10a4d0cdac39b8d360425fc073085fac19bc82614677987868686604051808481526020018060200180602001838103835285818151815260200191508051906020019080838360005b83811015610bf6578181015183820152602001610bde565b50505050905090810190601f168015610c235780820380516001836020036101000a031916815260200191505b50838103825284518152845160209182019186019080838360005b83811015610c56578181015183820152602001610c3e565b50505050905090810190601f168015610c835780820380516001836020036101000a031916815260200191505b509550505050505060405180910390a4505050505050565b6001600160a01b038416610cae57600080fd5b610cbd85856000868686610e48565b600454610cd0908463ffffffff61108416565b6004556001600160a01b038416600090815260036020526040902054610cfc908463ffffffff61108416565b60036000866001600160a01b03166001600160a01b0316815260200190815260200160002081905550836001600160a01b0316856001600160a01b03167fa78a9be3a7b862d26933ad85fb11d80ef66b8f972d7cbba06621d583943a4098858585604051808481526020018060200180602001838103835285818151815260200191508051906020019080838360005b83811015610da4578181015183820152602001610d8c565b50505050905090810190601f168015610dd15780820380516001836020036101000a031916815260200191505b50838103825284518152845160209182019186019080838360005b83811015610e04578181015183820152602001610dec565b50505050905090810190601f168015610e315780820380516001836020036101000a031916815260200191505b509550505050505060405180910390a35050505050565b60008054604080517122a9219b9b9baa37b5b2b739a9b2b73232b960711b8152815190819003601201812063555ddc6560e11b82526001600160a01b038a8116600484015260248301919091529151919092169163aabbb8ca916044808301926020929190829003018186803b158015610ec157600080fd5b505afa158015610ed5573d6000803e3d6000fd5b505050506040513d6020811015610eeb57600080fd5b505190506001600160a01b038116156106b557806001600160a01b03166375ab97828888888888886040518763ffffffff1660e01b815260040180876001600160a01b03166001600160a01b03168152602001866001600160a01b03166001600160a01b03168152602001856001600160a01b03166001600160a01b031681526020018481526020018060200180602001838103835285818151815260200191508051906020019080838360005b83811015610fb1578181015183820152602001610f99565b50505050905090810190601f168015610fde5780820380516001836020036101000a031916815260200191505b50838103825284518152845160209182019186019080838360005b83811015611011578181015183820152602001610ff9565b50505050905090810190601f16801561103e5780820380516001836020036101000a031916815260200191505b5098505050505050505050600060405180830381600087803b15801561106357600080fd5b505af1158015611077573d6000803e3d6000fd5b5050505050505050505050565b6000828211156110db576040805162461bcd60e51b815260206004820152601e60248201527f536166654d6174683a207375627472616374696f6e206f766572666c6f770000604482015290519081900360640190fd5b50900390565b6000828201838110156108f8576040805162461bcd60e51b815260206004820152601b60248201527f536166654d6174683a206164646974696f6e206f766572666c6f770000000000604482015290519081900360640190fd5b600080546040805174115490cdcdcdd51bdad95b9cd49958da5c1a595b9d605a1b8152815190819003601501812063555ddc6560e11b82526001600160a01b03898116600484015260248301919091529151919092169163aabbb8ca916044808301926020929190829003018186803b1580156111b757600080fd5b505afa1580156111cb573d6000803e3d6000fd5b505050506040513d60208110156111e157600080fd5b505190506001600160a01b0381161561137557806001600160a01b03166223de298888888888886040518763ffffffff1660e01b815260040180876001600160a01b03166001600160a01b03168152602001866001600160a01b03166001600160a01b03168152602001856001600160a01b03166001600160a01b031681526020018481526020018060200180602001838103835285818151815260200191508051906020019080838360005b838110156112a657818101518382015260200161128e565b50505050905090810190601f1680156112d35780820380516001836020036101000a031916815260200191505b50838103825284518152845160209182019186019080838360005b838110156113065781810151838201526020016112ee565b50505050905090810190601f1680156113335780820380516001836020036101000a031916815260200191505b5098505050505050505050600060405180830381600087803b15801561135857600080fd5b505af115801561136c573d6000803e3d6000fd5b505050506106b5565b611387856001600160a01b0316611391565b156106b557600080fd5b3b15159056fea265627a7a72315820c79c095c4a02fd663aff54ad6abe212c0ef93a5337083b5fb6518a3bc2aa97bd64736f6c63430005100032",
  "source": "pragma solidity ^0.5.0;\n\nimport \"./IERC777.sol\";\nimport \"./IERC777Recipient.sol\";\nimport \"./IERC777Sender.sol\";\nimport \"../../math/SafeMath.sol\";\nimport \"../../utils/Address.sol\";\nimport \"../IERC1820Registry.sol\";\n\n/**\n * @title ERC777 token implementation, with granularity harcoded to 1.\n * @author etsvigun <utgarda@gmail.com>, Bertrand Masius <github@catageeks.tk>\n */\ncontract ERC777 is IERC777 {\n    using SafeMath for uint256;\n    using Address for address;\n\n    IERC1820Registry private _erc1820 = IERC1820Registry(0x1820a4B7618BdE71Dce8cdc73aAB6C95905faD24);\n\n    string private _name;\n\n    string private _symbol;\n\n    mapping(address => uint256) private _balances;\n\n    uint256 private _totalSupply;\n\n    bytes32 constant private TOKENS_SENDER_INTERFACE_HASH = keccak256(\"ERC777TokensSender\");\n    bytes32 constant private TOKENS_RECIPIENT_INTERFACE_HASH = keccak256(\"ERC777TokensRecipient\");\n\n    // This isn't ever read from - it's only used to respond to the defaultOperators query.\n    address[] private _defaultOperatorsArray;\n\n    // Immutable, but accounts may revoke them (tracked in __revokedDefaultOperators).\n    mapping(address => bool) private _defaultOperators;\n\n    // For each account, a mapping of its operators and revoked default operators.\n    mapping(address => mapping(address => bool)) private _operators;\n    mapping(address => mapping(address => bool)) private _revokedDefaultOperators;\n\n    constructor(\n        string memory name,\n        string memory symbol,\n        address[] memory defaultOperators\n    ) public {\n        _name = name;\n        _symbol = symbol;\n\n        _defaultOperatorsArray = defaultOperators;\n        for (uint256 i = 0; i < _defaultOperatorsArray.length; i++) {\n            _defaultOperators[_defaultOperatorsArray[i]] = true;\n        }\n\n        // register interface\n        _erc1820.setInterfaceImplementer(address(this), keccak256(\"ERC777Token\"), address(this));\n    }\n\n    /**\n     * @dev Send the amount of tokens from the address msg.sender to the address to\n     * @param to address recipient address\n     * @param amount uint256 amount of tokens to transfer\n     * @param data bytes information attached to the send, and intended for the recipient (to)\n     */\n    function send(address to, uint256 amount, bytes calldata data) external {\n        _send(msg.sender, msg.sender, to, amount, data, \"\");\n    }\n\n    /**\n     * @dev Send the amount of tokens on behalf of the address from to the address to\n     * @param from address token holder address.\n     * @param to address recipient address\n     * @param amount uint256 amount of tokens to transfer\n     * @param data bytes information attached to the send, and intended for the recipient (to)\n     * @param operatorData bytes extra information provided by the operator (if any)\n     */\n    function operatorSend(\n        address from,\n        address to,\n        uint256 amount,\n        bytes calldata data,\n        bytes calldata operatorData\n    )\n    external\n    {\n        require(isOperatorFor(msg.sender, from));\n        _send(msg.sender, from, to, amount, data, operatorData);\n    }\n\n    /**\n     * @dev Burn the amount of tokens from the address msg.sender\n     * @param amount uint256 amount of tokens to transfer\n     * @param data bytes extra information provided by the token holder\n     */\n    function burn(uint256 amount, bytes calldata data) external {\n        _burn(msg.sender, msg.sender, amount, data, \"\");\n    }\n\n    /**\n     * @dev Burn the amount of tokens on behalf of the address from\n     * @param from address token holder address.\n     * @param amount uint256 amount of tokens to transfer\n     * @param data bytes extra information provided by the token holder\n     * @param operatorData bytes extra information provided by the operator (if any)\n     */\n    function operatorBurn(address from, uint256 amount, bytes calldata data, bytes calldata operatorData) external {\n        require(isOperatorFor(msg.sender, from));\n        _burn(msg.sender, from, amount, data, operatorData);\n    }\n\n    /**\n     * @dev Authorize an operator for the sender\n     * @param operator address to be authorized as operator\n     */\n    function authorizeOperator(address operator) external {\n        require(msg.sender != operator);\n\n        if (_defaultOperators[operator]) {\n            delete _revokedDefaultOperators[msg.sender][operator];\n        } else {\n            _operators[msg.sender][operator] = true;\n        }\n\n        emit AuthorizedOperator(operator, msg.sender);\n    }\n\n    /**\n     * @dev Revoke operator rights from one of the default operators\n     * @param operator address to revoke operator rights from\n     */\n    function revokeOperator(address operator) external {\n        require(operator != msg.sender);\n\n        if (_defaultOperators[operator]) {\n            _revokedDefaultOperators[msg.sender][operator] = true;\n        } else {\n            delete _operators[msg.sender][operator];\n        }\n\n        emit RevokedOperator(operator, msg.sender);\n    }\n\n    /**\n     * @return the name of the token.\n     */\n    function name() public view returns (string memory) {\n        return _name;\n    }\n\n    /**\n     * @return the symbol of the token.\n     */\n    function symbol() public view returns (string memory) {\n        return _symbol;\n    }\n\n    /**\n     * @dev Total number of tokens in existence\n     */\n    function totalSupply() public view returns (uint256) {\n        return _totalSupply;\n    }\n\n    /**\n     * @dev Gets the balance of the specified address.\n     * @param tokenHolder The address to query the balance of.\n        * @return uint256 representing the amount owned by the specified address.\n     */\n    function balanceOf(address tokenHolder) public view returns (uint256) {\n        return _balances[tokenHolder];\n    }\n\n    /**\n     * @dev Gets the token's granularity,\n     * i.e. the smallest number of tokens (in the basic unit)\n     * which may be minted, sent or burned at any time\n     * @return uint256 granularity\n     */\n    function granularity() public view returns (uint256) {\n        return 1;\n    }\n\n    /**\n     * @dev Get the list of default operators as defined by the token contract.\n     * @return address[] default operators\n     */\n    function defaultOperators() public view returns (address[] memory) {\n        return _defaultOperatorsArray;\n    }\n\n    /**\n     * @dev Indicate whether an address\n     * is an operator of the tokenHolder address\n     * @param operator address which may be an operator of tokenHolder\n     * @param tokenHolder address of a token holder which may have the operator\n     * address as an operator.\n     */\n    function isOperatorFor(\n        address operator,\n        address tokenHolder\n    ) public view returns (bool) {\n        return operator == tokenHolder ||\n            (_defaultOperators[operator] && !_revokedDefaultOperators[tokenHolder][operator]) ||\n            _operators[tokenHolder][operator];\n    }\n\n    /**\n     * @dev Mint tokens. Does not check authorization of operator\n     * @dev the caller may ckeck that operator is authorized before calling\n     * @param operator address operator requesting the operation\n     * @param to address token recipient address\n     * @param amount uint256 amount of tokens to mint\n     * @param userData bytes extra information defined by the token recipient (if any)\n     * @param operatorData bytes extra information provided by the operator (if any)\n     */\n    function _mint(\n        address operator,\n        address to,\n        uint256 amount,\n        bytes memory userData,\n        bytes memory operatorData\n    )\n    internal\n    {\n        require(to != address(0));\n\n        // Update state variables\n        _totalSupply = _totalSupply.add(amount);\n        _balances[to] = _balances[to].add(amount);\n\n        _callTokensReceived(operator, address(0), to, amount, userData, operatorData);\n\n        emit Minted(operator, to, amount, userData, operatorData);\n    }\n\n    /**\n     * @dev Send tokens\n     * @param operator address operator requesting the transfer\n     * @param from address token holder address\n     * @param to address recipient address\n     * @param amount uint256 amount of tokens to transfer\n     * @param userData bytes extra information provided by the token holder (if any)\n     * @param operatorData bytes extra information provided by the operator (if any)\n     */\n    function _send(\n        address operator,\n        address from,\n        address to,\n        uint256 amount,\n        bytes memory userData,\n        bytes memory operatorData\n    )\n    private\n    {\n        require(from != address(0));\n        require(to != address(0));\n\n        _callTokensToSend(operator, from, to, amount, userData, operatorData);\n\n        // Update state variables\n        _balances[from] = _balances[from].sub(amount);\n        _balances[to] = _balances[to].add(amount);\n\n        _callTokensReceived(operator, from, to, amount, userData, operatorData);\n\n        emit Sent(operator, from, to, amount, userData, operatorData);\n    }\n\n    /**\n     * @dev Burn tokens\n     * @param operator address operator requesting the operation\n     * @param from address token holder address\n     * @param amount uint256 amount of tokens to burn\n     * @param data bytes extra information provided by the token holder\n     * @param operatorData bytes extra information provided by the operator (if any)\n     */\n    function _burn(\n        address operator,\n        address from,\n        uint256 amount,\n        bytes memory data,\n        bytes memory operatorData\n    )\n    private\n    {\n        require(from != address(0));\n\n        _callTokensToSend(operator, from, address(0), amount, data, operatorData);\n\n        // Update state variables\n        _totalSupply = _totalSupply.sub(amount);\n        _balances[from] = _balances[from].sub(amount);\n\n        emit Burned(operator, from, amount, data, operatorData);\n    }\n\n    /**\n     * @dev Call from.tokensToSend() if the interface is registered\n     * @param operator address operator requesting the transfer\n     * @param from address token holder address\n     * @param to address recipient address\n     * @param amount uint256 amount of tokens to transfer\n     * @param userData bytes extra information provided by the token holder (if any)\n     * @param operatorData bytes extra information provided by the operator (if any)\n     */\n    function _callTokensToSend(\n        address operator,\n        address from,\n        address to,\n        uint256 amount,\n        bytes memory userData,\n        bytes memory operatorData\n    )\n    private\n    {\n        address implementer = _erc1820.getInterfaceImplementer(from, TOKENS_SENDER_INTERFACE_HASH);\n        if (implementer != address(0)) {\n            IERC777Sender(implementer).tokensToSend(operator, from, to, amount, userData, operatorData);\n        }\n    }\n\n    /**\n     * @dev Call to.tokensReceived() if the interface is registered. Reverts if the recipient is a contract but\n     * tokensReceived() was not registered for the recipient\n     * @param operator address operator requesting the transfer\n     * @param from address token holder address\n     * @param to address recipient address\n     * @param amount uint256 amount of tokens to transfer\n     * @param userData bytes extra information provided by the token holder (if any)\n     * @param operatorData bytes extra information provided by the operator (if any)\n     */\n    function _callTokensReceived(\n        address operator,\n        address from,\n        address to,\n        uint256 amount,\n        bytes memory userData,\n        bytes memory operatorData\n    )\n    private\n    {\n        address implementer = _erc1820.getInterfaceImplementer(to, TOKENS_RECIPIENT_INTERFACE_HASH);\n        if (implementer != address(0)) {\n            IERC777Recipient(implementer).tokensReceived(operator, from, to, amount, userData, operatorData);\n        } else {\n            require(!to.isContract());\n        }\n    }\n}\n",
  "sourcePath": "/home/grifma/Code/vi-admin-ui/contracts/lib/openzeppelin-solidity/contracts/drafts/ERC777/ERC777.sol",
  "compiler": {
    "name": "solc",
    "version": "0.5.16+commit.9c3226ce.Emscripten.clang"
  },
  "schemaVersion": "3.0.23",
  "updatedAt": "2020-05-14T20:26:11.183Z",
  "devdoc": {
    "author": "etsvigun <utgarda@gmail.com>, Bertrand Masius <github@catageeks.tk>",
    "methods": {
      "authorizeOperator(address)": {
        "details": "Authorize an operator for the sender",
        "params": {
          "operator": "address to be authorized as operator"
        }
      },
      "balanceOf(address)": {
        "details": "Gets the balance of the specified address.",
        "params": {
          "tokenHolder": "The address to query the balance of."
        },
        "return": "uint256 representing the amount owned by the specified address."
      },
      "burn(uint256,bytes)": {
        "details": "Burn the amount of tokens from the address msg.sender",
        "params": {
          "amount": "uint256 amount of tokens to transfer",
          "data": "bytes extra information provided by the token holder"
        }
      },
      "defaultOperators()": {
        "details": "Get the list of default operators as defined by the token contract.",
        "return": "address[] default operators"
      },
      "granularity()": {
        "details": "Gets the token's granularity, i.e. the smallest number of tokens (in the basic unit) which may be minted, sent or burned at any time",
        "return": "uint256 granularity"
      },
      "isOperatorFor(address,address)": {
        "details": "Indicate whether an address is an operator of the tokenHolder address",
        "params": {
          "operator": "address which may be an operator of tokenHolder",
          "tokenHolder": "address of a token holder which may have the operator address as an operator."
        }
      },
      "name()": {
        "return": "the name of the token."
      },
      "operatorBurn(address,uint256,bytes,bytes)": {
        "details": "Burn the amount of tokens on behalf of the address from",
        "params": {
          "amount": "uint256 amount of tokens to transfer",
          "data": "bytes extra information provided by the token holder",
          "from": "address token holder address.",
          "operatorData": "bytes extra information provided by the operator (if any)"
        }
      },
      "operatorSend(address,address,uint256,bytes,bytes)": {
        "details": "Send the amount of tokens on behalf of the address from to the address to",
        "params": {
          "amount": "uint256 amount of tokens to transfer",
          "data": "bytes information attached to the send, and intended for the recipient (to)",
          "from": "address token holder address.",
          "operatorData": "bytes extra information provided by the operator (if any)",
          "to": "address recipient address"
        }
      },
      "revokeOperator(address)": {
        "details": "Revoke operator rights from one of the default operators",
        "params": {
          "operator": "address to revoke operator rights from"
        }
      },
      "send(address,uint256,bytes)": {
        "details": "Send the amount of tokens from the address msg.sender to the address to",
        "params": {
          "amount": "uint256 amount of tokens to transfer",
          "data": "bytes information attached to the send, and intended for the recipient (to)",
          "to": "address recipient address"
        }
      },
      "symbol()": {
        "return": "the symbol of the token."
      },
      "totalSupply()": {
        "details": "Total number of tokens in existence"
      }
    },
    "title": "ERC777 token implementation, with granularity harcoded to 1."
  },
  "userdoc": {
    "methods": {}
  }
}