{
  "contractName": "ERC777Mock",
  "abi": [
    {
      "inputs": [
        {
          "internalType": "address",
          "name": "initialHolder",
          "type": "address"
        },
        {
          "internalType": "uint256",
          "name": "initialBalance",
          "type": "uint256"
        },
        {
          "internalType": "string",
          "name": "name",
          "type": "string"
        },
        {
          "internalType": "string",
          "name": "symbol",
          "type": "string"
        },
        {
          "internalType": "address[]",
          "name": "defaultOperators",
          "type": "address[]"
        }
      ],
      "payable": false,
      "stateMutability": "nonpayable",
      "type": "constructor"
    },
    {
      "anonymous": false,
      "inputs": [
        {
          "indexed": true,
          "internalType": "address",
          "name": "operator",
          "type": "address"
        },
        {
          "indexed": true,
          "internalType": "address",
          "name": "tokenHolder",
          "type": "address"
        }
      ],
      "name": "AuthorizedOperator",
      "type": "event"
    },
    {
      "anonymous": false,
      "inputs": [
        {
          "indexed": true,
          "internalType": "address",
          "name": "operator",
          "type": "address"
        },
        {
          "indexed": true,
          "internalType": "address",
          "name": "from",
          "type": "address"
        },
        {
          "indexed": false,
          "internalType": "uint256",
          "name": "amount",
          "type": "uint256"
        },
        {
          "indexed": false,
          "internalType": "bytes",
          "name": "data",
          "type": "bytes"
        },
        {
          "indexed": false,
          "internalType": "bytes",
          "name": "operatorData",
          "type": "bytes"
        }
      ],
      "name": "Burned",
      "type": "event"
    },
    {
      "anonymous": false,
      "inputs": [
        {
          "indexed": true,
          "internalType": "address",
          "name": "operator",
          "type": "address"
        },
        {
          "indexed": true,
          "internalType": "address",
          "name": "to",
          "type": "address"
        },
        {
          "indexed": false,
          "internalType": "uint256",
          "name": "amount",
          "type": "uint256"
        },
        {
          "indexed": false,
          "internalType": "bytes",
          "name": "data",
          "type": "bytes"
        },
        {
          "indexed": false,
          "internalType": "bytes",
          "name": "operatorData",
          "type": "bytes"
        }
      ],
      "name": "Minted",
      "type": "event"
    },
    {
      "anonymous": false,
      "inputs": [
        {
          "indexed": true,
          "internalType": "address",
          "name": "operator",
          "type": "address"
        },
        {
          "indexed": true,
          "internalType": "address",
          "name": "tokenHolder",
          "type": "address"
        }
      ],
      "name": "RevokedOperator",
      "type": "event"
    },
    {
      "anonymous": false,
      "inputs": [
        {
          "indexed": true,
          "internalType": "address",
          "name": "operator",
          "type": "address"
        },
        {
          "indexed": true,
          "internalType": "address",
          "name": "from",
          "type": "address"
        },
        {
          "indexed": true,
          "internalType": "address",
          "name": "to",
          "type": "address"
        },
        {
          "indexed": false,
          "internalType": "uint256",
          "name": "amount",
          "type": "uint256"
        },
        {
          "indexed": false,
          "internalType": "bytes",
          "name": "data",
          "type": "bytes"
        },
        {
          "indexed": false,
          "internalType": "bytes",
          "name": "operatorData",
          "type": "bytes"
        }
      ],
      "name": "Sent",
      "type": "event"
    },
    {
      "constant": false,
      "inputs": [
        {
          "internalType": "address",
          "name": "operator",
          "type": "address"
        }
      ],
      "name": "authorizeOperator",
      "outputs": [],
      "payable": false,
      "stateMutability": "nonpayable",
      "type": "function"
    },
    {
      "constant": true,
      "inputs": [
        {
          "internalType": "address",
          "name": "tokenHolder",
          "type": "address"
        }
      ],
      "name": "balanceOf",
      "outputs": [
        {
          "internalType": "uint256",
          "name": "",
          "type": "uint256"
        }
      ],
      "payable": false,
      "stateMutability": "view",
      "type": "function"
    },
    {
      "constant": false,
      "inputs": [
        {
          "internalType": "uint256",
          "name": "amount",
          "type": "uint256"
        },
        {
          "internalType": "bytes",
          "name": "data",
          "type": "bytes"
        }
      ],
      "name": "burn",
      "outputs": [],
      "payable": false,
      "stateMutability": "nonpayable",
      "type": "function"
    },
    {
      "constant": true,
      "inputs": [],
      "name": "defaultOperators",
      "outputs": [
        {
          "internalType": "address[]",
          "name": "",
          "type": "address[]"
        }
      ],
      "payable": false,
      "stateMutability": "view",
      "type": "function"
    },
    {
      "constant": true,
      "inputs": [],
      "name": "granularity",
      "outputs": [
        {
          "internalType": "uint256",
          "name": "",
          "type": "uint256"
        }
      ],
      "payable": false,
      "stateMutability": "view",
      "type": "function"
    },
    {
      "constant": true,
      "inputs": [
        {
          "internalType": "address",
          "name": "operator",
          "type": "address"
        },
        {
          "internalType": "address",
          "name": "tokenHolder",
          "type": "address"
        }
      ],
      "name": "isOperatorFor",
      "outputs": [
        {
          "internalType": "bool",
          "name": "",
          "type": "bool"
        }
      ],
      "payable": false,
      "stateMutability": "view",
      "type": "function"
    },
    {
      "constant": true,
      "inputs": [],
      "name": "name",
      "outputs": [
        {
          "internalType": "string",
          "name": "",
          "type": "string"
        }
      ],
      "payable": false,
      "stateMutability": "view",
      "type": "function"
    },
    {
      "constant": false,
      "inputs": [
        {
          "internalType": "address",
          "name": "from",
          "type": "address"
        },
        {
          "internalType": "uint256",
          "name": "amount",
          "type": "uint256"
        },
        {
          "internalType": "bytes",
          "name": "data",
          "type": "bytes"
        },
        {
          "internalType": "bytes",
          "name": "operatorData",
          "type": "bytes"
        }
      ],
      "name": "operatorBurn",
      "outputs": [],
      "payable": false,
      "stateMutability": "nonpayable",
      "type": "function"
    },
    {
      "constant": false,
      "inputs": [
        {
          "internalType": "address",
          "name": "from",
          "type": "address"
        },
        {
          "internalType": "address",
          "name": "to",
          "type": "address"
        },
        {
          "internalType": "uint256",
          "name": "amount",
          "type": "uint256"
        },
        {
          "internalType": "bytes",
          "name": "data",
          "type": "bytes"
        },
        {
          "internalType": "bytes",
          "name": "operatorData",
          "type": "bytes"
        }
      ],
      "name": "operatorSend",
      "outputs": [],
      "payable": false,
      "stateMutability": "nonpayable",
      "type": "function"
    },
    {
      "constant": false,
      "inputs": [
        {
          "internalType": "address",
          "name": "operator",
          "type": "address"
        }
      ],
      "name": "revokeOperator",
      "outputs": [],
      "payable": false,
      "stateMutability": "nonpayable",
      "type": "function"
    },
    {
      "constant": false,
      "inputs": [
        {
          "internalType": "address",
          "name": "to",
          "type": "address"
        },
        {
          "internalType": "uint256",
          "name": "amount",
          "type": "uint256"
        },
        {
          "internalType": "bytes",
          "name": "data",
          "type": "bytes"
        }
      ],
      "name": "send",
      "outputs": [],
      "payable": false,
      "stateMutability": "nonpayable",
      "type": "function"
    },
    {
      "constant": true,
      "inputs": [],
      "name": "symbol",
      "outputs": [
        {
          "internalType": "string",
          "name": "",
          "type": "string"
        }
      ],
      "payable": false,
      "stateMutability": "view",
      "type": "function"
    },
    {
      "constant": true,
      "inputs": [],
      "name": "totalSupply",
      "outputs": [
        {
          "internalType": "uint256",
          "name": "",
          "type": "uint256"
        }
      ],
      "payable": false,
      "stateMutability": "view",
      "type": "function"
    },
    {
      "constant": false,
      "inputs": [
        {
          "internalType": "address",
          "name": "operator",
          "type": "address"
        },
        {
          "internalType": "address",
          "name": "to",
          "type": "address"
        },
        {
          "internalType": "uint256",
          "name": "amount",
          "type": "uint256"
        },
        {
          "internalType": "bytes",
          "name": "userData",
          "type": "bytes"
        },
        {
          "internalType": "bytes",
          "name": "operatorData",
          "type": "bytes"
        }
      ],
      "name": "mintInternal",
      "outputs": [],
      "payable": false,
      "stateMutability": "nonpayable",
      "type": "function"
    }
  ],
  "bytecode": "0x6080604052600080546001600160a01b031916731820a4b7618bde71dce8cdc73aab6c95905fad241790553480156200003757600080fd5b506040516200200138038062002001833981810160405260a08110156200005d57600080fd5b815160208301516040808501805191519395929483019291846401000000008211156200008957600080fd5b9083019060208201858111156200009f57600080fd5b8251640100000000811182820188101715620000ba57600080fd5b82525081516020918201929091019080838360005b83811015620000e9578181015183820152602001620000cf565b50505050905090810190601f168015620001175780820380516001836020036101000a031916815260200191505b50604052602001805160405193929190846401000000008211156200013b57600080fd5b9083019060208201858111156200015157600080fd5b82516401000000008111828201881017156200016c57600080fd5b82525081516020918201929091019080838360005b838110156200019b57818101518382015260200162000181565b50505050905090810190601f168015620001c95780820380516001836020036101000a031916815260200191505b5060405260200180516040519392919084640100000000821115620001ed57600080fd5b9083019060208201858111156200020357600080fd5b82518660208202830111640100000000821117156200022157600080fd5b82525081516020918201928201910280838360005b838110156200025057818101518382015260200162000236565b5050505090500160405250505082828282600190805190602001906200027892919062000880565b5081516200028e90600290602085019062000880565b508051620002a490600590602084019062000905565b5060005b600554811015620003045760016006600060058481548110620002c757fe5b6000918252602080832091909101546001600160a01b031683528201929092526040019020805460ff1916911515919091179055600101620002a8565b5060008054604080516a22a9219b9b9baa37b5b2b760a91b8152815190819003600b0181206329965a1d60e01b825230600483018190526024830191909152604482015290516001600160a01b03909216926329965a1d9260648084019382900301818387803b1580156200037857600080fd5b505af11580156200038d573d6000803e3d6000fd5b50505050505050620003c73386866040518060200160405280600081525060405180602001604052806000815250620003d260201b60201c565b5050505050620009b2565b6001600160a01b038416620003e657600080fd5b62000402836004546200059660201b620010bb1790919060201c565b6004556001600160a01b03841660009081526003602090815260409091205462000437918590620010bb62000596821b17901c565b6001600160a01b0385166000908152600360205260408120919091556200046d908690868686866001600160e01b03620005f816565b836001600160a01b0316856001600160a01b03167f2fe5be0146f74c5bce36c0b80911af6c7d86ff27e89d5cfa61fc681327954e5d858585604051808481526020018060200180602001838103835285818151815260200191508051906020019080838360005b83811015620004ee578181015183820152602001620004d4565b50505050905090810190601f1680156200051c5780820380516001836020036101000a031916815260200191505b50838103825284518152845160209182019186019080838360005b838110156200055157818101518382015260200162000537565b50505050905090810190601f1680156200057f5780820380516001836020036101000a031916815260200191505b509550505050505060405180910390a35050505050565b600082820183811015620005f1576040805162461bcd60e51b815260206004820152601b60248201527f536166654d6174683a206164646974696f6e206f766572666c6f770000000000604482015290519081900360640190fd5b9392505050565b60008054604080517f455243373737546f6b656e73526563697069656e7400000000000000000000008152815190819003601501812063555ddc6560e11b82526001600160a01b03898116600484015260248301919091529151919092169163aabbb8ca916044808301926020929190829003018186803b1580156200067d57600080fd5b505afa15801562000692573d6000803e3d6000fd5b505050506040513d6020811015620006a957600080fd5b505190506001600160a01b038116156200084757806001600160a01b03166223de298888888888886040518763ffffffff1660e01b815260040180876001600160a01b03166001600160a01b03168152602001866001600160a01b03166001600160a01b03168152602001856001600160a01b03166001600160a01b031681526020018481526020018060200180602001838103835285818151815260200191508051906020019080838360005b838110156200077157818101518382015260200162000757565b50505050905090810190601f1680156200079f5780820380516001836020036101000a031916815260200191505b50838103825284518152845160209182019186019080838360005b83811015620007d4578181015183820152602001620007ba565b50505050905090810190601f168015620008025780820380516001836020036101000a031916815260200191505b5098505050505050505050600060405180830381600087803b1580156200082857600080fd5b505af11580156200083d573d6000803e3d6000fd5b5050505062000871565b62000866856001600160a01b03166200087a60201b620016041760201c565b156200087157600080fd5b50505050505050565b3b151590565b828054600181600116156101000203166002900490600052602060002090601f016020900481019282601f10620008c357805160ff1916838001178555620008f3565b82800160010185558215620008f3579182015b82811115620008f3578251825591602001919060010190620008d6565b50620009019291506200096b565b5090565b8280548282559060005260206000209081019282156200095d579160200282015b828111156200095d57825182546001600160a01b0319166001600160a01b0390911617825560209092019160019091019062000926565b50620009019291506200098b565b6200098891905b8082111562000901576000815560010162000972565b90565b6200098891905b80821115620009015780546001600160a01b031916815560010162000992565b61163f80620009c26000396000f3fe608060405234801561001057600080fd5b50600436106100ea5760003560e01c8063959b8c3f1161008c578063d95b637111610066578063d95b6371146104e6578063fad8b32a14610528578063fc673c4f1461054e578063fe9d930314610621576100ea565b8063959b8c3f1461043557806395d89b411461045b5780639bd9bbc614610463576100ea565b8063502f2b8b116100c8578063502f2b8b146101de578063556f0dc71461032957806362ad1b831461033157806370a082311461040f576100ea565b806306e48538146100ef57806306fdde031461014757806318160ddd146101c4575b600080fd5b6100f7610696565b60408051602080825283518183015283519192839290830191858101910280838360005b8381101561013357818101518382015260200161011b565b505050509050019250505060405180910390f35b61014f6106f8565b6040805160208082528351818301528351919283929083019185019080838360005b83811015610189578181015183820152602001610171565b50505050905090810190601f1680156101b65780820380516001836020036101000a031916815260200191505b509250505060405180910390f35b6101cc610784565b60408051918252519081900360200190f35b610327600480360360a08110156101f457600080fd5b6001600160a01b03823581169260208101359091169160408201359190810190608081016060820135600160201b81111561022e57600080fd5b82018360208201111561024057600080fd5b803590602001918460018302840111600160201b8311171561026157600080fd5b91908080601f0160208091040260200160405190810160405280939291908181526020018383808284376000920191909152509295949360208101935035915050600160201b8111156102b357600080fd5b8201836020820111156102c557600080fd5b803590602001918460018302840111600160201b831117156102e657600080fd5b91908080601f01602080910402602001604051908101604052809392919081815260200183838082843760009201919091525092955061078a945050505050565b005b6101cc61079e565b610327600480360360a081101561034757600080fd5b6001600160a01b03823581169260208101359091169160408201359190810190608081016060820135600160201b81111561038157600080fd5b82018360208201111561039357600080fd5b803590602001918460018302840111600160201b831117156103b457600080fd5b919390929091602081019035600160201b8111156103d157600080fd5b8201836020820111156103e357600080fd5b803590602001918460018302840111600160201b8311171561040457600080fd5b5090925090506107a3565b6101cc6004803603602081101561042557600080fd5b50356001600160a01b0316610836565b6103276004803603602081101561044b57600080fd5b50356001600160a01b0316610851565b61014f610920565b6103276004803603606081101561047957600080fd5b6001600160a01b0382351691602081013591810190606081016040820135600160201b8111156104a857600080fd5b8201836020820111156104ba57600080fd5b803590602001918460018302840111600160201b831117156104db57600080fd5b50909250905061097e565b610514600480360360408110156104fc57600080fd5b506001600160a01b03813581169160200135166109d5565b604080519115158252519081900360200190f35b6103276004803603602081101561053e57600080fd5b50356001600160a01b0316610a77565b6103276004803603608081101561056457600080fd5b6001600160a01b0382351691602081013591810190606081016040820135600160201b81111561059357600080fd5b8201836020820111156105a557600080fd5b803590602001918460018302840111600160201b831117156105c657600080fd5b919390929091602081019035600160201b8111156105e357600080fd5b8201836020820111156105f557600080fd5b803590602001918460018302840111600160201b8311171561061657600080fd5b509092509050610b46565b6103276004803603604081101561063757600080fd5b81359190810190604081016020820135600160201b81111561065857600080fd5b82018360208201111561066a57600080fd5b803590602001918460018302840111600160201b8311171561068b57600080fd5b509092509050610bd7565b606060058054806020026020016040519081016040528092919081815260200182805480156106ee57602002820191906000526020600020905b81546001600160a01b031681526001909101906020018083116106d0575b5050505050905090565b60018054604080516020601f600260001961010087891615020190951694909404938401819004810282018101909252828152606093909290918301828280156106ee5780601f10610758576101008083540402835291602001916106ee565b820191906000526020600020905b81548152906001019060200180831161076657509395945050505050565b60045490565b6107978585858585610c2c565b5050505050565b600190565b6107ad33886109d5565b6107b657600080fd5b61082d3388888888888080601f01602080910402602001604051908101604052809392919081815260200183838082843760009201919091525050604080516020601f8c018190048102820181019092528a815292508a9150899081908401838280828437600092019190915250610dcc92505050565b50505050505050565b6001600160a01b031660009081526003602052604090205490565b336001600160a01b038216141561086757600080fd5b6001600160a01b03811660009081526006602052604090205460ff16156108b8573360009081526008602090815260408083206001600160a01b03851684529091529020805460ff191690556108e7565b3360009081526007602090815260408083206001600160a01b03851684529091529020805460ff191660011790555b60405133906001600160a01b038316907ff4caeb2d6ca8932a215a353d0703c326ec2d81fc68170f320eb2ab49e9df61f990600090a350565b60028054604080516020601f60001961010060018716150201909416859004938401819004810282018101909252828152606093909290918301828280156106ee5780601f10610758576101008083540402835291602001916106ee565b6109cf3333868686868080601f016020809104026020016040519081016040528093929190818152602001838380828437600092018290525060408051602081019091529081529250610dcc915050565b50505050565b6000816001600160a01b0316836001600160a01b03161480610a4057506001600160a01b03831660009081526006602052604090205460ff168015610a4057506001600160a01b0380831660009081526008602090815260408083209387168352929052205460ff16155b80610a7057506001600160a01b0380831660009081526007602090815260408083209387168352929052205460ff165b9392505050565b6001600160a01b038116331415610a8d57600080fd5b6001600160a01b03811660009081526006602052604090205460ff1615610ae1573360009081526008602090815260408083206001600160a01b03851684529091529020805460ff19166001179055610b0d565b3360009081526007602090815260408083206001600160a01b03851684529091529020805460ff191690555b60405133906001600160a01b038316907f50546e66e5f44d728365dc3908c63bc5cfeeab470722c1677e3073a6ac294aa190600090a350565b610b5033876109d5565b610b5957600080fd5b610bcf33878787878080601f01602080910402602001604051908101604052809392919081815260200183838082843760009201919091525050604080516020601f8b018190048102820181019092528981529250899150889081908401838280828437600092019190915250610fb392505050565b505050505050565b610c2733338585858080601f016020809104026020016040519081016040528093929190818152602001838380828437600092018290525060408051602081019091529081529250610fb3915050565b505050565b6001600160a01b038416610c3f57600080fd5b600454610c52908463ffffffff6110bb16565b6004556001600160a01b038416600090815260036020526040902054610c7e908463ffffffff6110bb16565b6001600160a01b038516600090815260036020526040812091909155610ca990869086868686611115565b836001600160a01b0316856001600160a01b03167f2fe5be0146f74c5bce36c0b80911af6c7d86ff27e89d5cfa61fc681327954e5d858585604051808481526020018060200180602001838103835285818151815260200191508051906020019080838360005b83811015610d28578181015183820152602001610d10565b50505050905090810190601f168015610d555780820380516001836020036101000a031916815260200191505b50838103825284518152845160209182019186019080838360005b83811015610d88578181015183820152602001610d70565b50505050905090810190601f168015610db55780820380516001836020036101000a031916815260200191505b509550505050505060405180910390a35050505050565b6001600160a01b038516610ddf57600080fd5b6001600160a01b038416610df257600080fd5b610e0086868686868661136b565b6001600160a01b038516600090815260036020526040902054610e29908463ffffffff6115a716565b6001600160a01b038087166000908152600360205260408082209390935590861681522054610e5e908463ffffffff6110bb16565b6001600160a01b038516600090815260036020526040902055610e85868686868686611115565b836001600160a01b0316856001600160a01b0316876001600160a01b03167f06b541ddaa720db2b10a4d0cdac39b8d360425fc073085fac19bc82614677987868686604051808481526020018060200180602001838103835285818151815260200191508051906020019080838360005b83811015610f0e578181015183820152602001610ef6565b50505050905090810190601f168015610f3b5780820380516001836020036101000a031916815260200191505b50838103825284518152845160209182019186019080838360005b83811015610f6e578181015183820152602001610f56565b50505050905090810190601f168015610f9b5780820380516001836020036101000a031916815260200191505b509550505050505060405180910390a4505050505050565b6001600160a01b038416610fc657600080fd5b610fd58585600086868661136b565b600454610fe8908463ffffffff6115a716565b6004556001600160a01b038416600090815260036020526040902054611014908463ffffffff6115a716565b60036000866001600160a01b03166001600160a01b0316815260200190815260200160002081905550836001600160a01b0316856001600160a01b03167fa78a9be3a7b862d26933ad85fb11d80ef66b8f972d7cbba06621d583943a40988585856040518084815260200180602001806020018381038352858181518152602001915080519060200190808383600083811015610d28578181015183820152602001610d10565b600082820183811015610a70576040805162461bcd60e51b815260206004820152601b60248201527f536166654d6174683a206164646974696f6e206f766572666c6f770000000000604482015290519081900360640190fd5b600080546040805174115490cdcdcdd51bdad95b9cd49958da5c1a595b9d605a1b8152815190819003601501812063555ddc6560e11b82526001600160a01b03898116600484015260248301919091529151919092169163aabbb8ca916044808301926020929190829003018186803b15801561119157600080fd5b505afa1580156111a5573d6000803e3d6000fd5b505050506040513d60208110156111bb57600080fd5b505190506001600160a01b0381161561134f57806001600160a01b03166223de298888888888886040518763ffffffff1660e01b815260040180876001600160a01b03166001600160a01b03168152602001866001600160a01b03166001600160a01b03168152602001856001600160a01b03166001600160a01b031681526020018481526020018060200180602001838103835285818151815260200191508051906020019080838360005b83811015611280578181015183820152602001611268565b50505050905090810190601f1680156112ad5780820380516001836020036101000a031916815260200191505b50838103825284518152845160209182019186019080838360005b838110156112e05781810151838201526020016112c8565b50505050905090810190601f16801561130d5780820380516001836020036101000a031916815260200191505b5098505050505050505050600060405180830381600087803b15801561133257600080fd5b505af1158015611346573d6000803e3d6000fd5b5050505061082d565b611361856001600160a01b0316611604565b1561082d57600080fd5b60008054604080517122a9219b9b9baa37b5b2b739a9b2b73232b960711b8152815190819003601201812063555ddc6560e11b82526001600160a01b038a8116600484015260248301919091529151919092169163aabbb8ca916044808301926020929190829003018186803b1580156113e457600080fd5b505afa1580156113f8573d6000803e3d6000fd5b505050506040513d602081101561140e57600080fd5b505190506001600160a01b0381161561082d57806001600160a01b03166375ab97828888888888886040518763ffffffff1660e01b815260040180876001600160a01b03166001600160a01b03168152602001866001600160a01b03166001600160a01b03168152602001856001600160a01b03166001600160a01b031681526020018481526020018060200180602001838103835285818151815260200191508051906020019080838360005b838110156114d45781810151838201526020016114bc565b50505050905090810190601f1680156115015780820380516001836020036101000a031916815260200191505b50838103825284518152845160209182019186019080838360005b8381101561153457818101518382015260200161151c565b50505050905090810190601f1680156115615780820380516001836020036101000a031916815260200191505b5098505050505050505050600060405180830381600087803b15801561158657600080fd5b505af115801561159a573d6000803e3d6000fd5b5050505050505050505050565b6000828211156115fe576040805162461bcd60e51b815260206004820152601e60248201527f536166654d6174683a207375627472616374696f6e206f766572666c6f770000604482015290519081900360640190fd5b50900390565b3b15159056fea265627a7a723158207aefcd36b8570dc8436620e53b39949ca184a4f784b9b31dfee7cb42cfe808d964736f6c63430005100032",
  "source": "pragma solidity ^0.5.0;\n\nimport \"../drafts/ERC777/ERC777.sol\";\n\ncontract ERC777Mock is ERC777 {\n    constructor(\n        address initialHolder,\n        uint256 initialBalance,\n        string memory name,\n        string memory symbol,\n        address[] memory defaultOperators\n    ) public ERC777(name, symbol, defaultOperators) {\n        _mint(msg.sender, initialHolder, initialBalance, \"\", \"\");\n    }\n\n    function mintInternal (\n        address operator,\n        address to,\n        uint256 amount,\n        bytes memory userData,\n        bytes memory operatorData\n    ) public {\n        _mint(operator, to, amount, userData, operatorData);\n    }\n}\n",
  "sourcePath": "/home/grifma/Code/vi-admin-ui/contracts/lib/openzeppelin-solidity/contracts/mocks/ERC777Mock.sol",
  "compiler": {
    "name": "solc",
    "version": "0.5.16+commit.9c3226ce.Emscripten.clang"
  },
  "schemaVersion": "3.0.23",
  "updatedAt": "2020-05-14T20:26:11.293Z",
  "devdoc": {
    "methods": {
      "authorizeOperator(address)": {
        "details": "Authorize an operator for the sender",
        "params": {
          "operator": "address to be authorized as operator"
        }
      },
      "balanceOf(address)": {
        "details": "Gets the balance of the specified address.",
        "params": {
          "tokenHolder": "The address to query the balance of."
        },
        "return": "uint256 representing the amount owned by the specified address."
      },
      "burn(uint256,bytes)": {
        "details": "Burn the amount of tokens from the address msg.sender",
        "params": {
          "amount": "uint256 amount of tokens to transfer",
          "data": "bytes extra information provided by the token holder"
        }
      },
      "defaultOperators()": {
        "details": "Get the list of default operators as defined by the token contract.",
        "return": "address[] default operators"
      },
      "granularity()": {
        "details": "Gets the token's granularity, i.e. the smallest number of tokens (in the basic unit) which may be minted, sent or burned at any time",
        "return": "uint256 granularity"
      },
      "isOperatorFor(address,address)": {
        "details": "Indicate whether an address is an operator of the tokenHolder address",
        "params": {
          "operator": "address which may be an operator of tokenHolder",
          "tokenHolder": "address of a token holder which may have the operator address as an operator."
        }
      },
      "name()": {
        "return": "the name of the token."
      },
      "operatorBurn(address,uint256,bytes,bytes)": {
        "details": "Burn the amount of tokens on behalf of the address from",
        "params": {
          "amount": "uint256 amount of tokens to transfer",
          "data": "bytes extra information provided by the token holder",
          "from": "address token holder address.",
          "operatorData": "bytes extra information provided by the operator (if any)"
        }
      },
      "operatorSend(address,address,uint256,bytes,bytes)": {
        "details": "Send the amount of tokens on behalf of the address from to the address to",
        "params": {
          "amount": "uint256 amount of tokens to transfer",
          "data": "bytes information attached to the send, and intended for the recipient (to)",
          "from": "address token holder address.",
          "operatorData": "bytes extra information provided by the operator (if any)",
          "to": "address recipient address"
        }
      },
      "revokeOperator(address)": {
        "details": "Revoke operator rights from one of the default operators",
        "params": {
          "operator": "address to revoke operator rights from"
        }
      },
      "send(address,uint256,bytes)": {
        "details": "Send the amount of tokens from the address msg.sender to the address to",
        "params": {
          "amount": "uint256 amount of tokens to transfer",
          "data": "bytes information attached to the send, and intended for the recipient (to)",
          "to": "address recipient address"
        }
      },
      "symbol()": {
        "return": "the symbol of the token."
      },
      "totalSupply()": {
        "details": "Total number of tokens in existence"
      }
    }
  },
  "userdoc": {
    "methods": {}
  }
}