{
  "contractName": "FusedController",
  "abi": [
    {
      "inputs": [
        {
          "internalType": "address",
          "name": "_controller",
          "type": "address"
        }
      ],
      "payable": false,
      "stateMutability": "nonpayable",
      "type": "constructor"
    },
    {
      "anonymous": false,
      "inputs": [],
      "name": "BlowAllFuses",
      "type": "event"
    },
    {
      "anonymous": false,
      "inputs": [
        {
          "indexed": false,
          "internalType": "uint8",
          "name": "_fuseID",
          "type": "uint8"
        }
      ],
      "name": "BlowFuse",
      "type": "event"
    },
    {
      "anonymous": false,
      "inputs": [
        {
          "indexed": false,
          "internalType": "address",
          "name": "_newController",
          "type": "address"
        }
      ],
      "name": "ChangeController",
      "type": "event"
    },
    {
      "constant": true,
      "inputs": [],
      "name": "controller",
      "outputs": [
        {
          "internalType": "address",
          "name": "",
          "type": "address"
        }
      ],
      "payable": false,
      "stateMutability": "view",
      "type": "function"
    },
    {
      "constant": false,
      "inputs": [
        {
          "internalType": "bool",
          "name": "_confirm",
          "type": "bool"
        }
      ],
      "name": "blowAllFuses",
      "outputs": [],
      "payable": false,
      "stateMutability": "nonpayable",
      "type": "function"
    },
    {
      "constant": false,
      "inputs": [
        {
          "internalType": "uint8",
          "name": "_fuseID",
          "type": "uint8"
        },
        {
          "internalType": "bool",
          "name": "_confirm",
          "type": "bool"
        }
      ],
      "name": "blowFuse",
      "outputs": [],
      "payable": false,
      "stateMutability": "nonpayable",
      "type": "function"
    },
    {
      "constant": false,
      "inputs": [
        {
          "internalType": "address",
          "name": "_newController",
          "type": "address"
        }
      ],
      "name": "changeController",
      "outputs": [],
      "payable": false,
      "stateMutability": "nonpayable",
      "type": "function"
    }
  ],
  "bytecode": "0x608060405234801561001057600080fd5b506040516104f43803806104f48339818101604052602081101561003357600080fd5b50516001600160a01b03811661005a57600080546001600160a01b03191633179055610076565b600080546001600160a01b0319166001600160a01b0383161790555b5061046e806100866000396000f3fe608060405234801561001057600080fd5b506004361061004c5760003560e01c80633cebb82314610051578063e3321e1f14610079578063e49ac4cd146100a1578063f77c4791146100c0575b600080fd5b6100776004803603602081101561006757600080fd5b50356001600160a01b03166100e4565b005b6100776004803603604081101561008f57600080fd5b5060ff81351690602001351515610197565b610077600480360360208110156100b757600080fd5b503515156102a8565b6100c8610380565b604080516001600160a01b039092168252519081900360200190f35b6000546001600160a01b03163314610143576040805162461bcd60e51b815260206004820181905260248201527f436f6e74726f6c6c6572206163636f756e742f636f6e7472616374206f6e6c79604482015290519081900360640190fd5b600080546001600160a01b0383166001600160a01b0319909116811790915560408051918252517fc0c3fe6333763f87ec50ad1366067ab6f03fd677c62f3c20e50e9446afd32ef69181900360200190a150565b6000546001600160a01b031633146101f6576040805162461bcd60e51b815260206004820181905260248201527f436f6e74726f6c6c6572206163636f756e742f636f6e7472616374206f6e6c79604482015290519081900360640190fd5b6001811515146102375760405162461bcd60e51b815260040180806020018281038252604b815260200180610390604b913960600191505060405180910390fd5b6001808360ff166020811061024857fe5b602091828204019190066101000a81548160ff0219169083151502179055507f0a1c4fbbe900dd991589095fcecc99c37b45915eb6e6574e7398954e874bbebe82604051808260ff1660ff16815260200191505060405180910390a15050565b6000546001600160a01b03163314610307576040805162461bcd60e51b815260206004820181905260248201527f436f6e74726f6c6c6572206163636f756e742f636f6e7472616374206f6e6c79604482015290519081900360640190fd5b806103435760405162461bcd60e51b815260040180806020018281038252605f8152602001806103db605f913960600191505060405180910390fd5b6000805460ff60a01b1916600160a01b1781556040517f3f6efc34971655abc7da08a1bf5e861a7e41e21c617aa42f0a9e1643ed4c199d9190a150565b6000546001600160a01b03168156fe546869732077696c6c207065726d616e656e746c792064697361626c652066756e6374696f6e2c20706c6561736520736574205f636f6e6669726d3d7472756520746f20636f6e6669726d546869732077696c6c207065726d616e656e746c792064697361626c652066756e6374696f6e20616c6c2066757365642066756e6374696f6e732c20706c6561736520736574205f636f6e6669726d3d7472756520746f20636f6e6669726da265627a7a7231582035c0aaa05bf6eab1f5b9779425e42fce85de3eeadd9690c2db00d8950264828564736f6c63430005100032",
  "source": "pragma solidity ^0.5.0;\n\n/**\n    @title A controllable contract that can incrementally transition to an\n        immutable contract\n    @author Marc Griffiths, Value Instrument, the enkel collective\n    @notice Provides special permisions to a controller account or contract,\n        while allowing those special permissions to be discarded at any time\n    @dev This contract was developed for solc 0.5.8 */\n\ncontract FusedController {\n\n    address public controller;\n    // address with priviledges to adjust settings, add accounts etc\n\n    bool allFusesBlown;\n    // set this to true to blow all fuses\n\n    bool[32] fuseBlown;\n    /* allows a seperate fuse for distinct functions, so that those functions\n    can be disabled */\n\n    event BlowFuse(uint8 _fuseID);\n    event BlowAllFuses();\n    event ChangeController(address _newController);\n\n    constructor(address _controller) public {\n        if(_controller == address(0)){\n            controller = msg.sender;\n        } else {\n            controller = _controller;\n        }\n    }\n\n    /// Modifiers\n\n    modifier fused(uint8 _fuseID) {\n        require(\n            allFusesBlown == false,\n            \"Function fuse has been triggered\"\n        );\n        require(\n            fuseBlown[_fuseID] == false,\n            \"Function fuse has been triggered\"\n        );\n        _;\n    }\n    modifier onlyController() {\n      require(msg.sender == controller, \"Controller account/contract only\");\n      _;\n    }\n\n    /// Functions\n\n    function blowAllFuses(bool _confirm)\n        external\n        onlyController\n    {\n        require(\n            _confirm,\n            \"This will permanently disable function all fused functions, please set _confirm=true to confirm\"\n        );\n        allFusesBlown = true;\n        emit BlowAllFuses();\n    }\n\n    function blowFuse(uint8 _fuseID, bool _confirm)\n        external\n        onlyController\n    {\n        require(\n            _confirm == true,\n            \"This will permanently disable function, please set _confirm=true to confirm\"\n        );\n        fuseBlown[_fuseID] = true;\n        emit BlowFuse(_fuseID);\n    }\n\n    function changeController(address _newController)\n        external\n        onlyController\n    {\n        controller = _newController;\n        emit ChangeController(_newController);\n    }\n}\n",
  "sourcePath": "/home/grifma/Code/vi-admin-ui/contracts/FusedController.sol",
  "compiler": {
    "name": "solc",
    "version": "0.5.16+commit.9c3226ce.Emscripten.clang"
  },
  "schemaVersion": "3.0.23",
  "updatedAt": "2020-05-14T11:10:25.842Z",
  "devdoc": {
    "author": "Marc Griffiths, Value Instrument, the enkel collective",
    "details": "This contract was developed for solc 0.5.8 ",
    "methods": {},
    "title": "A controllable contract that can incrementally transition to an immutable contract"
  },
  "userdoc": {
    "methods": {
      "blowAllFuses(bool)": {
        "notice": "Functions"
      }
    },
    "notice": "Provides special permisions to a controller account or contract, while allowing those special permissions to be discarded at any time"
  }
}