{
  "contractName": "IndividuallyCappedCrowdsaleImpl",
  "abi": [
    {
      "inputs": [
        {
          "internalType": "uint256",
          "name": "rate",
          "type": "uint256"
        },
        {
          "internalType": "address payable",
          "name": "wallet",
          "type": "address"
        },
        {
          "internalType": "contract IERC20",
          "name": "token",
          "type": "address"
        }
      ],
      "payable": false,
      "stateMutability": "nonpayable",
      "type": "constructor"
    },
    {
      "anonymous": false,
      "inputs": [
        {
          "indexed": true,
          "internalType": "address",
          "name": "account",
          "type": "address"
        }
      ],
      "name": "CapperAdded",
      "type": "event"
    },
    {
      "anonymous": false,
      "inputs": [
        {
          "indexed": true,
          "internalType": "address",
          "name": "account",
          "type": "address"
        }
      ],
      "name": "CapperRemoved",
      "type": "event"
    },
    {
      "anonymous": false,
      "inputs": [
        {
          "indexed": true,
          "internalType": "address",
          "name": "purchaser",
          "type": "address"
        },
        {
          "indexed": true,
          "internalType": "address",
          "name": "beneficiary",
          "type": "address"
        },
        {
          "indexed": false,
          "internalType": "uint256",
          "name": "value",
          "type": "uint256"
        },
        {
          "indexed": false,
          "internalType": "uint256",
          "name": "amount",
          "type": "uint256"
        }
      ],
      "name": "TokensPurchased",
      "type": "event"
    },
    {
      "payable": true,
      "stateMutability": "payable",
      "type": "fallback"
    },
    {
      "constant": false,
      "inputs": [
        {
          "internalType": "address",
          "name": "account",
          "type": "address"
        }
      ],
      "name": "addCapper",
      "outputs": [],
      "payable": false,
      "stateMutability": "nonpayable",
      "type": "function"
    },
    {
      "constant": false,
      "inputs": [
        {
          "internalType": "address",
          "name": "beneficiary",
          "type": "address"
        }
      ],
      "name": "buyTokens",
      "outputs": [],
      "payable": true,
      "stateMutability": "payable",
      "type": "function"
    },
    {
      "constant": true,
      "inputs": [
        {
          "internalType": "address",
          "name": "beneficiary",
          "type": "address"
        }
      ],
      "name": "getCap",
      "outputs": [
        {
          "internalType": "uint256",
          "name": "",
          "type": "uint256"
        }
      ],
      "payable": false,
      "stateMutability": "view",
      "type": "function"
    },
    {
      "constant": true,
      "inputs": [
        {
          "internalType": "address",
          "name": "beneficiary",
          "type": "address"
        }
      ],
      "name": "getContribution",
      "outputs": [
        {
          "internalType": "uint256",
          "name": "",
          "type": "uint256"
        }
      ],
      "payable": false,
      "stateMutability": "view",
      "type": "function"
    },
    {
      "constant": true,
      "inputs": [
        {
          "internalType": "address",
          "name": "account",
          "type": "address"
        }
      ],
      "name": "isCapper",
      "outputs": [
        {
          "internalType": "bool",
          "name": "",
          "type": "bool"
        }
      ],
      "payable": false,
      "stateMutability": "view",
      "type": "function"
    },
    {
      "constant": true,
      "inputs": [],
      "name": "onlyCapperMock",
      "outputs": [],
      "payable": false,
      "stateMutability": "view",
      "type": "function"
    },
    {
      "constant": true,
      "inputs": [],
      "name": "rate",
      "outputs": [
        {
          "internalType": "uint256",
          "name": "",
          "type": "uint256"
        }
      ],
      "payable": false,
      "stateMutability": "view",
      "type": "function"
    },
    {
      "constant": false,
      "inputs": [
        {
          "internalType": "address",
          "name": "account",
          "type": "address"
        }
      ],
      "name": "removeCapper",
      "outputs": [],
      "payable": false,
      "stateMutability": "nonpayable",
      "type": "function"
    },
    {
      "constant": false,
      "inputs": [],
      "name": "renounceCapper",
      "outputs": [],
      "payable": false,
      "stateMutability": "nonpayable",
      "type": "function"
    },
    {
      "constant": false,
      "inputs": [
        {
          "internalType": "address",
          "name": "beneficiary",
          "type": "address"
        },
        {
          "internalType": "uint256",
          "name": "cap",
          "type": "uint256"
        }
      ],
      "name": "setCap",
      "outputs": [],
      "payable": false,
      "stateMutability": "nonpayable",
      "type": "function"
    },
    {
      "constant": true,
      "inputs": [],
      "name": "token",
      "outputs": [
        {
          "internalType": "contract IERC20",
          "name": "",
          "type": "address"
        }
      ],
      "payable": false,
      "stateMutability": "view",
      "type": "function"
    },
    {
      "constant": true,
      "inputs": [],
      "name": "wallet",
      "outputs": [
        {
          "internalType": "address payable",
          "name": "",
          "type": "address"
        }
      ],
      "payable": false,
      "stateMutability": "view",
      "type": "function"
    },
    {
      "constant": true,
      "inputs": [],
      "name": "weiRaised",
      "outputs": [
        {
          "internalType": "uint256",
          "name": "",
          "type": "uint256"
        }
      ],
      "payable": false,
      "stateMutability": "view",
      "type": "function"
    }
  ],
  "bytecode": "0x608060405234801561001057600080fd5b506040516110833803806110838339818101604052606081101561003357600080fd5b508051602082015160409092015160016000559091908282828261009e576040805162461bcd60e51b815260206004820152601460248201527f43726f776473616c653a20726174652069732030000000000000000000000000604482015290519081900360640190fd5b6001600160a01b0382166100e35760405162461bcd60e51b815260040180806020018281038252602581526020018061105e6025913960400191505060405180910390fd5b6001600160a01b0381166101285760405162461bcd60e51b81526004018080602001828103825260248152602001806110186024913960400191505060405180910390fd5b600392909255600280546001600160a01b039283166001600160a01b031991821617909155600180549290931691161790556101633361016b565b5050506102ab565b6101838160056101ba60201b6109071790919060201c565b6040516001600160a01b038216907fa7555c95b69d4f5cc847881feb4ab2883a1921319e34fa2043747b793d65b36e90600090a250565b6101cd82826001600160e01b0361024416565b1561021f576040805162461bcd60e51b815260206004820152601f60248201527f526f6c65733a206163636f756e7420616c72656164792068617320726f6c6500604482015290519081900360640190fd5b6001600160a01b0316600090815260209190915260409020805460ff19166001179055565b60006001600160a01b03821661028b5760405162461bcd60e51b815260040180806020018281038252602281526020018061103c6022913960400191505060405180910390fd5b506001600160a01b03166000908152602091909152604090205460ff1690565b610d5e806102ba6000396000f3fe6080604052600436106100c25760003560e01c80635d5576f81161007f578063b3aefb7511610059578063b3aefb7514610268578063d1e07bcb1461029b578063ec8ac4d8146102b0578063fc0c546a146102d6576100c2565b80635d5576f8146101e757806380ad2cf3146101fc5780638dfbcf3614610235576100c2565b806321eff7fc146100cd5780632c4e722e1461011257806339564561146101275780633f4a64841461016e5780634042b66f146101a1578063521eb273146101b6575b6100cb336102eb565b005b3480156100d957600080fd5b50610100600480360360208110156100f057600080fd5b50356001600160a01b03166103ef565b60408051918252519081900360200190f35b34801561011e57600080fd5b5061010061040a565b34801561013357600080fd5b5061015a6004803603602081101561014a57600080fd5b50356001600160a01b0316610410565b604080519115158252519081900360200190f35b34801561017a57600080fd5b506100cb6004803603602081101561019157600080fd5b50356001600160a01b0316610429565b3480156101ad57600080fd5b50610100610435565b3480156101c257600080fd5b506101cb61043b565b604080516001600160a01b039092168252519081900360200190f35b3480156101f357600080fd5b506100cb61044a565b34801561020857600080fd5b506100cb6004803603604081101561021f57600080fd5b506001600160a01b038135169060200135610455565b34801561024157600080fd5b506100cb6004803603602081101561025857600080fd5b50356001600160a01b03166104b5565b34801561027457600080fd5b506101006004803603602081101561028b57600080fd5b50356001600160a01b0316610502565b3480156102a757600080fd5b506100cb61051d565b6100cb600480360360208110156102c657600080fd5b50356001600160a01b03166102eb565b3480156102e257600080fd5b506101cb610561565b6000805460010190819055346103018382610570565b600061030c826105ec565b600454909150610322908363ffffffff61060316565b60045561032f8482610664565b604080518381526020810183905281516001600160a01b0387169233927f6faf93231a456e552dbc9961f58d9713ee4f2e69d15f1975b050ef0911053a7b929081900390910190a3610381848361066e565b6103896106c1565b61039384836103eb565b505060005481146103eb576040805162461bcd60e51b815260206004820152601f60248201527f5265656e7472616e637947756172643a207265656e7472616e742063616c6c00604482015290519081900360640190fd5b5050565b6001600160a01b031660009081526006602052604090205490565b60035490565b600061042360058363ffffffff6106fa16565b92915050565b61043281610761565b50565b60045490565b6002546001600160a01b031690565b61045333610761565b565b61045e33610410565b6104995760405162461bcd60e51b8152600401808060200182810382526030815260200180610cfa6030913960400191505060405180910390fd5b6001600160a01b03909116600090815260076020526040902055565b6104be33610410565b6104f95760405162461bcd60e51b8152600401808060200182810382526030815260200180610cfa6030913960400191505060405180910390fd5b6104328161076a565b6001600160a01b031660009081526007602052604090205490565b61052633610410565b6104535760405162461bcd60e51b8152600401808060200182810382526030815260200180610cfa6030913960400191505060405180910390fd5b6001546001600160a01b031690565b61057a82826107b2565b6001600160a01b0382166000908152600760209081526040808320546006909252909120546105af908363ffffffff61060316565b11156103eb5760405162461bcd60e51b8152600401808060200182810382526037815260200180610c996037913960400191505060405180910390fd5b60006104236003548361084990919063ffffffff16565b60008282018381101561065d576040805162461bcd60e51b815260206004820152601b60248201527f536166654d6174683a206164646974696f6e206f766572666c6f770000000000604482015290519081900360640190fd5b9392505050565b6103eb82826108a2565b61067882826103eb565b6001600160a01b0382166000908152600660205260409020546106a1908263ffffffff61060316565b6001600160a01b0390921660009081526006602052604090209190915550565b6002546040516001600160a01b03909116903480156108fc02916000818181858888f19350505050158015610432573d6000803e3d6000fd5b60006001600160a01b0382166107415760405162461bcd60e51b8152600401808060200182810382526022815260200180610c4d6022913960400191505060405180910390fd5b506001600160a01b03166000908152602091909152604090205460ff1690565b610432816108bf565b61077b60058263ffffffff61090716565b6040516001600160a01b038216907fa7555c95b69d4f5cc847881feb4ab2883a1921319e34fa2043747b793d65b36e90600090a250565b6001600160a01b0382166107f75760405162461bcd60e51b815260040180806020018281038252602a815260200180610c6f602a913960400191505060405180910390fd5b806103eb576040805162461bcd60e51b815260206004820152601960248201527f43726f776473616c653a20776569416d6f756e74206973203000000000000000604482015290519081900360640190fd5b60008261085857506000610423565b8282028284828161086557fe5b041461065d5760405162461bcd60e51b8152600401808060200182810382526021815260200180610c2c6021913960400191505060405180910390fd5b6001546103eb906001600160a01b0316838363ffffffff61098816565b6108d060058263ffffffff6109df16565b6040516001600160a01b038216907f427400d279c506df610224b22ecce89b693fc1865864113f21c8d19c1f0c2a3b90600090a250565b61091182826106fa565b15610963576040805162461bcd60e51b815260206004820152601f60248201527f526f6c65733a206163636f756e7420616c72656164792068617320726f6c6500604482015290519081900360640190fd5b6001600160a01b0316600090815260209190915260409020805460ff19166001179055565b604080516001600160a01b038416602482015260448082018490528251808303909101815260649091019091526020810180516001600160e01b031663a9059cbb60e01b1790526109da908490610a46565b505050565b6109e982826106fa565b610a245760405162461bcd60e51b8152600401808060200182810382526021815260200180610c0b6021913960400191505060405180910390fd5b6001600160a01b0316600090815260209190915260409020805460ff19169055565b610a58826001600160a01b0316610c04565b610aa9576040805162461bcd60e51b815260206004820152601f60248201527f5361666545524332303a2063616c6c20746f206e6f6e2d636f6e747261637400604482015290519081900360640190fd5b60006060836001600160a01b0316836040518082805190602001908083835b60208310610ae75780518252601f199092019160209182019101610ac8565b6001836020036101000a0380198251168184511680821785525050505050509050019150506000604051808303816000865af19150503d8060008114610b49576040519150601f19603f3d011682016040523d82523d6000602084013e610b4e565b606091505b509150915081610ba5576040805162461bcd60e51b815260206004820181905260248201527f5361666545524332303a206c6f772d6c6576656c2063616c6c206661696c6564604482015290519081900360640190fd5b805115610bfe57808060200190516020811015610bc157600080fd5b5051610bfe5760405162461bcd60e51b815260040180806020018281038252602a815260200180610cd0602a913960400191505060405180910390fd5b50505050565b3b15159056fe526f6c65733a206163636f756e7420646f6573206e6f74206861766520726f6c65536166654d6174683a206d756c7469706c69636174696f6e206f766572666c6f77526f6c65733a206163636f756e7420697320746865207a65726f206164647265737343726f776473616c653a2062656e656669636961727920697320746865207a65726f2061646472657373496e646976696475616c6c7943617070656443726f776473616c653a2062656e65666963696172792773206361702065786365656465645361666545524332303a204552433230206f7065726174696f6e20646964206e6f742073756363656564436170706572526f6c653a2063616c6c657220646f6573206e6f742068617665207468652043617070657220726f6c65a265627a7a72315820d3a38f8db500e63c437c4f16ba4a2b4c04362e2242e643b3adfe56a0290422e964736f6c6343000510003243726f776473616c653a20746f6b656e20697320746865207a65726f2061646472657373526f6c65733a206163636f756e7420697320746865207a65726f206164647265737343726f776473616c653a2077616c6c657420697320746865207a65726f2061646472657373",
  "source": "pragma solidity ^0.5.0;\n\nimport \"../token/ERC20/IERC20.sol\";\nimport \"../crowdsale/validation/IndividuallyCappedCrowdsale.sol\";\nimport \"./CapperRoleMock.sol\";\n\ncontract IndividuallyCappedCrowdsaleImpl is IndividuallyCappedCrowdsale, CapperRoleMock {\n    constructor (uint256 rate, address payable wallet, IERC20 token) public Crowdsale(rate, wallet, token) {\n        // solhint-disable-previous-line no-empty-blocks\n    }\n}\n",
  "sourcePath": "/home/grifma/Code/vi-admin-ui/contracts/lib/openzeppelin-solidity/contracts/mocks/IndividuallyCappedCrowdsaleImpl.sol",
  "compiler": {
    "name": "solc",
    "version": "0.5.16+commit.9c3226ce.Emscripten.clang"
  },
  "schemaVersion": "3.0.23",
  "updatedAt": "2020-05-14T20:26:11.301Z",
  "devdoc": {
    "methods": {
      "buyTokens(address)": {
        "details": "low level token purchase ***DO NOT OVERRIDE*** This function has a non-reentrancy guard, so it shouldn't be called by another `nonReentrant` function.",
        "params": {
          "beneficiary": "Recipient of the token purchase"
        }
      },
      "getCap(address)": {
        "details": "Returns the cap of a specific beneficiary.",
        "params": {
          "beneficiary": "Address whose cap is to be checked"
        },
        "return": "Current cap for individual beneficiary"
      },
      "getContribution(address)": {
        "details": "Returns the amount contributed so far by a specific beneficiary.",
        "params": {
          "beneficiary": "Address of contributor"
        },
        "return": "Beneficiary contribution so far"
      },
      "rate()": {
        "return": "the number of token units a buyer gets per wei."
      },
      "setCap(address,uint256)": {
        "details": "Sets a specific beneficiary's maximum contribution.",
        "params": {
          "beneficiary": "Address to be capped",
          "cap": "Wei limit for individual contribution"
        }
      },
      "token()": {
        "return": "the token being sold."
      },
      "wallet()": {
        "return": "the address where funds are collected."
      },
      "weiRaised()": {
        "return": "the amount of wei raised."
      }
    }
  },
  "userdoc": {
    "methods": {}
  }
}