{
  "contractName": "PausableCrowdsaleImpl",
  "abi": [
    {
      "inputs": [
        {
          "internalType": "uint256",
          "name": "_rate",
          "type": "uint256"
        },
        {
          "internalType": "address payable",
          "name": "_wallet",
          "type": "address"
        },
        {
          "internalType": "contract ERC20",
          "name": "_token",
          "type": "address"
        }
      ],
      "payable": false,
      "stateMutability": "nonpayable",
      "type": "constructor"
    },
    {
      "anonymous": false,
      "inputs": [
        {
          "indexed": false,
          "internalType": "address",
          "name": "account",
          "type": "address"
        }
      ],
      "name": "Paused",
      "type": "event"
    },
    {
      "anonymous": false,
      "inputs": [
        {
          "indexed": true,
          "internalType": "address",
          "name": "account",
          "type": "address"
        }
      ],
      "name": "PauserAdded",
      "type": "event"
    },
    {
      "anonymous": false,
      "inputs": [
        {
          "indexed": true,
          "internalType": "address",
          "name": "account",
          "type": "address"
        }
      ],
      "name": "PauserRemoved",
      "type": "event"
    },
    {
      "anonymous": false,
      "inputs": [
        {
          "indexed": true,
          "internalType": "address",
          "name": "purchaser",
          "type": "address"
        },
        {
          "indexed": true,
          "internalType": "address",
          "name": "beneficiary",
          "type": "address"
        },
        {
          "indexed": false,
          "internalType": "uint256",
          "name": "value",
          "type": "uint256"
        },
        {
          "indexed": false,
          "internalType": "uint256",
          "name": "amount",
          "type": "uint256"
        }
      ],
      "name": "TokensPurchased",
      "type": "event"
    },
    {
      "anonymous": false,
      "inputs": [
        {
          "indexed": false,
          "internalType": "address",
          "name": "account",
          "type": "address"
        }
      ],
      "name": "Unpaused",
      "type": "event"
    },
    {
      "payable": true,
      "stateMutability": "payable",
      "type": "fallback"
    },
    {
      "constant": false,
      "inputs": [
        {
          "internalType": "address",
          "name": "account",
          "type": "address"
        }
      ],
      "name": "addPauser",
      "outputs": [],
      "payable": false,
      "stateMutability": "nonpayable",
      "type": "function"
    },
    {
      "constant": false,
      "inputs": [
        {
          "internalType": "address",
          "name": "beneficiary",
          "type": "address"
        }
      ],
      "name": "buyTokens",
      "outputs": [],
      "payable": true,
      "stateMutability": "payable",
      "type": "function"
    },
    {
      "constant": true,
      "inputs": [
        {
          "internalType": "address",
          "name": "account",
          "type": "address"
        }
      ],
      "name": "isPauser",
      "outputs": [
        {
          "internalType": "bool",
          "name": "",
          "type": "bool"
        }
      ],
      "payable": false,
      "stateMutability": "view",
      "type": "function"
    },
    {
      "constant": false,
      "inputs": [],
      "name": "pause",
      "outputs": [],
      "payable": false,
      "stateMutability": "nonpayable",
      "type": "function"
    },
    {
      "constant": true,
      "inputs": [],
      "name": "paused",
      "outputs": [
        {
          "internalType": "bool",
          "name": "",
          "type": "bool"
        }
      ],
      "payable": false,
      "stateMutability": "view",
      "type": "function"
    },
    {
      "constant": true,
      "inputs": [],
      "name": "rate",
      "outputs": [
        {
          "internalType": "uint256",
          "name": "",
          "type": "uint256"
        }
      ],
      "payable": false,
      "stateMutability": "view",
      "type": "function"
    },
    {
      "constant": false,
      "inputs": [],
      "name": "renouncePauser",
      "outputs": [],
      "payable": false,
      "stateMutability": "nonpayable",
      "type": "function"
    },
    {
      "constant": true,
      "inputs": [],
      "name": "token",
      "outputs": [
        {
          "internalType": "contract IERC20",
          "name": "",
          "type": "address"
        }
      ],
      "payable": false,
      "stateMutability": "view",
      "type": "function"
    },
    {
      "constant": false,
      "inputs": [],
      "name": "unpause",
      "outputs": [],
      "payable": false,
      "stateMutability": "nonpayable",
      "type": "function"
    },
    {
      "constant": true,
      "inputs": [],
      "name": "wallet",
      "outputs": [
        {
          "internalType": "address payable",
          "name": "",
          "type": "address"
        }
      ],
      "payable": false,
      "stateMutability": "view",
      "type": "function"
    },
    {
      "constant": true,
      "inputs": [],
      "name": "weiRaised",
      "outputs": [
        {
          "internalType": "uint256",
          "name": "",
          "type": "uint256"
        }
      ],
      "payable": false,
      "stateMutability": "view",
      "type": "function"
    }
  ],
  "bytecode": "0x608060405234801561001057600080fd5b50604051610fcd380380610fcd8339818101604052606081101561003357600080fd5b508051602082015160409092015160016000559091908282828261009e576040805162461bcd60e51b815260206004820152601460248201527f43726f776473616c653a20726174652069732030000000000000000000000000604482015290519081900360640190fd5b6001600160a01b0382166100e35760405162461bcd60e51b8152600401808060200182810382526025815260200180610fa86025913960400191505060405180910390fd5b6001600160a01b0381166101285760405162461bcd60e51b8152600401808060200182810382526024815260200180610f626024913960400191505060405180910390fd5b600392909255600280546001600160a01b039283166001600160a01b0319918216179091556001805492909316911617905561016333610175565b50506006805460ff19169055506102b5565b61018d8160056101c460201b6108e51790919060201c565b6040516001600160a01b038216907f6719d08c1888103bea251a4ed56406bd0c3e69723c8a1686e017e7bbe159b6f890600090a250565b6101d782826001600160e01b0361024e16565b15610229576040805162461bcd60e51b815260206004820152601f60248201527f526f6c65733a206163636f756e7420616c72656164792068617320726f6c6500604482015290519081900360640190fd5b6001600160a01b0316600090815260209190915260409020805460ff19166001179055565b60006001600160a01b0382166102955760405162461bcd60e51b8152600401808060200182810382526022815260200180610f866022913960400191505060405180910390fd5b506001600160a01b03166000908152602091909152604090205460ff1690565b610c9e806102c46000396000f3fe60806040526004361061009c5760003560e01c80635c975abb116100645780635c975abb146101705780636ef8d66d1461018557806382dc1ec41461019a5780638456cb59146101cd578063ec8ac4d8146101e2578063fc0c546a146102085761009c565b80632c4e722e146100a75780633f4ba83a146100ce5780634042b66f146100e357806346fbf68e146100f8578063521eb2731461013f575b6100a53361021d565b005b3480156100b357600080fd5b506100bc610321565b60408051918252519081900360200190f35b3480156100da57600080fd5b506100a5610327565b3480156100ef57600080fd5b506100bc6103f8565b34801561010457600080fd5b5061012b6004803603602081101561011b57600080fd5b50356001600160a01b03166103fe565b604080519115158252519081900360200190f35b34801561014b57600080fd5b50610154610417565b604080516001600160a01b039092168252519081900360200190f35b34801561017c57600080fd5b5061012b610426565b34801561019157600080fd5b506100a561042f565b3480156101a657600080fd5b506100a5600480360360208110156101bd57600080fd5b50356001600160a01b031661043a565b3480156101d957600080fd5b506100a561048a565b6100a5600480360360208110156101f857600080fd5b50356001600160a01b031661021d565b34801561021457600080fd5b5061015461055b565b600080546001019081905534610233838261056a565b600061023e826105bf565b600454909150610254908363ffffffff6105d616565b6004556102618482610637565b604080518381526020810183905281516001600160a01b0387169233927f6faf93231a456e552dbc9961f58d9713ee4f2e69d15f1975b050ef0911053a7b929081900390910190a36102b3848361031d565b6102bb610641565b6102c5848361031d565b5050600054811461031d576040805162461bcd60e51b815260206004820152601f60248201527f5265656e7472616e637947756172643a207265656e7472616e742063616c6c00604482015290519081900360640190fd5b5050565b60035490565b610330336103fe565b61036b5760405162461bcd60e51b8152600401808060200182810382526030815260200180610b826030913960400191505060405180910390fd5b60065460ff166103b9576040805162461bcd60e51b815260206004820152601460248201527314185d5cd8589b194e881b9bdd081c185d5cd95960621b604482015290519081900360640190fd5b6006805460ff191690556040805133815290517f5db9ee0a495bf2e6ff9c91a7834c1ba4fdd244a5e8aa4e537bd38aeae4b073aa9181900360200190a1565b60045490565b600061041160058363ffffffff61067a16565b92915050565b6002546001600160a01b031690565b60065460ff1690565b610438336106e1565b565b610443336103fe565b61047e5760405162461bcd60e51b8152600401808060200182810382526030815260200180610b826030913960400191505060405180910390fd5b61048781610729565b50565b610493336103fe565b6104ce5760405162461bcd60e51b8152600401808060200182810382526030815260200180610b826030913960400191505060405180910390fd5b60065460ff1615610519576040805162461bcd60e51b815260206004820152601060248201526f14185d5cd8589b194e881c185d5cd95960821b604482015290519081900360640190fd5b6006805460ff191660011790556040805133815290517f62e78cea01bee320cd4e420270b5ea74000d11b0c9f74754ebdbfc544b05a2589181900360200190a1565b6001546001600160a01b031690565b60065460ff16156105b5576040805162461bcd60e51b815260206004820152601060248201526f14185d5cd8589b194e881c185d5cd95960821b604482015290519081900360640190fd5b61031d8282610771565b60006104116003548361080890919063ffffffff16565b600082820183811015610630576040805162461bcd60e51b815260206004820152601b60248201527f536166654d6174683a206164646974696f6e206f766572666c6f770000000000604482015290519081900360640190fd5b9392505050565b61031d8282610861565b6002546040516001600160a01b03909116903480156108fc02916000818181858888f19350505050158015610487573d6000803e3d6000fd5b60006001600160a01b0382166106c15760405162461bcd60e51b8152600401808060200182810382526022815260200180610bf46022913960400191505060405180910390fd5b506001600160a01b03166000908152602091909152604090205460ff1690565b6106f260058263ffffffff61087e16565b6040516001600160a01b038216907fcd265ebaf09df2871cc7bd4133404a235ba12eff2041bb89d9c714a2621c7c7e90600090a250565b61073a60058263ffffffff6108e516565b6040516001600160a01b038216907f6719d08c1888103bea251a4ed56406bd0c3e69723c8a1686e017e7bbe159b6f890600090a250565b6001600160a01b0382166107b65760405162461bcd60e51b815260040180806020018281038252602a815260200180610c16602a913960400191505060405180910390fd5b8061031d576040805162461bcd60e51b815260206004820152601960248201527f43726f776473616c653a20776569416d6f756e74206973203000000000000000604482015290519081900360640190fd5b60008261081757506000610411565b8282028284828161082457fe5b04146106305760405162461bcd60e51b8152600401808060200182810382526021815260200180610bd36021913960400191505060405180910390fd5b60015461031d906001600160a01b0316838363ffffffff61096616565b610888828261067a565b6108c35760405162461bcd60e51b8152600401808060200182810382526021815260200180610bb26021913960400191505060405180910390fd5b6001600160a01b0316600090815260209190915260409020805460ff19169055565b6108ef828261067a565b15610941576040805162461bcd60e51b815260206004820152601f60248201527f526f6c65733a206163636f756e7420616c72656164792068617320726f6c6500604482015290519081900360640190fd5b6001600160a01b0316600090815260209190915260409020805460ff19166001179055565b604080516001600160a01b038416602482015260448082018490528251808303909101815260649091019091526020810180516001600160e01b031663a9059cbb60e01b1790526109b89084906109bd565b505050565b6109cf826001600160a01b0316610b7b565b610a20576040805162461bcd60e51b815260206004820152601f60248201527f5361666545524332303a2063616c6c20746f206e6f6e2d636f6e747261637400604482015290519081900360640190fd5b60006060836001600160a01b0316836040518082805190602001908083835b60208310610a5e5780518252601f199092019160209182019101610a3f565b6001836020036101000a0380198251168184511680821785525050505050509050019150506000604051808303816000865af19150503d8060008114610ac0576040519150601f19603f3d011682016040523d82523d6000602084013e610ac5565b606091505b509150915081610b1c576040805162461bcd60e51b815260206004820181905260248201527f5361666545524332303a206c6f772d6c6576656c2063616c6c206661696c6564604482015290519081900360640190fd5b805115610b7557808060200190516020811015610b3857600080fd5b5051610b755760405162461bcd60e51b815260040180806020018281038252602a815260200180610c40602a913960400191505060405180910390fd5b50505050565b3b15159056fe506175736572526f6c653a2063616c6c657220646f6573206e6f742068617665207468652050617573657220726f6c65526f6c65733a206163636f756e7420646f6573206e6f74206861766520726f6c65536166654d6174683a206d756c7469706c69636174696f6e206f766572666c6f77526f6c65733a206163636f756e7420697320746865207a65726f206164647265737343726f776473616c653a2062656e656669636961727920697320746865207a65726f20616464726573735361666545524332303a204552433230206f7065726174696f6e20646964206e6f742073756363656564a265627a7a72315820b1239d928f0696f647f2d0af1ea129a783c5a6732d76e16b06eeb115f62e169764736f6c6343000510003243726f776473616c653a20746f6b656e20697320746865207a65726f2061646472657373526f6c65733a206163636f756e7420697320746865207a65726f206164647265737343726f776473616c653a2077616c6c657420697320746865207a65726f2061646472657373",
  "source": "pragma solidity ^0.5.0;\n\nimport \"../token/ERC20/ERC20.sol\";\nimport \"../crowdsale/validation/PausableCrowdsale.sol\";\n\ncontract PausableCrowdsaleImpl is PausableCrowdsale {\n    constructor (uint256 _rate, address payable _wallet, ERC20 _token) public Crowdsale(_rate, _wallet, _token) {\n        // solhint-disable-previous-line no-empty-blocks\n    }\n}\n",
  "sourcePath": "/home/grifma/Code/vi-admin-ui/contracts/lib/openzeppelin-solidity/contracts/mocks/PausableCrowdsaleImpl.sol",
  "compiler": {
    "name": "solc",
    "version": "0.5.16+commit.9c3226ce.Emscripten.clang"
  },
  "schemaVersion": "3.0.23",
  "updatedAt": "2020-05-14T20:26:11.305Z",
  "devdoc": {
    "methods": {
      "buyTokens(address)": {
        "details": "low level token purchase ***DO NOT OVERRIDE*** This function has a non-reentrancy guard, so it shouldn't be called by another `nonReentrant` function.",
        "params": {
          "beneficiary": "Recipient of the token purchase"
        }
      },
      "pause()": {
        "details": "Called by a pauser to pause, triggers stopped state."
      },
      "paused()": {
        "return": "True if the contract is paused, false otherwise."
      },
      "rate()": {
        "return": "the number of token units a buyer gets per wei."
      },
      "token()": {
        "return": "the token being sold."
      },
      "unpause()": {
        "details": "Called by a pauser to unpause, returns to normal state."
      },
      "wallet()": {
        "return": "the address where funds are collected."
      },
      "weiRaised()": {
        "return": "the amount of wei raised."
      }
    }
  },
  "userdoc": {
    "methods": {}
  }
}