{
  "contractName": "PostDeliveryCrowdsaleImpl",
  "abi": [
    {
      "inputs": [
        {
          "internalType": "uint256",
          "name": "openingTime",
          "type": "uint256"
        },
        {
          "internalType": "uint256",
          "name": "closingTime",
          "type": "uint256"
        },
        {
          "internalType": "uint256",
          "name": "rate",
          "type": "uint256"
        },
        {
          "internalType": "address payable",
          "name": "wallet",
          "type": "address"
        },
        {
          "internalType": "contract IERC20",
          "name": "token",
          "type": "address"
        }
      ],
      "payable": false,
      "stateMutability": "nonpayable",
      "type": "constructor"
    },
    {
      "anonymous": false,
      "inputs": [
        {
          "indexed": false,
          "internalType": "uint256",
          "name": "prevClosingTime",
          "type": "uint256"
        },
        {
          "indexed": false,
          "internalType": "uint256",
          "name": "newClosingTime",
          "type": "uint256"
        }
      ],
      "name": "TimedCrowdsaleExtended",
      "type": "event"
    },
    {
      "anonymous": false,
      "inputs": [
        {
          "indexed": true,
          "internalType": "address",
          "name": "purchaser",
          "type": "address"
        },
        {
          "indexed": true,
          "internalType": "address",
          "name": "beneficiary",
          "type": "address"
        },
        {
          "indexed": false,
          "internalType": "uint256",
          "name": "value",
          "type": "uint256"
        },
        {
          "indexed": false,
          "internalType": "uint256",
          "name": "amount",
          "type": "uint256"
        }
      ],
      "name": "TokensPurchased",
      "type": "event"
    },
    {
      "payable": true,
      "stateMutability": "payable",
      "type": "fallback"
    },
    {
      "constant": true,
      "inputs": [
        {
          "internalType": "address",
          "name": "account",
          "type": "address"
        }
      ],
      "name": "balanceOf",
      "outputs": [
        {
          "internalType": "uint256",
          "name": "",
          "type": "uint256"
        }
      ],
      "payable": false,
      "stateMutability": "view",
      "type": "function"
    },
    {
      "constant": false,
      "inputs": [
        {
          "internalType": "address",
          "name": "beneficiary",
          "type": "address"
        }
      ],
      "name": "buyTokens",
      "outputs": [],
      "payable": true,
      "stateMutability": "payable",
      "type": "function"
    },
    {
      "constant": true,
      "inputs": [],
      "name": "closingTime",
      "outputs": [
        {
          "internalType": "uint256",
          "name": "",
          "type": "uint256"
        }
      ],
      "payable": false,
      "stateMutability": "view",
      "type": "function"
    },
    {
      "constant": true,
      "inputs": [],
      "name": "hasClosed",
      "outputs": [
        {
          "internalType": "bool",
          "name": "",
          "type": "bool"
        }
      ],
      "payable": false,
      "stateMutability": "view",
      "type": "function"
    },
    {
      "constant": true,
      "inputs": [],
      "name": "isOpen",
      "outputs": [
        {
          "internalType": "bool",
          "name": "",
          "type": "bool"
        }
      ],
      "payable": false,
      "stateMutability": "view",
      "type": "function"
    },
    {
      "constant": true,
      "inputs": [],
      "name": "openingTime",
      "outputs": [
        {
          "internalType": "uint256",
          "name": "",
          "type": "uint256"
        }
      ],
      "payable": false,
      "stateMutability": "view",
      "type": "function"
    },
    {
      "constant": true,
      "inputs": [],
      "name": "rate",
      "outputs": [
        {
          "internalType": "uint256",
          "name": "",
          "type": "uint256"
        }
      ],
      "payable": false,
      "stateMutability": "view",
      "type": "function"
    },
    {
      "constant": true,
      "inputs": [],
      "name": "token",
      "outputs": [
        {
          "internalType": "contract IERC20",
          "name": "",
          "type": "address"
        }
      ],
      "payable": false,
      "stateMutability": "view",
      "type": "function"
    },
    {
      "constant": true,
      "inputs": [],
      "name": "wallet",
      "outputs": [
        {
          "internalType": "address payable",
          "name": "",
          "type": "address"
        }
      ],
      "payable": false,
      "stateMutability": "view",
      "type": "function"
    },
    {
      "constant": true,
      "inputs": [],
      "name": "weiRaised",
      "outputs": [
        {
          "internalType": "uint256",
          "name": "",
          "type": "uint256"
        }
      ],
      "payable": false,
      "stateMutability": "view",
      "type": "function"
    },
    {
      "constant": false,
      "inputs": [
        {
          "internalType": "address",
          "name": "beneficiary",
          "type": "address"
        }
      ],
      "name": "withdrawTokens",
      "outputs": [],
      "payable": false,
      "stateMutability": "nonpayable",
      "type": "function"
    }
  ],
  "bytecode": "0x608060405234801561001057600080fd5b506040516110f63803806110f6833981810160405260a081101561003357600080fd5b5080516020820151604083015160608401516080909401516001600055929391929091908484848484826100ae576040805162461bcd60e51b815260206004820152601460248201527f43726f776473616c653a20726174652069732030000000000000000000000000604482015290519081900360640190fd5b6001600160a01b0382166100f35760405162461bcd60e51b81526004018080602001828103825260258152602001806110d16025913960400191505060405180910390fd5b6001600160a01b0381166101385760405162461bcd60e51b81526004018080602001828103825260248152602001806110ad6024913960400191505060405180910390fd5b600392909255600280546001600160a01b039283166001600160a01b03199182161790915560018054929093169116179055428210156101a95760405162461bcd60e51b81526004018080602001828103825260338152602001806110436033913960400191505060405180910390fd5b8181116101e75760405162461bcd60e51b81526004018080602001828103825260378152602001806110766037913960400191505060405180910390fd5b6005919091556006556040516101fc90610244565b604051809103906000f080158015610218573d6000803e3d6000fd5b50600880546001600160a01b0319166001600160a01b0392909216919091179055506102519350505050565b61037e80610cc583390190565b610a65806102606000396000f3fe60806040526004361061009c5760003560e01c80634b6753bc116100645780634b6753bc14610154578063521eb2731461016957806370a082311461019a578063b7a8807c146101cd578063ec8ac4d8146101e2578063fc0c546a146102085761009c565b80631515bc2b146100a75780632c4e722e146100d05780634042b66f146100f757806347535d7b1461010c57806349df728c14610121575b6100a53361021d565b005b3480156100b357600080fd5b506100bc610321565b604080519115158252519081900360200190f35b3480156100dc57600080fd5b506100e5610329565b60408051918252519081900360200190f35b34801561010357600080fd5b506100e561032f565b34801561011857600080fd5b506100bc610335565b34801561012d57600080fd5b506100a56004803603602081101561014457600080fd5b50356001600160a01b0316610350565b34801561016057600080fd5b506100e5610484565b34801561017557600080fd5b5061017e61048a565b604080516001600160a01b039092168252519081900360200190f35b3480156101a657600080fd5b506100e5600480360360208110156101bd57600080fd5b50356001600160a01b0316610499565b3480156101d957600080fd5b506100e56104b4565b6100a5600480360360208110156101f857600080fd5b50356001600160a01b031661021d565b34801561021457600080fd5b5061017e6104ba565b60008054600101908190553461023383826104c9565b600061023e8261052c565b600454909150610254908363ffffffff61054916565b60045561026184826105aa565b604080518381526020810183905281516001600160a01b0387169233927f6faf93231a456e552dbc9961f58d9713ee4f2e69d15f1975b050ef0911053a7b929081900390910190a36102b3848361031d565b6102bb6105fe565b6102c5848361031d565b5050600054811461031d576040805162461bcd60e51b815260206004820152601f60248201527f5265656e7472616e637947756172643a207265656e7472616e742063616c6c00604482015290519081900360640190fd5b5050565b600654421190565b60035490565b60045490565b6000600554421015801561034b57506006544211155b905090565b610358610321565b6103935760405162461bcd60e51b81526004018080602001828103825260218152602001806109e66021913960400191505060405180910390fd5b6001600160a01b038116600090815260076020526040902054806103e85760405162461bcd60e51b81526004018080602001828103825260388152602001806109636038913960400191505060405180910390fd5b6001600160a01b038083166000908152600760205260408120556008541663beabacc86104136104ba565b604080516001600160e01b031960e085901b1681526001600160a01b03928316600482015291861660248301526044820185905251606480830192600092919082900301818387803b15801561046857600080fd5b505af115801561047c573d6000803e3d6000fd5b505050505050565b60065490565b6002546001600160a01b031690565b6001600160a01b031660009081526007602052604090205490565b60055490565b6001546001600160a01b031690565b6104d1610335565b610522576040805162461bcd60e51b815260206004820152601860248201527f54696d656443726f776473616c653a206e6f74206f70656e0000000000000000604482015290519081900360640190fd5b61031d828261063a565b6000610543600354836106d190919063ffffffff16565b92915050565b6000828201838110156105a3576040805162461bcd60e51b815260206004820152601b60248201527f536166654d6174683a206164646974696f6e206f766572666c6f770000000000604482015290519081900360640190fd5b9392505050565b6001600160a01b0382166000908152600760205260409020546105d3908263ffffffff61054916565b6001600160a01b0380841660009081526007602052604090209190915560085461031d91168261072a565b6002546040516001600160a01b03909116903480156108fc02916000818181858888f19350505050158015610637573d6000803e3d6000fd5b50565b6001600160a01b03821661067f5760405162461bcd60e51b815260040180806020018281038252602a8152602001806109bc602a913960400191505060405180910390fd5b8061031d576040805162461bcd60e51b815260206004820152601960248201527f43726f776473616c653a20776569416d6f756e74206973203000000000000000604482015290519081900360640190fd5b6000826106e057506000610543565b828202828482816106ed57fe5b04146105a35760405162461bcd60e51b815260040180806020018281038252602181526020018061099b6021913960400191505060405180910390fd5b60015461031d906001600160a01b0316838363ffffffff61074716565b604080516001600160a01b038416602482015260448082018490528251808303909101815260649091019091526020810180516001600160e01b031663a9059cbb60e01b17905261079990849061079e565b505050565b6107b0826001600160a01b031661095c565b610801576040805162461bcd60e51b815260206004820152601f60248201527f5361666545524332303a2063616c6c20746f206e6f6e2d636f6e747261637400604482015290519081900360640190fd5b60006060836001600160a01b0316836040518082805190602001908083835b6020831061083f5780518252601f199092019160209182019101610820565b6001836020036101000a0380198251168184511680821785525050505050509050019150506000604051808303816000865af19150503d80600081146108a1576040519150601f19603f3d011682016040523d82523d6000602084013e6108a6565b606091505b5091509150816108fd576040805162461bcd60e51b815260206004820181905260248201527f5361666545524332303a206c6f772d6c6576656c2063616c6c206661696c6564604482015290519081900360640190fd5b8051156109565780806020019051602081101561091957600080fd5b50516109565760405162461bcd60e51b815260040180806020018281038252602a815260200180610a07602a913960400191505060405180910390fd5b50505050565b3b15159056fe506f737444656c697665727943726f776473616c653a2062656e6566696369617279206973206e6f742064756520616e7920746f6b656e73536166654d6174683a206d756c7469706c69636174696f6e206f766572666c6f7743726f776473616c653a2062656e656669636961727920697320746865207a65726f2061646472657373506f737444656c697665727943726f776473616c653a206e6f7420636c6f7365645361666545524332303a204552433230206f7065726174696f6e20646964206e6f742073756363656564a265627a7a723158208559a4396ea882129a18a80fe345cfe0ecf2e8809222c4482f4b92e315ff04b364736f6c6343000510003260806040819052600080546001600160a01b0319163317908190556001600160a01b031681527f4101e71e974f68df5e9730cc223280b41654676bbb052cdcc735c3337e64d2d990602090a16103248061005a6000396000f3fe608060405234801561001057600080fd5b50600436106100415760003560e01c80632348238c14610046578063beabacc81461006e578063c6dbdf61146100a4575b600080fd5b61006c6004803603602081101561005c57600080fd5b50356001600160a01b03166100c8565b005b61006c6004803603606081101561008457600080fd5b506001600160a01b038135811691602081013590911690604001356101b0565b6100ac61028a565b604080516001600160a01b039092168252519081900360200190f35b6000546001600160a01b031633146101115760405162461bcd60e51b815260040180806020018281038252602c8152602001806102c4602c913960400191505060405180910390fd5b6001600160a01b0381166101565760405162461bcd60e51b815260040180806020018281038252602a81526020018061029a602a913960400191505060405180910390fd5b600080546001600160a01b0319166001600160a01b03838116919091179182905560408051929091168252517f4101e71e974f68df5e9730cc223280b41654676bbb052cdcc735c3337e64d2d9916020908290030190a150565b6000546001600160a01b031633146101f95760405162461bcd60e51b815260040180806020018281038252602c8152602001806102c4602c913960400191505060405180910390fd5b826001600160a01b031663a9059cbb83836040518363ffffffff1660e01b815260040180836001600160a01b03166001600160a01b0316815260200182815260200192505050602060405180830381600087803b15801561025957600080fd5b505af115801561026d573d6000803e3d6000fd5b505050506040513d602081101561028357600080fd5b5050505050565b6000546001600160a01b03169056fe5365636f6e646172793a206e6577207072696d61727920697320746865207a65726f20616464726573735365636f6e646172793a2063616c6c6572206973206e6f7420746865207072696d617279206163636f756e74a265627a7a72315820adff02c7b8cad3247dac64af34d23ebdc32f2a19d11eee1e9d0136dd1c9a74b564736f6c6343000510003254696d656443726f776473616c653a206f70656e696e672074696d65206973206265666f72652063757272656e742074696d6554696d656443726f776473616c653a206f70656e696e672074696d65206973206e6f74206265666f726520636c6f73696e672074696d6543726f776473616c653a20746f6b656e20697320746865207a65726f206164647265737343726f776473616c653a2077616c6c657420697320746865207a65726f2061646472657373",
  "source": "pragma solidity ^0.5.0;\n\nimport \"../token/ERC20/IERC20.sol\";\nimport \"../crowdsale/distribution/PostDeliveryCrowdsale.sol\";\n\ncontract PostDeliveryCrowdsaleImpl is PostDeliveryCrowdsale {\n    constructor (uint256 openingTime, uint256 closingTime, uint256 rate, address payable wallet, IERC20 token)\n        public\n        TimedCrowdsale(openingTime, closingTime)\n        Crowdsale(rate, wallet, token)\n    {\n        // solhint-disable-previous-line no-empty-blocks\n    }\n}\n",
  "sourcePath": "/home/grifma/Code/vi-admin-ui/contracts/lib/openzeppelin-solidity/contracts/mocks/PostDeliveryCrowdsaleImpl.sol",
  "compiler": {
    "name": "solc",
    "version": "0.5.16+commit.9c3226ce.Emscripten.clang"
  },
  "schemaVersion": "3.0.23",
  "updatedAt": "2020-05-14T20:26:11.307Z",
  "devdoc": {
    "methods": {
      "balanceOf(address)": {
        "return": "the balance of an account."
      },
      "buyTokens(address)": {
        "details": "low level token purchase ***DO NOT OVERRIDE*** This function has a non-reentrancy guard, so it shouldn't be called by another `nonReentrant` function.",
        "params": {
          "beneficiary": "Recipient of the token purchase"
        }
      },
      "closingTime()": {
        "return": "the crowdsale closing time."
      },
      "hasClosed()": {
        "details": "Checks whether the period in which the crowdsale is open has already elapsed.",
        "return": "Whether crowdsale period has elapsed"
      },
      "isOpen()": {
        "return": "true if the crowdsale is open, false otherwise."
      },
      "openingTime()": {
        "return": "the crowdsale opening time."
      },
      "rate()": {
        "return": "the number of token units a buyer gets per wei."
      },
      "token()": {
        "return": "the token being sold."
      },
      "wallet()": {
        "return": "the address where funds are collected."
      },
      "weiRaised()": {
        "return": "the amount of wei raised."
      },
      "withdrawTokens(address)": {
        "details": "Withdraw tokens only after crowdsale ends.",
        "params": {
          "beneficiary": "Whose tokens will be withdrawn."
        }
      }
    }
  },
  "userdoc": {
    "methods": {}
  }
}