{
  "contractName": "RefundablePostDeliveryCrowdsaleImpl",
  "abi": [
    {
      "inputs": [
        {
          "internalType": "uint256",
          "name": "openingTime",
          "type": "uint256"
        },
        {
          "internalType": "uint256",
          "name": "closingTime",
          "type": "uint256"
        },
        {
          "internalType": "uint256",
          "name": "rate",
          "type": "uint256"
        },
        {
          "internalType": "address payable",
          "name": "wallet",
          "type": "address"
        },
        {
          "internalType": "contract IERC20",
          "name": "token",
          "type": "address"
        },
        {
          "internalType": "uint256",
          "name": "goal",
          "type": "uint256"
        }
      ],
      "payable": false,
      "stateMutability": "nonpayable",
      "type": "constructor"
    },
    {
      "anonymous": false,
      "inputs": [],
      "name": "CrowdsaleFinalized",
      "type": "event"
    },
    {
      "anonymous": false,
      "inputs": [
        {
          "indexed": false,
          "internalType": "uint256",
          "name": "prevClosingTime",
          "type": "uint256"
        },
        {
          "indexed": false,
          "internalType": "uint256",
          "name": "newClosingTime",
          "type": "uint256"
        }
      ],
      "name": "TimedCrowdsaleExtended",
      "type": "event"
    },
    {
      "anonymous": false,
      "inputs": [
        {
          "indexed": true,
          "internalType": "address",
          "name": "purchaser",
          "type": "address"
        },
        {
          "indexed": true,
          "internalType": "address",
          "name": "beneficiary",
          "type": "address"
        },
        {
          "indexed": false,
          "internalType": "uint256",
          "name": "value",
          "type": "uint256"
        },
        {
          "indexed": false,
          "internalType": "uint256",
          "name": "amount",
          "type": "uint256"
        }
      ],
      "name": "TokensPurchased",
      "type": "event"
    },
    {
      "payable": true,
      "stateMutability": "payable",
      "type": "fallback"
    },
    {
      "constant": true,
      "inputs": [
        {
          "internalType": "address",
          "name": "account",
          "type": "address"
        }
      ],
      "name": "balanceOf",
      "outputs": [
        {
          "internalType": "uint256",
          "name": "",
          "type": "uint256"
        }
      ],
      "payable": false,
      "stateMutability": "view",
      "type": "function"
    },
    {
      "constant": false,
      "inputs": [
        {
          "internalType": "address",
          "name": "beneficiary",
          "type": "address"
        }
      ],
      "name": "buyTokens",
      "outputs": [],
      "payable": true,
      "stateMutability": "payable",
      "type": "function"
    },
    {
      "constant": false,
      "inputs": [
        {
          "internalType": "address payable",
          "name": "refundee",
          "type": "address"
        }
      ],
      "name": "claimRefund",
      "outputs": [],
      "payable": false,
      "stateMutability": "nonpayable",
      "type": "function"
    },
    {
      "constant": true,
      "inputs": [],
      "name": "closingTime",
      "outputs": [
        {
          "internalType": "uint256",
          "name": "",
          "type": "uint256"
        }
      ],
      "payable": false,
      "stateMutability": "view",
      "type": "function"
    },
    {
      "constant": false,
      "inputs": [],
      "name": "finalize",
      "outputs": [],
      "payable": false,
      "stateMutability": "nonpayable",
      "type": "function"
    },
    {
      "constant": true,
      "inputs": [],
      "name": "finalized",
      "outputs": [
        {
          "internalType": "bool",
          "name": "",
          "type": "bool"
        }
      ],
      "payable": false,
      "stateMutability": "view",
      "type": "function"
    },
    {
      "constant": true,
      "inputs": [],
      "name": "goal",
      "outputs": [
        {
          "internalType": "uint256",
          "name": "",
          "type": "uint256"
        }
      ],
      "payable": false,
      "stateMutability": "view",
      "type": "function"
    },
    {
      "constant": true,
      "inputs": [],
      "name": "goalReached",
      "outputs": [
        {
          "internalType": "bool",
          "name": "",
          "type": "bool"
        }
      ],
      "payable": false,
      "stateMutability": "view",
      "type": "function"
    },
    {
      "constant": true,
      "inputs": [],
      "name": "hasClosed",
      "outputs": [
        {
          "internalType": "bool",
          "name": "",
          "type": "bool"
        }
      ],
      "payable": false,
      "stateMutability": "view",
      "type": "function"
    },
    {
      "constant": true,
      "inputs": [],
      "name": "isOpen",
      "outputs": [
        {
          "internalType": "bool",
          "name": "",
          "type": "bool"
        }
      ],
      "payable": false,
      "stateMutability": "view",
      "type": "function"
    },
    {
      "constant": true,
      "inputs": [],
      "name": "openingTime",
      "outputs": [
        {
          "internalType": "uint256",
          "name": "",
          "type": "uint256"
        }
      ],
      "payable": false,
      "stateMutability": "view",
      "type": "function"
    },
    {
      "constant": true,
      "inputs": [],
      "name": "rate",
      "outputs": [
        {
          "internalType": "uint256",
          "name": "",
          "type": "uint256"
        }
      ],
      "payable": false,
      "stateMutability": "view",
      "type": "function"
    },
    {
      "constant": true,
      "inputs": [],
      "name": "token",
      "outputs": [
        {
          "internalType": "contract IERC20",
          "name": "",
          "type": "address"
        }
      ],
      "payable": false,
      "stateMutability": "view",
      "type": "function"
    },
    {
      "constant": true,
      "inputs": [],
      "name": "wallet",
      "outputs": [
        {
          "internalType": "address payable",
          "name": "",
          "type": "address"
        }
      ],
      "payable": false,
      "stateMutability": "view",
      "type": "function"
    },
    {
      "constant": true,
      "inputs": [],
      "name": "weiRaised",
      "outputs": [
        {
          "internalType": "uint256",
          "name": "",
          "type": "uint256"
        }
      ],
      "payable": false,
      "stateMutability": "view",
      "type": "function"
    },
    {
      "constant": false,
      "inputs": [
        {
          "internalType": "address",
          "name": "beneficiary",
          "type": "address"
        }
      ],
      "name": "withdrawTokens",
      "outputs": [],
      "payable": false,
      "stateMutability": "nonpayable",
      "type": "function"
    }
  ],
  "bytecode": "0x60806040523480156200001157600080fd5b50604051620022cf380380620022cf833981810160405260c08110156200003757600080fd5b508051602082015160408301516060840151608085015160a0909501516001600055939492939192909180868686868682620000ba576040805162461bcd60e51b815260206004820152601460248201527f43726f776473616c653a20726174652069732030000000000000000000000000604482015290519081900360640190fd5b6001600160a01b038216620001015760405162461bcd60e51b8152600401808060200182810382526025815260200180620022aa6025913960400191505060405180910390fd5b6001600160a01b038116620001485760405162461bcd60e51b8152600401808060200182810382526024815260200180620022866024913960400191505060405180910390fd5b600392909255600280546001600160a01b039283166001600160a01b0319918216179091556001805492909316911617905542821015620001bb5760405162461bcd60e51b81526004018080602001828103825260338152602001806200221c6033913960400191505060405180910390fd5b818111620001fb5760405162461bcd60e51b81526004018080602001828103825260378152602001806200224f6037913960400191505060405180910390fd5b6005919091556006556007805460ff191690558062000261576040805162461bcd60e51b815260206004820152601e60248201527f526566756e6461626c6543726f776473616c653a20676f616c20697320300000604482015290519081900360640190fd5b620002746001600160e01b036200032d16565b60405162000282906200033c565b6001600160a01b03909116815260405190819003602001906000f080158015620002b0573d6000803e3d6000fd5b50600980546001600160a01b0319166001600160a01b0392909216919091179055600855604051620002e2906200034a565b604051809103906000f080158015620002ff573d6000803e3d6000fd5b50600b80546001600160a01b0319166001600160a01b03929092169190911790555062000358945050505050565b6002546001600160a01b031690565b610b48806200135683390190565b61037e8062001e9e83390190565b610fee80620003686000396000f3fe6080604052600436106100f35760003560e01c8063521eb2731161008a578063b7a8807c11610059578063b7a8807c14610278578063bffa55d51461028d578063ec8ac4d8146102c0578063fc0c546a146102e6576100f3565b8063521eb273146101ea57806370a082311461021b5780637d3d65221461024e578063b3f05b9714610263576100f3565b806347535d7b116100c657806347535d7b1461017857806349df728c1461018d5780634b6753bc146101c05780634bb278f3146101d5576100f3565b80631515bc2b146100fe5780632c4e722e14610127578063401938831461014e5780634042b66f14610163575b6100fc336102fb565b005b34801561010a57600080fd5b506101136103ff565b604080519115158252519081900360200190f35b34801561013357600080fd5b5061013c610407565b60408051918252519081900360200190f35b34801561015a57600080fd5b5061013c61040d565b34801561016f57600080fd5b5061013c610413565b34801561018457600080fd5b50610113610419565b34801561019957600080fd5b506100fc600480360360208110156101b057600080fd5b50356001600160a01b0316610434565b3480156101cc57600080fd5b5061013c6104c6565b3480156101e157600080fd5b506100fc6104cc565b3480156101f657600080fd5b506101ff6105a7565b604080516001600160a01b039092168252519081900360200190f35b34801561022757600080fd5b5061013c6004803603602081101561023e57600080fd5b50356001600160a01b03166105b6565b34801561025a57600080fd5b506101136105d1565b34801561026f57600080fd5b506101136105e5565b34801561028457600080fd5b5061013c6105ee565b34801561029957600080fd5b506100fc600480360360208110156102b057600080fd5b50356001600160a01b03166105f4565b6100fc600480360360208110156102d657600080fd5b50356001600160a01b03166102fb565b3480156102f257600080fd5b506101ff6106e4565b60008054600101908190553461031183826106f3565b600061031c82610756565b600454909150610332908363ffffffff61077316565b60045561033f84826107d4565b604080518381526020810183905281516001600160a01b0387169233927f6faf93231a456e552dbc9961f58d9713ee4f2e69d15f1975b050ef0911053a7b929081900390910190a361039184836103fb565b610399610828565b6103a384836103fb565b505060005481146103fb576040805162461bcd60e51b815260206004820152601f60248201527f5265656e7472616e637947756172643a207265656e7472616e742063616c6c00604482015290519081900360640190fd5b5050565b600654421190565b60035490565b60085490565b60045490565b6000600554421015801561042f57506006544211155b905090565b61043c6105e5565b6104775760405162461bcd60e51b815260040180806020018281038252602e815260200180610e23602e913960400191505060405180910390fd5b61047f6105d1565b6104ba5760405162461bcd60e51b8152600401808060200182810382526031815260200180610e516031913960400191505060405180910390fd5b6104c381610875565b50565b60065490565b60075460ff161561050e5760405162461bcd60e51b8152600401808060200182810382526027815260200180610edb6027913960400191505060405180910390fd5b6105166103ff565b610567576040805162461bcd60e51b815260206004820181905260248201527f46696e616c697a61626c6543726f776473616c653a206e6f7420636c6f736564604482015290519081900360640190fd5b6007805460ff1916600117905561057c6109a9565b6040517f9270cc390c096600a1c17c44345a1ba689fafd99d97487b10cfccf86cf73183690600090a1565b6002546001600160a01b031690565b6001600160a01b03166000908152600a602052604090205490565b60006008546105de610413565b1015905090565b60075460ff1690565b60055490565b6105fc6105e5565b6106375760405162461bcd60e51b8152600401808060200182810382526022815260200180610f6e6022913960400191505060405180910390fd5b61063f6105d1565b1561067b5760405162461bcd60e51b8152600401808060200182810382526021815260200180610f026021913960400191505060405180910390fd5b600954604080516351cff8d960e01b81526001600160a01b038481166004830152915191909216916351cff8d991602480830192600092919082900301818387803b1580156106c957600080fd5b505af11580156106dd573d6000803e3d6000fd5b5050505050565b6001546001600160a01b031690565b6106fb610419565b61074c576040805162461bcd60e51b815260206004820152601860248201527f54696d656443726f776473616c653a206e6f74206f70656e0000000000000000604482015290519081900360640190fd5b6103fb8282610afa565b600061076d60035483610b9190919063ffffffff16565b92915050565b6000828201838110156107cd576040805162461bcd60e51b815260206004820152601b60248201527f536166654d6174683a206164646974696f6e206f766572666c6f770000000000604482015290519081900360640190fd5b9392505050565b6001600160a01b0382166000908152600a60205260409020546107fd908263ffffffff61077316565b6001600160a01b038084166000908152600a6020526040902091909155600b546103fb911682610bea565b6009546040805163f340fa0160e01b815233600482015290516001600160a01b039092169163f340fa01913491602480830192600092919082900301818588803b1580156106c957600080fd5b61087d6103ff565b6108b85760405162461bcd60e51b8152600401808060200182810382526021815260200180610f4d6021913960400191505060405180910390fd5b6001600160a01b0381166000908152600a60205260409020548061090d5760405162461bcd60e51b8152600401808060200182810382526038815260200180610e826038913960400191505060405180910390fd5b6001600160a01b038083166000908152600a6020526040812055600b541663beabacc86109386106e4565b604080516001600160e01b031960e085901b1681526001600160a01b03928316600482015291861660248301526044820185905251606480830192600092919082900301818387803b15801561098d57600080fd5b505af11580156109a1573d6000803e3d6000fd5b505050505050565b6109b16105d1565b15610a8b57600960009054906101000a90046001600160a01b03166001600160a01b03166343d726d66040518163ffffffff1660e01b8152600401600060405180830381600087803b158015610a0657600080fd5b505af1158015610a1a573d6000803e3d6000fd5b50505050600960009054906101000a90046001600160a01b03166001600160a01b0316639af6549a6040518163ffffffff1660e01b8152600401600060405180830381600087803b158015610a6e57600080fd5b505af1158015610a82573d6000803e3d6000fd5b50505050610af4565b600960009054906101000a90046001600160a01b03166001600160a01b0316638c52dc416040518163ffffffff1660e01b8152600401600060405180830381600087803b158015610adb57600080fd5b505af1158015610aef573d6000803e3d6000fd5b505050505b610af85b565b6001600160a01b038216610b3f5760405162461bcd60e51b815260040180806020018281038252602a815260200180610f23602a913960400191505060405180910390fd5b806103fb576040805162461bcd60e51b815260206004820152601960248201527f43726f776473616c653a20776569416d6f756e74206973203000000000000000604482015290519081900360640190fd5b600082610ba05750600061076d565b82820282848281610bad57fe5b04146107cd5760405162461bcd60e51b8152600401808060200182810382526021815260200180610eba6021913960400191505060405180910390fd5b6001546103fb906001600160a01b0316838363ffffffff610c0716565b604080516001600160a01b038416602482015260448082018490528251808303909101815260649091019091526020810180516001600160e01b031663a9059cbb60e01b179052610c59908490610c5e565b505050565b610c70826001600160a01b0316610e1c565b610cc1576040805162461bcd60e51b815260206004820152601f60248201527f5361666545524332303a2063616c6c20746f206e6f6e2d636f6e747261637400604482015290519081900360640190fd5b60006060836001600160a01b0316836040518082805190602001908083835b60208310610cff5780518252601f199092019160209182019101610ce0565b6001836020036101000a0380198251168184511680821785525050505050509050019150506000604051808303816000865af19150503d8060008114610d61576040519150601f19603f3d011682016040523d82523d6000602084013e610d66565b606091505b509150915081610dbd576040805162461bcd60e51b815260206004820181905260248201527f5361666545524332303a206c6f772d6c6576656c2063616c6c206661696c6564604482015290519081900360640190fd5b805115610e1657808060200190516020811015610dd957600080fd5b5051610e165760405162461bcd60e51b815260040180806020018281038252602a815260200180610f90602a913960400191505060405180910390fd5b50505050565b3b15159056fe526566756e6461626c65506f737444656c697665727943726f776473616c653a206e6f742066696e616c697a6564526566756e6461626c65506f737444656c697665727943726f776473616c653a20676f616c206e6f742072656163686564506f737444656c697665727943726f776473616c653a2062656e6566696369617279206973206e6f742064756520616e7920746f6b656e73536166654d6174683a206d756c7469706c69636174696f6e206f766572666c6f7746696e616c697a61626c6543726f776473616c653a20616c72656164792066696e616c697a6564526566756e6461626c6543726f776473616c653a20676f616c207265616368656443726f776473616c653a2062656e656669636961727920697320746865207a65726f2061646472657373506f737444656c697665727943726f776473616c653a206e6f7420636c6f736564526566756e6461626c6543726f776473616c653a206e6f742066696e616c697a65645361666545524332303a204552433230206f7065726174696f6e20646964206e6f742073756363656564a265627a7a72315820967be8e0b06eb9181819ba8228405794d0d040036dc5476aa007259d37eb860c64736f6c63430005100032608060405234801561001057600080fd5b50604051610b48380380610b488339818101604052602081101561003357600080fd5b5051600080546001600160a01b031916331790819055604080516001600160a01b03929092168252517f4101e71e974f68df5e9730cc223280b41654676bbb052cdcc735c3337e64d2d99181900360200190a16001600160a01b0381166100cb5760405162461bcd60e51b815260040180806020018281038252602d815260200180610b1b602d913960400191505060405180910390fd5b6002805460ff196001600160a01b039390931661010002610100600160a81b031990911617919091169055610a16806101056000396000f3fe60806040526004361061009c5760003560e01c80638c52dc41116100645780638c52dc41146101965780639af6549a146101ab578063c19d93fb146101c0578063c6dbdf61146101f9578063e3a9db1a1461020e578063f340fa01146102535761009c565b80632348238c146100a157806338af3eed146100d657806343d726d61461010757806351cff8d91461011c578063685ca1941461014f575b600080fd5b3480156100ad57600080fd5b506100d4600480360360208110156100c457600080fd5b50356001600160a01b0316610279565b005b3480156100e257600080fd5b506100eb610361565b604080516001600160a01b039092168252519081900360200190f35b34801561011357600080fd5b506100d4610375565b34801561012857600080fd5b506100d46004803603602081101561013f57600080fd5b50356001600160a01b0316610444565b34801561015b57600080fd5b506101826004803603602081101561017257600080fd5b50356001600160a01b0316610494565b604080519115158252519081900360200190f35b3480156101a257600080fd5b506100d46104b0565b3480156101b757600080fd5b506100d4610580565b3480156101cc57600080fd5b506101d561060d565b604051808260028111156101e557fe5b60ff16815260200191505060405180910390f35b34801561020557600080fd5b506100eb610616565b34801561021a57600080fd5b506102416004803603602081101561023157600080fd5b50356001600160a01b0316610625565b60408051918252519081900360200190f35b6100d46004803603602081101561026957600080fd5b50356001600160a01b0316610640565b6000546001600160a01b031633146102c25760405162461bcd60e51b815260040180806020018281038252602c815260200180610984602c913960400191505060405180910390fd5b6001600160a01b0381166103075760405162461bcd60e51b815260040180806020018281038252602a81526020018061095a602a913960400191505060405180910390fd5b600080546001600160a01b0319166001600160a01b03838116919091179182905560408051929091168252517f4101e71e974f68df5e9730cc223280b41654676bbb052cdcc735c3337e64d2d9916020908290030190a150565b60025461010090046001600160a01b031690565b6000546001600160a01b031633146103be5760405162461bcd60e51b815260040180806020018281038252602c815260200180610984602c913960400191505060405180910390fd5b60006002805460ff16908111156103d157fe5b1461040d5760405162461bcd60e51b81526004018080602001828103825260298152602001806109316029913960400191505060405180910390fd5b6002805460ff1916811790556040517f088672c3a6e342f7cd94a65ba63b79df24a8973927b4d05d803c44bbf787d12f90600090a1565b61044d81610494565b6104885760405162461bcd60e51b81526004018080602001828103825260338152602001806108fe6033913960400191505060405180910390fd5b61049181610698565b50565b600060016002805460ff16908111156104a957fe5b1492915050565b6000546001600160a01b031633146104f95760405162461bcd60e51b815260040180806020018281038252602c815260200180610984602c913960400191505060405180910390fd5b60006002805460ff169081111561050c57fe5b146105485760405162461bcd60e51b81526004018080602001828103825260328152602001806109b06032913960400191505060405180910390fd5b6002805460ff191660011790556040517f599d8e5a83cffb867d051598c4d70e805d59802d8081c1c7d6dffc5b6aca2b8990600090a1565b6002805460ff168181111561059157fe5b146105cd5760405162461bcd60e51b815260040180806020018281038252603881526020018061089b6038913960400191505060405180910390fd5b6002546040516001600160a01b0361010090920491909116904780156108fc02916000818181858888f19350505050158015610491573d6000803e3d6000fd5b60025460ff1690565b6000546001600160a01b031690565b6001600160a01b031660009081526001602052604090205490565b60006002805460ff169081111561065357fe5b1461068f5760405162461bcd60e51b815260040180806020018281038252602b8152602001806108d3602b913960400191505060405180910390fd5b6104918161076f565b6000546001600160a01b031633146106e15760405162461bcd60e51b815260040180806020018281038252602c815260200180610984602c913960400191505060405180910390fd5b6001600160a01b038116600081815260016020526040808220805490839055905190929183156108fc02918491818181858888f1935050505015801561072b573d6000803e3d6000fd5b506040805182815290516001600160a01b038416917f7084f5476618d8e60b11ef0d7d3f06914655adb8793e28ff7f018d4c76d505d5919081900360200190a25050565b6000546001600160a01b031633146107b85760405162461bcd60e51b815260040180806020018281038252602c815260200180610984602c913960400191505060405180910390fd5b6001600160a01b03811660009081526001602052604090205434906107e3908263ffffffff61083916565b6001600160a01b038316600081815260016020908152604091829020939093558051848152905191927f2da466a7b24304f47e87fa2e1e5a81b9831ce54fec19055ce277ca2f39ba42c492918290030190a25050565b600082820183811015610893576040805162461bcd60e51b815260206004820152601b60248201527f536166654d6174683a206164646974696f6e206f766572666c6f770000000000604482015290519081900360640190fd5b939250505056fe526566756e64457363726f773a2062656e65666963696172792063616e206f6e6c79207769746864726177207768696c6520636c6f736564526566756e64457363726f773a2063616e206f6e6c79206465706f736974207768696c6520616374697665436f6e646974696f6e616c457363726f773a207061796565206973206e6f7420616c6c6f77656420746f207769746864726177526566756e64457363726f773a2063616e206f6e6c7920636c6f7365207768696c65206163746976655365636f6e646172793a206e6577207072696d61727920697320746865207a65726f20616464726573735365636f6e646172793a2063616c6c6572206973206e6f7420746865207072696d617279206163636f756e74526566756e64457363726f773a2063616e206f6e6c7920656e61626c6520726566756e6473207768696c6520616374697665a265627a7a7231582016144f122863987db1ef533f2e8737e4dc485751f6a0e0335e952210e02615fa64736f6c63430005100032526566756e64457363726f773a2062656e656669636961727920697320746865207a65726f206164647265737360806040819052600080546001600160a01b0319163317908190556001600160a01b031681527f4101e71e974f68df5e9730cc223280b41654676bbb052cdcc735c3337e64d2d990602090a16103248061005a6000396000f3fe608060405234801561001057600080fd5b50600436106100415760003560e01c80632348238c14610046578063beabacc81461006e578063c6dbdf61146100a4575b600080fd5b61006c6004803603602081101561005c57600080fd5b50356001600160a01b03166100c8565b005b61006c6004803603606081101561008457600080fd5b506001600160a01b038135811691602081013590911690604001356101b0565b6100ac61028a565b604080516001600160a01b039092168252519081900360200190f35b6000546001600160a01b031633146101115760405162461bcd60e51b815260040180806020018281038252602c8152602001806102c4602c913960400191505060405180910390fd5b6001600160a01b0381166101565760405162461bcd60e51b815260040180806020018281038252602a81526020018061029a602a913960400191505060405180910390fd5b600080546001600160a01b0319166001600160a01b03838116919091179182905560408051929091168252517f4101e71e974f68df5e9730cc223280b41654676bbb052cdcc735c3337e64d2d9916020908290030190a150565b6000546001600160a01b031633146101f95760405162461bcd60e51b815260040180806020018281038252602c8152602001806102c4602c913960400191505060405180910390fd5b826001600160a01b031663a9059cbb83836040518363ffffffff1660e01b815260040180836001600160a01b03166001600160a01b0316815260200182815260200192505050602060405180830381600087803b15801561025957600080fd5b505af115801561026d573d6000803e3d6000fd5b505050506040513d602081101561028357600080fd5b5050505050565b6000546001600160a01b03169056fe5365636f6e646172793a206e6577207072696d61727920697320746865207a65726f20616464726573735365636f6e646172793a2063616c6c6572206973206e6f7420746865207072696d617279206163636f756e74a265627a7a72315820adff02c7b8cad3247dac64af34d23ebdc32f2a19d11eee1e9d0136dd1c9a74b564736f6c6343000510003254696d656443726f776473616c653a206f70656e696e672074696d65206973206265666f72652063757272656e742074696d6554696d656443726f776473616c653a206f70656e696e672074696d65206973206e6f74206265666f726520636c6f73696e672074696d6543726f776473616c653a20746f6b656e20697320746865207a65726f206164647265737343726f776473616c653a2077616c6c657420697320746865207a65726f2061646472657373",
  "source": "pragma solidity ^0.5.0;\n\nimport \"../token/ERC20/IERC20.sol\";\nimport \"../crowdsale/distribution/RefundablePostDeliveryCrowdsale.sol\";\n\ncontract RefundablePostDeliveryCrowdsaleImpl is RefundablePostDeliveryCrowdsale {\n    constructor (\n        uint256 openingTime,\n        uint256 closingTime,\n        uint256 rate,\n        address payable wallet,\n        IERC20 token,\n        uint256 goal\n    )\n        public\n        Crowdsale(rate, wallet, token)\n        TimedCrowdsale(openingTime, closingTime)\n        RefundableCrowdsale(goal)\n    {\n        // solhint-disable-previous-line no-empty-blocks\n    }\n}\n",
  "sourcePath": "/home/grifma/Code/vi-admin-ui/contracts/lib/openzeppelin-solidity/contracts/mocks/RefundablePostDeliveryCrowdsaleImpl.sol",
  "compiler": {
    "name": "solc",
    "version": "0.5.16+commit.9c3226ce.Emscripten.clang"
  },
  "schemaVersion": "3.0.23",
  "updatedAt": "2020-05-14T20:26:11.314Z",
  "devdoc": {
    "methods": {
      "balanceOf(address)": {
        "return": "the balance of an account."
      },
      "buyTokens(address)": {
        "details": "low level token purchase ***DO NOT OVERRIDE*** This function has a non-reentrancy guard, so it shouldn't be called by another `nonReentrant` function.",
        "params": {
          "beneficiary": "Recipient of the token purchase"
        }
      },
      "claimRefund(address)": {
        "details": "Investors can claim refunds here if crowdsale is unsuccessful.",
        "params": {
          "refundee": "Whose refund will be claimed."
        }
      },
      "closingTime()": {
        "return": "the crowdsale closing time."
      },
      "finalize()": {
        "details": "Must be called after crowdsale ends, to do some extra finalization work. Calls the contract's finalization function."
      },
      "finalized()": {
        "return": "true if the crowdsale is finalized, false otherwise."
      },
      "goal()": {
        "return": "minimum amount of funds to be raised in wei."
      },
      "goalReached()": {
        "details": "Checks whether funding goal was reached.",
        "return": "Whether funding goal was reached"
      },
      "hasClosed()": {
        "details": "Checks whether the period in which the crowdsale is open has already elapsed.",
        "return": "Whether crowdsale period has elapsed"
      },
      "isOpen()": {
        "return": "true if the crowdsale is open, false otherwise."
      },
      "openingTime()": {
        "return": "the crowdsale opening time."
      },
      "rate()": {
        "return": "the number of token units a buyer gets per wei."
      },
      "token()": {
        "return": "the token being sold."
      },
      "wallet()": {
        "return": "the address where funds are collected."
      },
      "weiRaised()": {
        "return": "the amount of wei raised."
      }
    }
  },
  "userdoc": {
    "methods": {}
  }
}