{
  "contractName": "RefundableCrowdsaleImpl",
  "abi": [
    {
      "inputs": [
        {
          "internalType": "uint256",
          "name": "openingTime",
          "type": "uint256"
        },
        {
          "internalType": "uint256",
          "name": "closingTime",
          "type": "uint256"
        },
        {
          "internalType": "uint256",
          "name": "rate",
          "type": "uint256"
        },
        {
          "internalType": "address payable",
          "name": "wallet",
          "type": "address"
        },
        {
          "internalType": "contract IERC20",
          "name": "token",
          "type": "address"
        },
        {
          "internalType": "uint256",
          "name": "goal",
          "type": "uint256"
        }
      ],
      "payable": false,
      "stateMutability": "nonpayable",
      "type": "constructor"
    },
    {
      "anonymous": false,
      "inputs": [],
      "name": "CrowdsaleFinalized",
      "type": "event"
    },
    {
      "anonymous": false,
      "inputs": [
        {
          "indexed": false,
          "internalType": "uint256",
          "name": "prevClosingTime",
          "type": "uint256"
        },
        {
          "indexed": false,
          "internalType": "uint256",
          "name": "newClosingTime",
          "type": "uint256"
        }
      ],
      "name": "TimedCrowdsaleExtended",
      "type": "event"
    },
    {
      "anonymous": false,
      "inputs": [
        {
          "indexed": true,
          "internalType": "address",
          "name": "purchaser",
          "type": "address"
        },
        {
          "indexed": true,
          "internalType": "address",
          "name": "beneficiary",
          "type": "address"
        },
        {
          "indexed": false,
          "internalType": "uint256",
          "name": "value",
          "type": "uint256"
        },
        {
          "indexed": false,
          "internalType": "uint256",
          "name": "amount",
          "type": "uint256"
        }
      ],
      "name": "TokensPurchased",
      "type": "event"
    },
    {
      "payable": true,
      "stateMutability": "payable",
      "type": "fallback"
    },
    {
      "constant": false,
      "inputs": [
        {
          "internalType": "address",
          "name": "beneficiary",
          "type": "address"
        }
      ],
      "name": "buyTokens",
      "outputs": [],
      "payable": true,
      "stateMutability": "payable",
      "type": "function"
    },
    {
      "constant": false,
      "inputs": [
        {
          "internalType": "address payable",
          "name": "refundee",
          "type": "address"
        }
      ],
      "name": "claimRefund",
      "outputs": [],
      "payable": false,
      "stateMutability": "nonpayable",
      "type": "function"
    },
    {
      "constant": true,
      "inputs": [],
      "name": "closingTime",
      "outputs": [
        {
          "internalType": "uint256",
          "name": "",
          "type": "uint256"
        }
      ],
      "payable": false,
      "stateMutability": "view",
      "type": "function"
    },
    {
      "constant": false,
      "inputs": [],
      "name": "finalize",
      "outputs": [],
      "payable": false,
      "stateMutability": "nonpayable",
      "type": "function"
    },
    {
      "constant": true,
      "inputs": [],
      "name": "finalized",
      "outputs": [
        {
          "internalType": "bool",
          "name": "",
          "type": "bool"
        }
      ],
      "payable": false,
      "stateMutability": "view",
      "type": "function"
    },
    {
      "constant": true,
      "inputs": [],
      "name": "goal",
      "outputs": [
        {
          "internalType": "uint256",
          "name": "",
          "type": "uint256"
        }
      ],
      "payable": false,
      "stateMutability": "view",
      "type": "function"
    },
    {
      "constant": true,
      "inputs": [],
      "name": "goalReached",
      "outputs": [
        {
          "internalType": "bool",
          "name": "",
          "type": "bool"
        }
      ],
      "payable": false,
      "stateMutability": "view",
      "type": "function"
    },
    {
      "constant": true,
      "inputs": [],
      "name": "hasClosed",
      "outputs": [
        {
          "internalType": "bool",
          "name": "",
          "type": "bool"
        }
      ],
      "payable": false,
      "stateMutability": "view",
      "type": "function"
    },
    {
      "constant": true,
      "inputs": [],
      "name": "isOpen",
      "outputs": [
        {
          "internalType": "bool",
          "name": "",
          "type": "bool"
        }
      ],
      "payable": false,
      "stateMutability": "view",
      "type": "function"
    },
    {
      "constant": true,
      "inputs": [],
      "name": "openingTime",
      "outputs": [
        {
          "internalType": "uint256",
          "name": "",
          "type": "uint256"
        }
      ],
      "payable": false,
      "stateMutability": "view",
      "type": "function"
    },
    {
      "constant": true,
      "inputs": [],
      "name": "rate",
      "outputs": [
        {
          "internalType": "uint256",
          "name": "",
          "type": "uint256"
        }
      ],
      "payable": false,
      "stateMutability": "view",
      "type": "function"
    },
    {
      "constant": true,
      "inputs": [],
      "name": "token",
      "outputs": [
        {
          "internalType": "contract IERC20",
          "name": "",
          "type": "address"
        }
      ],
      "payable": false,
      "stateMutability": "view",
      "type": "function"
    },
    {
      "constant": true,
      "inputs": [],
      "name": "wallet",
      "outputs": [
        {
          "internalType": "address payable",
          "name": "",
          "type": "address"
        }
      ],
      "payable": false,
      "stateMutability": "view",
      "type": "function"
    },
    {
      "constant": true,
      "inputs": [],
      "name": "weiRaised",
      "outputs": [
        {
          "internalType": "uint256",
          "name": "",
          "type": "uint256"
        }
      ],
      "payable": false,
      "stateMutability": "view",
      "type": "function"
    }
  ],
  "bytecode": "0x608060405234801561001057600080fd5b5060405162001b8a38038062001b8a833981810160405260c081101561003557600080fd5b508051602082015160408301516060840151608085015160a09095015160016000559394929391929091808686868686826100b7576040805162461bcd60e51b815260206004820152601460248201527f43726f776473616c653a20726174652069732030000000000000000000000000604482015290519081900360640190fd5b6001600160a01b0382166100fd5760405162461bcd60e51b815260040180806020018281038252602581526020018062001b656025913960400191505060405180910390fd5b6001600160a01b0381166101435760405162461bcd60e51b815260040180806020018281038252602481526020018062001b416024913960400191505060405180910390fd5b600392909255600280546001600160a01b039283166001600160a01b03199182161790915560018054929093169116179055428210156101b55760405162461bcd60e51b815260040180806020018281038252603381526020018062001ad76033913960400191505060405180910390fd5b8181116101f45760405162461bcd60e51b815260040180806020018281038252603781526020018062001b0a6037913960400191505060405180910390fd5b6005919091556006556007805460ff1916905580610259576040805162461bcd60e51b815260206004820152601e60248201527f526566756e6461626c6543726f776473616c653a20676f616c20697320300000604482015290519081900360640190fd5b61026a6001600160e01b036102d316565b604051610276906102e2565b6001600160a01b03909116815260405190819003602001906000f0801580156102a3573d6000803e3d6000fd5b50600980546001600160a01b0319166001600160a01b0392909216919091179055600855506102f0945050505050565b6002546001600160a01b031690565b610b488062000f8f83390190565b610c8f80620003006000396000f3fe6080604052600436106100dd5760003560e01c8063521eb2731161007f578063b7a8807c11610059578063b7a8807c146101fc578063bffa55d514610211578063ec8ac4d814610244578063fc0c546a1461026a576100dd565b8063521eb273146101a15780637d3d6522146101d2578063b3f05b97146101e7576100dd565b80634042b66f116100bb5780634042b66f1461014d57806347535d7b146101625780634b6753bc146101775780634bb278f31461018c576100dd565b80631515bc2b146100e85780632c4e722e146101115780634019388314610138575b6100e63361027f565b005b3480156100f457600080fd5b506100fd610383565b604080519115158252519081900360200190f35b34801561011d57600080fd5b5061012661038b565b60408051918252519081900360200190f35b34801561014457600080fd5b50610126610391565b34801561015957600080fd5b50610126610397565b34801561016e57600080fd5b506100fd61039d565b34801561018357600080fd5b506101266103b8565b34801561019857600080fd5b506100e66103be565b3480156101ad57600080fd5b506101b6610499565b604080516001600160a01b039092168252519081900360200190f35b3480156101de57600080fd5b506100fd6104a8565b3480156101f357600080fd5b506100fd6104bc565b34801561020857600080fd5b506101266104c5565b34801561021d57600080fd5b506100e66004803603602081101561023457600080fd5b50356001600160a01b03166104cb565b6100e66004803603602081101561025a57600080fd5b50356001600160a01b031661027f565b34801561027657600080fd5b506101b66105bb565b60008054600101908190553461029583826105ca565b60006102a08261062d565b6004549091506102b6908363ffffffff61064a16565b6004556102c384826106ab565b604080518381526020810183905281516001600160a01b0387169233927f6faf93231a456e552dbc9961f58d9713ee4f2e69d15f1975b050ef0911053a7b929081900390910190a3610315848361037f565b61031d6106b5565b610327848361037f565b5050600054811461037f576040805162461bcd60e51b815260206004820152601f60248201527f5265656e7472616e637947756172643a207265656e7472616e742063616c6c00604482015290519081900360640190fd5b5050565b600654421190565b60035490565b60085490565b60045490565b600060055442101580156103b357506006544211155b905090565b60065490565b60075460ff16156104005760405162461bcd60e51b8152600401808060200182810382526027815260200180610b9d6027913960400191505060405180910390fd5b610408610383565b610459576040805162461bcd60e51b815260206004820181905260248201527f46696e616c697a61626c6543726f776473616c653a206e6f7420636c6f736564604482015290519081900360640190fd5b6007805460ff1916600117905561046e610702565b6040517f9270cc390c096600a1c17c44345a1ba689fafd99d97487b10cfccf86cf73183690600090a1565b6002546001600160a01b031690565b60006008546104b5610397565b1015905090565b60075460ff1690565b60055490565b6104d36104bc565b61050e5760405162461bcd60e51b8152600401808060200182810382526022815260200180610c0f6022913960400191505060405180910390fd5b6105166104a8565b156105525760405162461bcd60e51b8152600401808060200182810382526021815260200180610bc46021913960400191505060405180910390fd5b600954604080516351cff8d960e01b81526001600160a01b038481166004830152915191909216916351cff8d991602480830192600092919082900301818387803b1580156105a057600080fd5b505af11580156105b4573d6000803e3d6000fd5b5050505050565b6001546001600160a01b031690565b6105d261039d565b610623576040805162461bcd60e51b815260206004820152601860248201527f54696d656443726f776473616c653a206e6f74206f70656e0000000000000000604482015290519081900360640190fd5b61037f8282610853565b6000610644600354836108ea90919063ffffffff16565b92915050565b6000828201838110156106a4576040805162461bcd60e51b815260206004820152601b60248201527f536166654d6174683a206164646974696f6e206f766572666c6f770000000000604482015290519081900360640190fd5b9392505050565b61037f8282610943565b6009546040805163f340fa0160e01b815233600482015290516001600160a01b039092169163f340fa01913491602480830192600092919082900301818588803b1580156105a057600080fd5b61070a6104a8565b156107e457600960009054906101000a90046001600160a01b03166001600160a01b03166343d726d66040518163ffffffff1660e01b8152600401600060405180830381600087803b15801561075f57600080fd5b505af1158015610773573d6000803e3d6000fd5b50505050600960009054906101000a90046001600160a01b03166001600160a01b0316639af6549a6040518163ffffffff1660e01b8152600401600060405180830381600087803b1580156107c757600080fd5b505af11580156107db573d6000803e3d6000fd5b5050505061084d565b600960009054906101000a90046001600160a01b03166001600160a01b0316638c52dc416040518163ffffffff1660e01b8152600401600060405180830381600087803b15801561083457600080fd5b505af1158015610848573d6000803e3d6000fd5b505050505b6108515b565b6001600160a01b0382166108985760405162461bcd60e51b815260040180806020018281038252602a815260200180610be5602a913960400191505060405180910390fd5b8061037f576040805162461bcd60e51b815260206004820152601960248201527f43726f776473616c653a20776569416d6f756e74206973203000000000000000604482015290519081900360640190fd5b6000826108f957506000610644565b8282028284828161090657fe5b04146106a45760405162461bcd60e51b8152600401808060200182810382526021815260200180610b7c6021913960400191505060405180910390fd5b60015461037f906001600160a01b0316838363ffffffff61096016565b604080516001600160a01b038416602482015260448082018490528251808303909101815260649091019091526020810180516001600160e01b031663a9059cbb60e01b1790526109b29084906109b7565b505050565b6109c9826001600160a01b0316610b75565b610a1a576040805162461bcd60e51b815260206004820152601f60248201527f5361666545524332303a2063616c6c20746f206e6f6e2d636f6e747261637400604482015290519081900360640190fd5b60006060836001600160a01b0316836040518082805190602001908083835b60208310610a585780518252601f199092019160209182019101610a39565b6001836020036101000a0380198251168184511680821785525050505050509050019150506000604051808303816000865af19150503d8060008114610aba576040519150601f19603f3d011682016040523d82523d6000602084013e610abf565b606091505b509150915081610b16576040805162461bcd60e51b815260206004820181905260248201527f5361666545524332303a206c6f772d6c6576656c2063616c6c206661696c6564604482015290519081900360640190fd5b805115610b6f57808060200190516020811015610b3257600080fd5b5051610b6f5760405162461bcd60e51b815260040180806020018281038252602a815260200180610c31602a913960400191505060405180910390fd5b50505050565b3b15159056fe536166654d6174683a206d756c7469706c69636174696f6e206f766572666c6f7746696e616c697a61626c6543726f776473616c653a20616c72656164792066696e616c697a6564526566756e6461626c6543726f776473616c653a20676f616c207265616368656443726f776473616c653a2062656e656669636961727920697320746865207a65726f2061646472657373526566756e6461626c6543726f776473616c653a206e6f742066696e616c697a65645361666545524332303a204552433230206f7065726174696f6e20646964206e6f742073756363656564a265627a7a723158209127fd61d5f054ad28d8f7c7a87cbd8fbc04a9d1bc076e42edc8b8cc54c9579b64736f6c63430005100032608060405234801561001057600080fd5b50604051610b48380380610b488339818101604052602081101561003357600080fd5b5051600080546001600160a01b031916331790819055604080516001600160a01b03929092168252517f4101e71e974f68df5e9730cc223280b41654676bbb052cdcc735c3337e64d2d99181900360200190a16001600160a01b0381166100cb5760405162461bcd60e51b815260040180806020018281038252602d815260200180610b1b602d913960400191505060405180910390fd5b6002805460ff196001600160a01b039390931661010002610100600160a81b031990911617919091169055610a16806101056000396000f3fe60806040526004361061009c5760003560e01c80638c52dc41116100645780638c52dc41146101965780639af6549a146101ab578063c19d93fb146101c0578063c6dbdf61146101f9578063e3a9db1a1461020e578063f340fa01146102535761009c565b80632348238c146100a157806338af3eed146100d657806343d726d61461010757806351cff8d91461011c578063685ca1941461014f575b600080fd5b3480156100ad57600080fd5b506100d4600480360360208110156100c457600080fd5b50356001600160a01b0316610279565b005b3480156100e257600080fd5b506100eb610361565b604080516001600160a01b039092168252519081900360200190f35b34801561011357600080fd5b506100d4610375565b34801561012857600080fd5b506100d46004803603602081101561013f57600080fd5b50356001600160a01b0316610444565b34801561015b57600080fd5b506101826004803603602081101561017257600080fd5b50356001600160a01b0316610494565b604080519115158252519081900360200190f35b3480156101a257600080fd5b506100d46104b0565b3480156101b757600080fd5b506100d4610580565b3480156101cc57600080fd5b506101d561060d565b604051808260028111156101e557fe5b60ff16815260200191505060405180910390f35b34801561020557600080fd5b506100eb610616565b34801561021a57600080fd5b506102416004803603602081101561023157600080fd5b50356001600160a01b0316610625565b60408051918252519081900360200190f35b6100d46004803603602081101561026957600080fd5b50356001600160a01b0316610640565b6000546001600160a01b031633146102c25760405162461bcd60e51b815260040180806020018281038252602c815260200180610984602c913960400191505060405180910390fd5b6001600160a01b0381166103075760405162461bcd60e51b815260040180806020018281038252602a81526020018061095a602a913960400191505060405180910390fd5b600080546001600160a01b0319166001600160a01b03838116919091179182905560408051929091168252517f4101e71e974f68df5e9730cc223280b41654676bbb052cdcc735c3337e64d2d9916020908290030190a150565b60025461010090046001600160a01b031690565b6000546001600160a01b031633146103be5760405162461bcd60e51b815260040180806020018281038252602c815260200180610984602c913960400191505060405180910390fd5b60006002805460ff16908111156103d157fe5b1461040d5760405162461bcd60e51b81526004018080602001828103825260298152602001806109316029913960400191505060405180910390fd5b6002805460ff1916811790556040517f088672c3a6e342f7cd94a65ba63b79df24a8973927b4d05d803c44bbf787d12f90600090a1565b61044d81610494565b6104885760405162461bcd60e51b81526004018080602001828103825260338152602001806108fe6033913960400191505060405180910390fd5b61049181610698565b50565b600060016002805460ff16908111156104a957fe5b1492915050565b6000546001600160a01b031633146104f95760405162461bcd60e51b815260040180806020018281038252602c815260200180610984602c913960400191505060405180910390fd5b60006002805460ff169081111561050c57fe5b146105485760405162461bcd60e51b81526004018080602001828103825260328152602001806109b06032913960400191505060405180910390fd5b6002805460ff191660011790556040517f599d8e5a83cffb867d051598c4d70e805d59802d8081c1c7d6dffc5b6aca2b8990600090a1565b6002805460ff168181111561059157fe5b146105cd5760405162461bcd60e51b815260040180806020018281038252603881526020018061089b6038913960400191505060405180910390fd5b6002546040516001600160a01b0361010090920491909116904780156108fc02916000818181858888f19350505050158015610491573d6000803e3d6000fd5b60025460ff1690565b6000546001600160a01b031690565b6001600160a01b031660009081526001602052604090205490565b60006002805460ff169081111561065357fe5b1461068f5760405162461bcd60e51b815260040180806020018281038252602b8152602001806108d3602b913960400191505060405180910390fd5b6104918161076f565b6000546001600160a01b031633146106e15760405162461bcd60e51b815260040180806020018281038252602c815260200180610984602c913960400191505060405180910390fd5b6001600160a01b038116600081815260016020526040808220805490839055905190929183156108fc02918491818181858888f1935050505015801561072b573d6000803e3d6000fd5b506040805182815290516001600160a01b038416917f7084f5476618d8e60b11ef0d7d3f06914655adb8793e28ff7f018d4c76d505d5919081900360200190a25050565b6000546001600160a01b031633146107b85760405162461bcd60e51b815260040180806020018281038252602c815260200180610984602c913960400191505060405180910390fd5b6001600160a01b03811660009081526001602052604090205434906107e3908263ffffffff61083916565b6001600160a01b038316600081815260016020908152604091829020939093558051848152905191927f2da466a7b24304f47e87fa2e1e5a81b9831ce54fec19055ce277ca2f39ba42c492918290030190a25050565b600082820183811015610893576040805162461bcd60e51b815260206004820152601b60248201527f536166654d6174683a206164646974696f6e206f766572666c6f770000000000604482015290519081900360640190fd5b939250505056fe526566756e64457363726f773a2062656e65666963696172792063616e206f6e6c79207769746864726177207768696c6520636c6f736564526566756e64457363726f773a2063616e206f6e6c79206465706f736974207768696c6520616374697665436f6e646974696f6e616c457363726f773a207061796565206973206e6f7420616c6c6f77656420746f207769746864726177526566756e64457363726f773a2063616e206f6e6c7920636c6f7365207768696c65206163746976655365636f6e646172793a206e6577207072696d61727920697320746865207a65726f20616464726573735365636f6e646172793a2063616c6c6572206973206e6f7420746865207072696d617279206163636f756e74526566756e64457363726f773a2063616e206f6e6c7920656e61626c6520726566756e6473207768696c6520616374697665a265627a7a7231582016144f122863987db1ef533f2e8737e4dc485751f6a0e0335e952210e02615fa64736f6c63430005100032526566756e64457363726f773a2062656e656669636961727920697320746865207a65726f206164647265737354696d656443726f776473616c653a206f70656e696e672074696d65206973206265666f72652063757272656e742074696d6554696d656443726f776473616c653a206f70656e696e672074696d65206973206e6f74206265666f726520636c6f73696e672074696d6543726f776473616c653a20746f6b656e20697320746865207a65726f206164647265737343726f776473616c653a2077616c6c657420697320746865207a65726f2061646472657373",
  "source": "pragma solidity ^0.5.0;\n\nimport \"../token/ERC20/IERC20.sol\";\nimport \"../crowdsale/distribution/RefundableCrowdsale.sol\";\n\ncontract RefundableCrowdsaleImpl is RefundableCrowdsale {\n    constructor (\n        uint256 openingTime,\n        uint256 closingTime,\n        uint256 rate,\n        address payable wallet,\n        IERC20 token,\n        uint256 goal\n    )\n        public\n        Crowdsale(rate, wallet, token)\n        TimedCrowdsale(openingTime, closingTime)\n        RefundableCrowdsale(goal)\n    {\n        // solhint-disable-previous-line no-empty-blocks\n    }\n}\n",
  "sourcePath": "/home/grifma/Code/vi-admin-ui/contracts/lib/openzeppelin-solidity/contracts/mocks/RefundableCrowdsaleImpl.sol",
  "compiler": {
    "name": "solc",
    "version": "0.5.16+commit.9c3226ce.Emscripten.clang"
  },
  "schemaVersion": "3.0.23",
  "updatedAt": "2020-05-14T20:26:11.312Z",
  "devdoc": {
    "methods": {
      "buyTokens(address)": {
        "details": "low level token purchase ***DO NOT OVERRIDE*** This function has a non-reentrancy guard, so it shouldn't be called by another `nonReentrant` function.",
        "params": {
          "beneficiary": "Recipient of the token purchase"
        }
      },
      "claimRefund(address)": {
        "details": "Investors can claim refunds here if crowdsale is unsuccessful.",
        "params": {
          "refundee": "Whose refund will be claimed."
        }
      },
      "closingTime()": {
        "return": "the crowdsale closing time."
      },
      "finalize()": {
        "details": "Must be called after crowdsale ends, to do some extra finalization work. Calls the contract's finalization function."
      },
      "finalized()": {
        "return": "true if the crowdsale is finalized, false otherwise."
      },
      "goal()": {
        "return": "minimum amount of funds to be raised in wei."
      },
      "goalReached()": {
        "details": "Checks whether funding goal was reached.",
        "return": "Whether funding goal was reached"
      },
      "hasClosed()": {
        "details": "Checks whether the period in which the crowdsale is open has already elapsed.",
        "return": "Whether crowdsale period has elapsed"
      },
      "isOpen()": {
        "return": "true if the crowdsale is open, false otherwise."
      },
      "openingTime()": {
        "return": "the crowdsale opening time."
      },
      "rate()": {
        "return": "the number of token units a buyer gets per wei."
      },
      "token()": {
        "return": "the token being sold."
      },
      "wallet()": {
        "return": "the address where funds are collected."
      },
      "weiRaised()": {
        "return": "the amount of wei raised."
      }
    }
  },
  "userdoc": {
    "methods": {}
  }
}