{
  "contractName": "SampleCrowdsale",
  "abi": [
    {
      "inputs": [
        {
          "internalType": "uint256",
          "name": "openingTime",
          "type": "uint256"
        },
        {
          "internalType": "uint256",
          "name": "closingTime",
          "type": "uint256"
        },
        {
          "internalType": "uint256",
          "name": "rate",
          "type": "uint256"
        },
        {
          "internalType": "address payable",
          "name": "wallet",
          "type": "address"
        },
        {
          "internalType": "uint256",
          "name": "cap",
          "type": "uint256"
        },
        {
          "internalType": "contract ERC20Mintable",
          "name": "token",
          "type": "address"
        },
        {
          "internalType": "uint256",
          "name": "goal",
          "type": "uint256"
        }
      ],
      "payable": false,
      "stateMutability": "nonpayable",
      "type": "constructor"
    },
    {
      "anonymous": false,
      "inputs": [],
      "name": "CrowdsaleFinalized",
      "type": "event"
    },
    {
      "anonymous": false,
      "inputs": [
        {
          "indexed": false,
          "internalType": "uint256",
          "name": "prevClosingTime",
          "type": "uint256"
        },
        {
          "indexed": false,
          "internalType": "uint256",
          "name": "newClosingTime",
          "type": "uint256"
        }
      ],
      "name": "TimedCrowdsaleExtended",
      "type": "event"
    },
    {
      "anonymous": false,
      "inputs": [
        {
          "indexed": true,
          "internalType": "address",
          "name": "purchaser",
          "type": "address"
        },
        {
          "indexed": true,
          "internalType": "address",
          "name": "beneficiary",
          "type": "address"
        },
        {
          "indexed": false,
          "internalType": "uint256",
          "name": "value",
          "type": "uint256"
        },
        {
          "indexed": false,
          "internalType": "uint256",
          "name": "amount",
          "type": "uint256"
        }
      ],
      "name": "TokensPurchased",
      "type": "event"
    },
    {
      "payable": true,
      "stateMutability": "payable",
      "type": "fallback"
    },
    {
      "constant": false,
      "inputs": [
        {
          "internalType": "address",
          "name": "beneficiary",
          "type": "address"
        }
      ],
      "name": "buyTokens",
      "outputs": [],
      "payable": true,
      "stateMutability": "payable",
      "type": "function"
    },
    {
      "constant": true,
      "inputs": [],
      "name": "cap",
      "outputs": [
        {
          "internalType": "uint256",
          "name": "",
          "type": "uint256"
        }
      ],
      "payable": false,
      "stateMutability": "view",
      "type": "function"
    },
    {
      "constant": true,
      "inputs": [],
      "name": "capReached",
      "outputs": [
        {
          "internalType": "bool",
          "name": "",
          "type": "bool"
        }
      ],
      "payable": false,
      "stateMutability": "view",
      "type": "function"
    },
    {
      "constant": false,
      "inputs": [
        {
          "internalType": "address payable",
          "name": "refundee",
          "type": "address"
        }
      ],
      "name": "claimRefund",
      "outputs": [],
      "payable": false,
      "stateMutability": "nonpayable",
      "type": "function"
    },
    {
      "constant": true,
      "inputs": [],
      "name": "closingTime",
      "outputs": [
        {
          "internalType": "uint256",
          "name": "",
          "type": "uint256"
        }
      ],
      "payable": false,
      "stateMutability": "view",
      "type": "function"
    },
    {
      "constant": false,
      "inputs": [],
      "name": "finalize",
      "outputs": [],
      "payable": false,
      "stateMutability": "nonpayable",
      "type": "function"
    },
    {
      "constant": true,
      "inputs": [],
      "name": "finalized",
      "outputs": [
        {
          "internalType": "bool",
          "name": "",
          "type": "bool"
        }
      ],
      "payable": false,
      "stateMutability": "view",
      "type": "function"
    },
    {
      "constant": true,
      "inputs": [],
      "name": "goal",
      "outputs": [
        {
          "internalType": "uint256",
          "name": "",
          "type": "uint256"
        }
      ],
      "payable": false,
      "stateMutability": "view",
      "type": "function"
    },
    {
      "constant": true,
      "inputs": [],
      "name": "goalReached",
      "outputs": [
        {
          "internalType": "bool",
          "name": "",
          "type": "bool"
        }
      ],
      "payable": false,
      "stateMutability": "view",
      "type": "function"
    },
    {
      "constant": true,
      "inputs": [],
      "name": "hasClosed",
      "outputs": [
        {
          "internalType": "bool",
          "name": "",
          "type": "bool"
        }
      ],
      "payable": false,
      "stateMutability": "view",
      "type": "function"
    },
    {
      "constant": true,
      "inputs": [],
      "name": "isOpen",
      "outputs": [
        {
          "internalType": "bool",
          "name": "",
          "type": "bool"
        }
      ],
      "payable": false,
      "stateMutability": "view",
      "type": "function"
    },
    {
      "constant": true,
      "inputs": [],
      "name": "openingTime",
      "outputs": [
        {
          "internalType": "uint256",
          "name": "",
          "type": "uint256"
        }
      ],
      "payable": false,
      "stateMutability": "view",
      "type": "function"
    },
    {
      "constant": true,
      "inputs": [],
      "name": "rate",
      "outputs": [
        {
          "internalType": "uint256",
          "name": "",
          "type": "uint256"
        }
      ],
      "payable": false,
      "stateMutability": "view",
      "type": "function"
    },
    {
      "constant": true,
      "inputs": [],
      "name": "token",
      "outputs": [
        {
          "internalType": "contract IERC20",
          "name": "",
          "type": "address"
        }
      ],
      "payable": false,
      "stateMutability": "view",
      "type": "function"
    },
    {
      "constant": true,
      "inputs": [],
      "name": "wallet",
      "outputs": [
        {
          "internalType": "address payable",
          "name": "",
          "type": "address"
        }
      ],
      "payable": false,
      "stateMutability": "view",
      "type": "function"
    },
    {
      "constant": true,
      "inputs": [],
      "name": "weiRaised",
      "outputs": [
        {
          "internalType": "uint256",
          "name": "",
          "type": "uint256"
        }
      ],
      "payable": false,
      "stateMutability": "view",
      "type": "function"
    }
  ],
  "bytecode": "0x608060405234801561001057600080fd5b5060405162001b9e38038062001b9e833981810160405260e081101561003557600080fd5b508051602082015160408301516060840151608085015160a086015160c0909601516001600055949593949293919290919080878785888887826100c0576040805162461bcd60e51b815260206004820152601460248201527f43726f776473616c653a20726174652069732030000000000000000000000000604482015290519081900360640190fd5b6001600160a01b0382166101065760405162461bcd60e51b815260040180806020018281038252602581526020018062001b796025913960400191505060405180910390fd5b6001600160a01b03811661014c5760405162461bcd60e51b815260040180806020018281038252602481526020018062001b2c6024913960400191505060405180910390fd5b600392909255600280546001600160a01b039283166001600160a01b03199182161790915560018054929093169116179055806101d0576040805162461bcd60e51b815260206004820152601960248201527f43617070656443726f776473616c653a20636170206973203000000000000000604482015290519081900360640190fd5b600555428210156102135760405162461bcd60e51b815260040180806020018281038252603381526020018062001ac26033913960400191505060405180910390fd5b8181116102525760405162461bcd60e51b815260040180806020018281038252603781526020018062001af56037913960400191505060405180910390fd5b6006919091556007556008805460ff19169055806102b7576040805162461bcd60e51b815260206004820152601e60248201527f526566756e6461626c6543726f776473616c653a20676f616c20697320300000604482015290519081900360640190fd5b6102c86001600160e01b0361037116565b6040516102d490610380565b6001600160a01b03909116815260405190819003602001906000f080158015610301573d6000803e3d6000fd5b50600a80546001600160a01b0319166001600160a01b0392909216919091179055600955828111156103655760405162461bcd60e51b815260040180806020018281038252602981526020018062001b506029913960400191505060405180910390fd5b5050505050505061038e565b6002546001600160a01b031690565b610b488062000f7a83390190565b610bdc806200039e6000396000f3fe6080604052600436106100f35760003560e01c80634f9359451161008a578063b7a8807c11610059578063b7a8807c1461023c578063bffa55d514610251578063ec8ac4d814610284578063fc0c546a146102aa576100f3565b80634f935945146101cc578063521eb273146101e15780637d3d652214610212578063b3f05b9714610227576100f3565b80634042b66f116100c65780634042b66f1461017857806347535d7b1461018d5780634b6753bc146101a25780634bb278f3146101b7576100f3565b80631515bc2b146100fe5780632c4e722e14610127578063355274ea1461014e5780634019388314610163575b6100fc336102bf565b005b34801561010a57600080fd5b506101136103c3565b604080519115158252519081900360200190f35b34801561013357600080fd5b5061013c6103cb565b60408051918252519081900360200190f35b34801561015a57600080fd5b5061013c6103d1565b34801561016f57600080fd5b5061013c6103d7565b34801561018457600080fd5b5061013c6103dd565b34801561019957600080fd5b506101136103e3565b3480156101ae57600080fd5b5061013c6103fe565b3480156101c357600080fd5b506100fc610404565b3480156101d857600080fd5b506101136104df565b3480156101ed57600080fd5b506101f66104f3565b604080516001600160a01b039092168252519081900360200190f35b34801561021e57600080fd5b50610113610502565b34801561023357600080fd5b5061011361050f565b34801561024857600080fd5b5061013c610518565b34801561025d57600080fd5b506100fc6004803603602081101561027457600080fd5b50356001600160a01b031661051e565b6100fc6004803603602081101561029a57600080fd5b50356001600160a01b03166102bf565b3480156102b657600080fd5b506101f661060e565b6000805460010190819055346102d5838261061d565b60006102e082610680565b6004549091506102f6908363ffffffff61069d16565b60045561030384826106fe565b604080518381526020810183905281516001600160a01b0387169233927f6faf93231a456e552dbc9961f58d9713ee4f2e69d15f1975b050ef0911053a7b929081900390910190a361035584836103bf565b61035d610708565b61036784836103bf565b505060005481146103bf576040805162461bcd60e51b815260206004820152601f60248201527f5265656e7472616e637947756172643a207265656e7472616e742063616c6c00604482015290519081900360640190fd5b5050565b600754421190565b60035490565b60055490565b60095490565b60045490565b600060065442101580156103f957506007544211155b905090565b60075490565b60085460ff16156104465760405162461bcd60e51b8152600401808060200182810382526027815260200180610b146027913960400191505060405180910390fd5b61044e6103c3565b61049f576040805162461bcd60e51b815260206004820181905260248201527f46696e616c697a61626c6543726f776473616c653a206e6f7420636c6f736564604482015290519081900360640190fd5b6008805460ff191660011790556104b4610755565b6040517f9270cc390c096600a1c17c44345a1ba689fafd99d97487b10cfccf86cf73183690600090a1565b60006005546104ec6103dd565b1015905090565b6002546001600160a01b031690565b60006009546104ec6103dd565b60085460ff1690565b60065490565b61052661050f565b6105615760405162461bcd60e51b8152600401808060200182810382526022815260200180610b866022913960400191505060405180910390fd5b610569610502565b156105a55760405162461bcd60e51b8152600401808060200182810382526021815260200180610b3b6021913960400191505060405180910390fd5b600a54604080516351cff8d960e01b81526001600160a01b038481166004830152915191909216916351cff8d991602480830192600092919082900301818387803b1580156105f357600080fd5b505af1158015610607573d6000803e3d6000fd5b5050505050565b6001546001600160a01b031690565b6106256103e3565b610676576040805162461bcd60e51b815260206004820152601860248201527f54696d656443726f776473616c653a206e6f74206f70656e0000000000000000604482015290519081900360640190fd5b6103bf82826108a6565b60006106976003548361091e90919063ffffffff16565b92915050565b6000828201838110156106f7576040805162461bcd60e51b815260206004820152601b60248201527f536166654d6174683a206164646974696f6e206f766572666c6f770000000000604482015290519081900360640190fd5b9392505050565b6103bf8282610977565b600a546040805163f340fa0160e01b815233600482015290516001600160a01b039092169163f340fa01913491602480830192600092919082900301818588803b1580156105f357600080fd5b61075d610502565b1561083757600a60009054906101000a90046001600160a01b03166001600160a01b03166343d726d66040518163ffffffff1660e01b8152600401600060405180830381600087803b1580156107b257600080fd5b505af11580156107c6573d6000803e3d6000fd5b50505050600a60009054906101000a90046001600160a01b03166001600160a01b0316639af6549a6040518163ffffffff1660e01b8152600401600060405180830381600087803b15801561081a57600080fd5b505af115801561082e573d6000803e3d6000fd5b505050506108a0565b600a60009054906101000a90046001600160a01b03166001600160a01b0316638c52dc416040518163ffffffff1660e01b8152600401600060405180830381600087803b15801561088757600080fd5b505af115801561089b573d6000803e3d6000fd5b505050505b6108a45b565b6108b08282610a5b565b6005546108cb826108bf6103dd565b9063ffffffff61069d16565b11156103bf576040805162461bcd60e51b815260206004820152601d60248201527f43617070656443726f776473616c653a20636170206578636565646564000000604482015290519081900360640190fd5b60008261092d57506000610697565b8282028284828161093a57fe5b04146106f75760405162461bcd60e51b8152600401808060200182810382526021815260200180610af36021913960400191505060405180910390fd5b61097f61060e565b6001600160a01b03166340c10f1983836040518363ffffffff1660e01b815260040180836001600160a01b03166001600160a01b0316815260200182815260200192505050602060405180830381600087803b1580156109de57600080fd5b505af11580156109f2573d6000803e3d6000fd5b505050506040513d6020811015610a0857600080fd5b50516103bf576040805162461bcd60e51b815260206004820152601f60248201527f4d696e74656443726f776473616c653a206d696e74696e67206661696c656400604482015290519081900360640190fd5b6001600160a01b038216610aa05760405162461bcd60e51b815260040180806020018281038252602a815260200180610b5c602a913960400191505060405180910390fd5b806103bf576040805162461bcd60e51b815260206004820152601960248201527f43726f776473616c653a20776569416d6f756e74206973203000000000000000604482015290519081900360640190fdfe536166654d6174683a206d756c7469706c69636174696f6e206f766572666c6f7746696e616c697a61626c6543726f776473616c653a20616c72656164792066696e616c697a6564526566756e6461626c6543726f776473616c653a20676f616c207265616368656443726f776473616c653a2062656e656669636961727920697320746865207a65726f2061646472657373526566756e6461626c6543726f776473616c653a206e6f742066696e616c697a6564a265627a7a72315820efa5072a1eae1365ea929f360068ba990f8b7a7a3832abb28019f33c1c78dc0464736f6c63430005100032608060405234801561001057600080fd5b50604051610b48380380610b488339818101604052602081101561003357600080fd5b5051600080546001600160a01b031916331790819055604080516001600160a01b03929092168252517f4101e71e974f68df5e9730cc223280b41654676bbb052cdcc735c3337e64d2d99181900360200190a16001600160a01b0381166100cb5760405162461bcd60e51b815260040180806020018281038252602d815260200180610b1b602d913960400191505060405180910390fd5b6002805460ff196001600160a01b039390931661010002610100600160a81b031990911617919091169055610a16806101056000396000f3fe60806040526004361061009c5760003560e01c80638c52dc41116100645780638c52dc41146101965780639af6549a146101ab578063c19d93fb146101c0578063c6dbdf61146101f9578063e3a9db1a1461020e578063f340fa01146102535761009c565b80632348238c146100a157806338af3eed146100d657806343d726d61461010757806351cff8d91461011c578063685ca1941461014f575b600080fd5b3480156100ad57600080fd5b506100d4600480360360208110156100c457600080fd5b50356001600160a01b0316610279565b005b3480156100e257600080fd5b506100eb610361565b604080516001600160a01b039092168252519081900360200190f35b34801561011357600080fd5b506100d4610375565b34801561012857600080fd5b506100d46004803603602081101561013f57600080fd5b50356001600160a01b0316610444565b34801561015b57600080fd5b506101826004803603602081101561017257600080fd5b50356001600160a01b0316610494565b604080519115158252519081900360200190f35b3480156101a257600080fd5b506100d46104b0565b3480156101b757600080fd5b506100d4610580565b3480156101cc57600080fd5b506101d561060d565b604051808260028111156101e557fe5b60ff16815260200191505060405180910390f35b34801561020557600080fd5b506100eb610616565b34801561021a57600080fd5b506102416004803603602081101561023157600080fd5b50356001600160a01b0316610625565b60408051918252519081900360200190f35b6100d46004803603602081101561026957600080fd5b50356001600160a01b0316610640565b6000546001600160a01b031633146102c25760405162461bcd60e51b815260040180806020018281038252602c815260200180610984602c913960400191505060405180910390fd5b6001600160a01b0381166103075760405162461bcd60e51b815260040180806020018281038252602a81526020018061095a602a913960400191505060405180910390fd5b600080546001600160a01b0319166001600160a01b03838116919091179182905560408051929091168252517f4101e71e974f68df5e9730cc223280b41654676bbb052cdcc735c3337e64d2d9916020908290030190a150565b60025461010090046001600160a01b031690565b6000546001600160a01b031633146103be5760405162461bcd60e51b815260040180806020018281038252602c815260200180610984602c913960400191505060405180910390fd5b60006002805460ff16908111156103d157fe5b1461040d5760405162461bcd60e51b81526004018080602001828103825260298152602001806109316029913960400191505060405180910390fd5b6002805460ff1916811790556040517f088672c3a6e342f7cd94a65ba63b79df24a8973927b4d05d803c44bbf787d12f90600090a1565b61044d81610494565b6104885760405162461bcd60e51b81526004018080602001828103825260338152602001806108fe6033913960400191505060405180910390fd5b61049181610698565b50565b600060016002805460ff16908111156104a957fe5b1492915050565b6000546001600160a01b031633146104f95760405162461bcd60e51b815260040180806020018281038252602c815260200180610984602c913960400191505060405180910390fd5b60006002805460ff169081111561050c57fe5b146105485760405162461bcd60e51b81526004018080602001828103825260328152602001806109b06032913960400191505060405180910390fd5b6002805460ff191660011790556040517f599d8e5a83cffb867d051598c4d70e805d59802d8081c1c7d6dffc5b6aca2b8990600090a1565b6002805460ff168181111561059157fe5b146105cd5760405162461bcd60e51b815260040180806020018281038252603881526020018061089b6038913960400191505060405180910390fd5b6002546040516001600160a01b0361010090920491909116904780156108fc02916000818181858888f19350505050158015610491573d6000803e3d6000fd5b60025460ff1690565b6000546001600160a01b031690565b6001600160a01b031660009081526001602052604090205490565b60006002805460ff169081111561065357fe5b1461068f5760405162461bcd60e51b815260040180806020018281038252602b8152602001806108d3602b913960400191505060405180910390fd5b6104918161076f565b6000546001600160a01b031633146106e15760405162461bcd60e51b815260040180806020018281038252602c815260200180610984602c913960400191505060405180910390fd5b6001600160a01b038116600081815260016020526040808220805490839055905190929183156108fc02918491818181858888f1935050505015801561072b573d6000803e3d6000fd5b506040805182815290516001600160a01b038416917f7084f5476618d8e60b11ef0d7d3f06914655adb8793e28ff7f018d4c76d505d5919081900360200190a25050565b6000546001600160a01b031633146107b85760405162461bcd60e51b815260040180806020018281038252602c815260200180610984602c913960400191505060405180910390fd5b6001600160a01b03811660009081526001602052604090205434906107e3908263ffffffff61083916565b6001600160a01b038316600081815260016020908152604091829020939093558051848152905191927f2da466a7b24304f47e87fa2e1e5a81b9831ce54fec19055ce277ca2f39ba42c492918290030190a25050565b600082820183811015610893576040805162461bcd60e51b815260206004820152601b60248201527f536166654d6174683a206164646974696f6e206f766572666c6f770000000000604482015290519081900360640190fd5b939250505056fe526566756e64457363726f773a2062656e65666963696172792063616e206f6e6c79207769746864726177207768696c6520636c6f736564526566756e64457363726f773a2063616e206f6e6c79206465706f736974207768696c6520616374697665436f6e646974696f6e616c457363726f773a207061796565206973206e6f7420616c6c6f77656420746f207769746864726177526566756e64457363726f773a2063616e206f6e6c7920636c6f7365207768696c65206163746976655365636f6e646172793a206e6577207072696d61727920697320746865207a65726f20616464726573735365636f6e646172793a2063616c6c6572206973206e6f7420746865207072696d617279206163636f756e74526566756e64457363726f773a2063616e206f6e6c7920656e61626c6520726566756e6473207768696c6520616374697665a265627a7a7231582016144f122863987db1ef533f2e8737e4dc485751f6a0e0335e952210e02615fa64736f6c63430005100032526566756e64457363726f773a2062656e656669636961727920697320746865207a65726f206164647265737354696d656443726f776473616c653a206f70656e696e672074696d65206973206265666f72652063757272656e742074696d6554696d656443726f776473616c653a206f70656e696e672074696d65206973206e6f74206265666f726520636c6f73696e672074696d6543726f776473616c653a20746f6b656e20697320746865207a65726f206164647265737353616d706c6543726f776453616c653a20676f616c2069732067726561746572207468616e2063617043726f776473616c653a2077616c6c657420697320746865207a65726f2061646472657373",
  "source": "pragma solidity ^0.5.0;\n\nimport \"../crowdsale/validation/CappedCrowdsale.sol\";\nimport \"../crowdsale/distribution/RefundableCrowdsale.sol\";\nimport \"../crowdsale/emission/MintedCrowdsale.sol\";\nimport \"../token/ERC20/ERC20Mintable.sol\";\nimport \"../token/ERC20/ERC20Detailed.sol\";\n\n/**\n * @title SampleCrowdsaleToken\n * @dev Very simple ERC20 Token that can be minted.\n * It is meant to be used in a crowdsale contract.\n */\ncontract SampleCrowdsaleToken is ERC20Mintable, ERC20Detailed {\n    constructor () public ERC20Detailed(\"Sample Crowdsale Token\", \"SCT\", 18) {\n        // solhint-disable-previous-line no-empty-blocks\n    }\n}\n\n/**\n * @title SampleCrowdsale\n * @dev This is an example of a fully fledged crowdsale.\n * The way to add new features to a base crowdsale is by multiple inheritance.\n * In this example we are providing following extensions:\n * CappedCrowdsale - sets a max boundary for raised funds\n * RefundableCrowdsale - set a min goal to be reached and returns funds if it's not met\n * MintedCrowdsale - assumes the token can be minted by the crowdsale, which does so\n * when receiving purchases.\n *\n * After adding multiple features it's good practice to run integration tests\n * to ensure that subcontracts works together as intended.\n */\ncontract SampleCrowdsale is CappedCrowdsale, RefundableCrowdsale, MintedCrowdsale {\n    constructor (\n        uint256 openingTime,\n        uint256 closingTime,\n        uint256 rate,\n        address payable wallet,\n        uint256 cap,\n        ERC20Mintable token,\n        uint256 goal\n    )\n        public\n        Crowdsale(rate, wallet, token)\n        CappedCrowdsale(cap)\n        TimedCrowdsale(openingTime, closingTime)\n        RefundableCrowdsale(goal)\n    {\n        //As goal needs to be met for a successful crowdsale\n        //the value needs to less or equal than a cap which is limit for accepted funds\n        require(goal <= cap, \"SampleCrowdSale: goal is greater than cap\");\n    }\n}\n",
  "sourcePath": "/home/grifma/Code/vi-admin-ui/contracts/lib/openzeppelin-solidity/contracts/examples/SampleCrowdsale.sol",
  "compiler": {
    "name": "solc",
    "version": "0.5.16+commit.9c3226ce.Emscripten.clang"
  },
  "schemaVersion": "3.0.23",
  "updatedAt": "2020-05-14T20:26:11.221Z",
  "devdoc": {
    "details": "This is an example of a fully fledged crowdsale. The way to add new features to a base crowdsale is by multiple inheritance. In this example we are providing following extensions: CappedCrowdsale - sets a max boundary for raised funds RefundableCrowdsale - set a min goal to be reached and returns funds if it's not met MintedCrowdsale - assumes the token can be minted by the crowdsale, which does so when receiving purchases. * After adding multiple features it's good practice to run integration tests to ensure that subcontracts works together as intended.",
    "methods": {
      "buyTokens(address)": {
        "details": "low level token purchase ***DO NOT OVERRIDE*** This function has a non-reentrancy guard, so it shouldn't be called by another `nonReentrant` function.",
        "params": {
          "beneficiary": "Recipient of the token purchase"
        }
      },
      "cap()": {
        "return": "the cap of the crowdsale."
      },
      "capReached()": {
        "details": "Checks whether the cap has been reached.",
        "return": "Whether the cap was reached"
      },
      "claimRefund(address)": {
        "details": "Investors can claim refunds here if crowdsale is unsuccessful.",
        "params": {
          "refundee": "Whose refund will be claimed."
        }
      },
      "closingTime()": {
        "return": "the crowdsale closing time."
      },
      "finalize()": {
        "details": "Must be called after crowdsale ends, to do some extra finalization work. Calls the contract's finalization function."
      },
      "finalized()": {
        "return": "true if the crowdsale is finalized, false otherwise."
      },
      "goal()": {
        "return": "minimum amount of funds to be raised in wei."
      },
      "goalReached()": {
        "details": "Checks whether funding goal was reached.",
        "return": "Whether funding goal was reached"
      },
      "hasClosed()": {
        "details": "Checks whether the period in which the crowdsale is open has already elapsed.",
        "return": "Whether crowdsale period has elapsed"
      },
      "isOpen()": {
        "return": "true if the crowdsale is open, false otherwise."
      },
      "openingTime()": {
        "return": "the crowdsale opening time."
      },
      "rate()": {
        "return": "the number of token units a buyer gets per wei."
      },
      "token()": {
        "return": "the token being sold."
      },
      "wallet()": {
        "return": "the address where funds are collected."
      },
      "weiRaised()": {
        "return": "the amount of wei raised."
      }
    },
    "title": "SampleCrowdsale"
  },
  "userdoc": {
    "methods": {}
  }
}