{
  "contractName": "SecondaryMock",
  "abi": [
    {
      "anonymous": false,
      "inputs": [
        {
          "indexed": false,
          "internalType": "address",
          "name": "recipient",
          "type": "address"
        }
      ],
      "name": "PrimaryTransferred",
      "type": "event"
    },
    {
      "constant": true,
      "inputs": [],
      "name": "primary",
      "outputs": [
        {
          "internalType": "address",
          "name": "",
          "type": "address"
        }
      ],
      "payable": false,
      "stateMutability": "view",
      "type": "function"
    },
    {
      "constant": false,
      "inputs": [
        {
          "internalType": "address",
          "name": "recipient",
          "type": "address"
        }
      ],
      "name": "transferPrimary",
      "outputs": [],
      "payable": false,
      "stateMutability": "nonpayable",
      "type": "function"
    },
    {
      "constant": true,
      "inputs": [],
      "name": "onlyPrimaryMock",
      "outputs": [],
      "payable": false,
      "stateMutability": "view",
      "type": "function"
    }
  ],
  "bytecode": "0x60806040819052600080546001600160a01b0319163317908190556001600160a01b031681527f4101e71e974f68df5e9730cc223280b41654676bbb052cdcc735c3337e64d2d990602090a16102678061005a6000396000f3fe608060405234801561001057600080fd5b50600436106100415760003560e01c80632348238c14610046578063846224251461006e578063c6dbdf6114610076575b600080fd5b61006c6004803603602081101561005c57600080fd5b50356001600160a01b031661009a565b005b61006c610182565b61007e6101cd565b604080516001600160a01b039092168252519081900360200190f35b6000546001600160a01b031633146100e35760405162461bcd60e51b815260040180806020018281038252602c815260200180610207602c913960400191505060405180910390fd5b6001600160a01b0381166101285760405162461bcd60e51b815260040180806020018281038252602a8152602001806101dd602a913960400191505060405180910390fd5b600080546001600160a01b0319166001600160a01b03838116919091179182905560408051929091168252517f4101e71e974f68df5e9730cc223280b41654676bbb052cdcc735c3337e64d2d9916020908290030190a150565b6000546001600160a01b031633146101cb5760405162461bcd60e51b815260040180806020018281038252602c815260200180610207602c913960400191505060405180910390fd5b565b6000546001600160a01b03169056fe5365636f6e646172793a206e6577207072696d61727920697320746865207a65726f20616464726573735365636f6e646172793a2063616c6c6572206973206e6f7420746865207072696d617279206163636f756e74a265627a7a72315820a19a7aac795b28a8c5364d8ea423929c32e79875d50bf4d50126fc1b0db5bbcb64736f6c63430005100032",
  "source": "pragma solidity ^0.5.0;\n\nimport \"../ownership/Secondary.sol\";\n\ncontract SecondaryMock is Secondary {\n    function onlyPrimaryMock() public view onlyPrimary {\n        // solhint-disable-previous-line no-empty-blocks\n    }\n}\n",
  "sourcePath": "/home/grifma/Code/vi-admin-ui/contracts/lib/openzeppelin-solidity/contracts/mocks/SecondaryMock.sol",
  "compiler": {
    "name": "solc",
    "version": "0.5.16+commit.9c3226ce.Emscripten.clang"
  },
  "schemaVersion": "3.0.23",
  "updatedAt": "2020-05-14T11:10:26.114Z",
  "devdoc": {
    "methods": {
      "primary()": {
        "return": "the address of the primary."
      },
      "transferPrimary(address)": {
        "details": "Transfers contract to a new primary.",
        "params": {
          "recipient": "The address of new primary."
        }
      }
    }
  },
  "userdoc": {
    "methods": {}
  }
}