{
  "contractName": "SignerRoleMock",
  "abi": [
    {
      "anonymous": false,
      "inputs": [
        {
          "indexed": true,
          "internalType": "address",
          "name": "account",
          "type": "address"
        }
      ],
      "name": "SignerAdded",
      "type": "event"
    },
    {
      "anonymous": false,
      "inputs": [
        {
          "indexed": true,
          "internalType": "address",
          "name": "account",
          "type": "address"
        }
      ],
      "name": "SignerRemoved",
      "type": "event"
    },
    {
      "constant": false,
      "inputs": [
        {
          "internalType": "address",
          "name": "account",
          "type": "address"
        }
      ],
      "name": "addSigner",
      "outputs": [],
      "payable": false,
      "stateMutability": "nonpayable",
      "type": "function"
    },
    {
      "constant": true,
      "inputs": [
        {
          "internalType": "address",
          "name": "account",
          "type": "address"
        }
      ],
      "name": "isSigner",
      "outputs": [
        {
          "internalType": "bool",
          "name": "",
          "type": "bool"
        }
      ],
      "payable": false,
      "stateMutability": "view",
      "type": "function"
    },
    {
      "constant": false,
      "inputs": [],
      "name": "renounceSigner",
      "outputs": [],
      "payable": false,
      "stateMutability": "nonpayable",
      "type": "function"
    },
    {
      "constant": false,
      "inputs": [
        {
          "internalType": "address",
          "name": "account",
          "type": "address"
        }
      ],
      "name": "removeSigner",
      "outputs": [],
      "payable": false,
      "stateMutability": "nonpayable",
      "type": "function"
    },
    {
      "constant": true,
      "inputs": [],
      "name": "onlySignerMock",
      "outputs": [],
      "payable": false,
      "stateMutability": "view",
      "type": "function"
    }
  ],
  "bytecode": "0x6080604052610016336001600160e01b0361001b16565b61015b565b61003381600061006a60201b6102b41790919060201c565b6040516001600160a01b038216907f47d1c22a25bb3a5d4e481b9b1e6944c2eade3181a0a20b495ed61d35b5323f2490600090a250565b61007d82826001600160e01b036100f416565b156100cf576040805162461bcd60e51b815260206004820152601f60248201527f526f6c65733a206163636f756e7420616c72656164792068617320726f6c6500604482015290519081900360640190fd5b6001600160a01b0316600090815260209190915260409020805460ff19166001179055565b60006001600160a01b03821661013b5760405162461bcd60e51b81526004018080602001828103825260228152602001806105ae6022913960400191505060405180910390fd5b506001600160a01b03166000908152602091909152604090205460ff1690565b6104448061016a6000396000f3fe608060405234801561001057600080fd5b50600436106100575760003560e01c80630e316ab71461005c5780637df73e2714610084578063b44e2ab9146100be578063e5c8b03d146100c6578063eb12d61e146100ce575b600080fd5b6100826004803603602081101561007257600080fd5b50356001600160a01b03166100f4565b005b6100aa6004803603602081101561009a57600080fd5b50356001600160a01b0316610100565b604080519115158252519081900360200190f35b610082610118565b61008261015e565b610082600480360360208110156100e457600080fd5b50356001600160a01b0316610167565b6100fd816101b4565b50565b6000610112818363ffffffff6101bd16565b92915050565b61012133610100565b61015c5760405162461bcd60e51b81526004018080602001828103825260308152602001806103e06030913960400191505060405180910390fd5b565b61015c336101b4565b61017033610100565b6101ab5760405162461bcd60e51b81526004018080602001828103825260308152602001806103e06030913960400191505060405180910390fd5b6100fd81610224565b6100fd8161026c565b60006001600160a01b0382166102045760405162461bcd60e51b81526004018080602001828103825260228152602001806103be6022913960400191505060405180910390fd5b506001600160a01b03166000908152602091909152604090205460ff1690565b61023560008263ffffffff6102b416565b6040516001600160a01b038216907f47d1c22a25bb3a5d4e481b9b1e6944c2eade3181a0a20b495ed61d35b5323f2490600090a250565b61027d60008263ffffffff61033516565b6040516001600160a01b038216907f3525e22824a8a7df2c9a6029941c824cf95b6447f1e13d5128fd3826d35afe8b90600090a250565b6102be82826101bd565b15610310576040805162461bcd60e51b815260206004820152601f60248201527f526f6c65733a206163636f756e7420616c72656164792068617320726f6c6500604482015290519081900360640190fd5b6001600160a01b0316600090815260209190915260409020805460ff19166001179055565b61033f82826101bd565b61037a5760405162461bcd60e51b815260040180806020018281038252602181526020018061039d6021913960400191505060405180910390fd5b6001600160a01b0316600090815260209190915260409020805460ff1916905556fe526f6c65733a206163636f756e7420646f6573206e6f74206861766520726f6c65526f6c65733a206163636f756e7420697320746865207a65726f20616464726573735369676e6572526f6c653a2063616c6c657220646f6573206e6f74206861766520746865205369676e657220726f6c65a265627a7a72315820a00798784d8684a90709e76d0987847aa43d3de9d11f6fa6030ebe7cf8db354d64736f6c63430005100032526f6c65733a206163636f756e7420697320746865207a65726f2061646472657373",
  "source": "pragma solidity ^0.5.0;\n\nimport \"../access/roles/SignerRole.sol\";\n\ncontract SignerRoleMock is SignerRole {\n    function removeSigner(address account) public {\n        _removeSigner(account);\n    }\n\n    function onlySignerMock() public view onlySigner {\n        // solhint-disable-previous-line no-empty-blocks\n    }\n\n    // Causes a compilation error if super._removeSigner is not internal\n    function _removeSigner(address account) internal {\n        super._removeSigner(account);\n    }\n}\n",
  "sourcePath": "/home/grifma/Code/vi-admin-ui/contracts/lib/openzeppelin-solidity/contracts/mocks/SignerRoleMock.sol",
  "compiler": {
    "name": "solc",
    "version": "0.5.16+commit.9c3226ce.Emscripten.clang"
  },
  "schemaVersion": "3.0.23",
  "updatedAt": "2020-05-14T11:10:26.117Z",
  "devdoc": {
    "methods": {}
  },
  "userdoc": {
    "methods": {}
  }
}