{
  "contractName": "VICoin",
  "abi": [
    {
      "inputs": [
        {
          "internalType": "string",
          "name": "_name",
          "type": "string"
        },
        {
          "internalType": "string",
          "name": "_symbol",
          "type": "string"
        },
        {
          "internalType": "uint8",
          "name": "_decimals",
          "type": "uint8"
        },
        {
          "internalType": "uint256",
          "name": "_lifetime",
          "type": "uint256"
        },
        {
          "internalType": "uint256",
          "name": "_generationAmount",
          "type": "uint256"
        },
        {
          "internalType": "uint256",
          "name": "_generationPeriod",
          "type": "uint256"
        },
        {
          "internalType": "uint256",
          "name": "_communityContribution",
          "type": "uint256"
        },
        {
          "internalType": "uint256",
          "name": "_transactionFee",
          "type": "uint256"
        },
        {
          "internalType": "uint256",
          "name": "_initialBalance",
          "type": "uint256"
        },
        {
          "internalType": "address",
          "name": "_communityContributionAccount",
          "type": "address"
        },
        {
          "internalType": "address",
          "name": "_controller",
          "type": "address"
        }
      ],
      "payable": false,
      "stateMutability": "nonpayable",
      "type": "constructor"
    },
    {
      "anonymous": false,
      "inputs": [
        {
          "indexed": true,
          "internalType": "address",
          "name": "owner",
          "type": "address"
        },
        {
          "indexed": true,
          "internalType": "address",
          "name": "spender",
          "type": "address"
        },
        {
          "indexed": false,
          "internalType": "uint256",
          "name": "value",
          "type": "uint256"
        }
      ],
      "name": "Approval",
      "type": "event"
    },
    {
      "anonymous": false,
      "inputs": [
        {
          "indexed": true,
          "internalType": "address",
          "name": "_account",
          "type": "address"
        }
      ],
      "name": "ApproveAccount",
      "type": "event"
    },
    {
      "anonymous": false,
      "inputs": [],
      "name": "BlowAllFuses",
      "type": "event"
    },
    {
      "anonymous": false,
      "inputs": [
        {
          "indexed": false,
          "internalType": "uint8",
          "name": "_fuseID",
          "type": "uint8"
        }
      ],
      "name": "BlowFuse",
      "type": "event"
    },
    {
      "anonymous": false,
      "inputs": [
        {
          "indexed": true,
          "internalType": "address",
          "name": "to",
          "type": "address"
        },
        {
          "indexed": false,
          "internalType": "uint256",
          "name": "value",
          "type": "uint256"
        }
      ],
      "name": "Burn",
      "type": "event"
    },
    {
      "anonymous": false,
      "inputs": [
        {
          "indexed": true,
          "internalType": "address",
          "name": "to",
          "type": "address"
        },
        {
          "indexed": false,
          "internalType": "uint256",
          "name": "value",
          "type": "uint256"
        }
      ],
      "name": "BurnedFees",
      "type": "event"
    },
    {
      "anonymous": false,
      "inputs": [
        {
          "indexed": false,
          "internalType": "address",
          "name": "_newController",
          "type": "address"
        }
      ],
      "name": "ChangeController",
      "type": "event"
    },
    {
      "anonymous": false,
      "inputs": [
        {
          "indexed": true,
          "internalType": "address",
          "name": "_account",
          "type": "address"
        },
        {
          "indexed": false,
          "internalType": "uint256",
          "name": "_decay",
          "type": "uint256"
        }
      ],
      "name": "Decay",
      "type": "event"
    },
    {
      "anonymous": false,
      "inputs": [
        {
          "indexed": true,
          "internalType": "address",
          "name": "_account",
          "type": "address"
        },
        {
          "indexed": false,
          "internalType": "uint256",
          "name": "_income",
          "type": "uint256"
        }
      ],
      "name": "IncomeReceived",
      "type": "event"
    },
    {
      "anonymous": false,
      "inputs": [
        {
          "indexed": false,
          "internalType": "string",
          "name": "_name",
          "type": "string"
        },
        {
          "indexed": false,
          "internalType": "uint256",
          "name": "_value",
          "type": "uint256"
        }
      ],
      "name": "Log",
      "type": "event"
    },
    {
      "anonymous": false,
      "inputs": [
        {
          "indexed": false,
          "internalType": "uint256",
          "name": "_block",
          "type": "uint256"
        }
      ],
      "name": "Mined",
      "type": "event"
    },
    {
      "anonymous": false,
      "inputs": [
        {
          "indexed": true,
          "internalType": "address",
          "name": "to",
          "type": "address"
        },
        {
          "indexed": false,
          "internalType": "uint256",
          "name": "value",
          "type": "uint256"
        }
      ],
      "name": "Mint",
      "type": "event"
    },
    {
      "anonymous": false,
      "inputs": [
        {
          "indexed": true,
          "internalType": "address",
          "name": "account",
          "type": "address"
        }
      ],
      "name": "MinterAdded",
      "type": "event"
    },
    {
      "anonymous": false,
      "inputs": [
        {
          "indexed": true,
          "internalType": "address",
          "name": "account",
          "type": "address"
        }
      ],
      "name": "MinterRemoved",
      "type": "event"
    },
    {
      "anonymous": false,
      "inputs": [
        {
          "indexed": true,
          "internalType": "address",
          "name": "to",
          "type": "address"
        },
        {
          "indexed": false,
          "internalType": "uint256",
          "name": "value",
          "type": "uint256"
        }
      ],
      "name": "PaidContribution",
      "type": "event"
    },
    {
      "anonymous": false,
      "inputs": [
        {
          "indexed": true,
          "internalType": "address",
          "name": "from",
          "type": "address"
        },
        {
          "indexed": true,
          "internalType": "address",
          "name": "to",
          "type": "address"
        },
        {
          "indexed": false,
          "internalType": "uint256",
          "name": "value",
          "type": "uint256"
        }
      ],
      "name": "Transfer",
      "type": "event"
    },
    {
      "anonymous": false,
      "inputs": [
        {
          "indexed": false,
          "internalType": "address",
          "name": "_account",
          "type": "address"
        }
      ],
      "name": "UnapproveAccount",
      "type": "event"
    },
    {
      "anonymous": false,
      "inputs": [
        {
          "indexed": false,
          "internalType": "uint256",
          "name": "_communityContribution",
          "type": "uint256"
        }
      ],
      "name": "UpdateCommunityContribution",
      "type": "event"
    },
    {
      "anonymous": false,
      "inputs": [
        {
          "indexed": false,
          "internalType": "address",
          "name": "_newCommunityContributionAccount",
          "type": "address"
        }
      ],
      "name": "UpdateCommunityContributionAccount",
      "type": "event"
    },
    {
      "anonymous": false,
      "inputs": [
        {
          "indexed": false,
          "internalType": "uint256",
          "name": "_generationAmount",
          "type": "uint256"
        }
      ],
      "name": "UpdateGenerationAmount",
      "type": "event"
    },
    {
      "anonymous": false,
      "inputs": [
        {
          "indexed": false,
          "internalType": "uint256",
          "name": "_generationPeriod",
          "type": "uint256"
        }
      ],
      "name": "UpdateGenerationPeriod",
      "type": "event"
    },
    {
      "anonymous": false,
      "inputs": [
        {
          "indexed": false,
          "internalType": "uint256",
          "name": "_initialBalance",
          "type": "uint256"
        }
      ],
      "name": "UpdateInitialBalance",
      "type": "event"
    },
    {
      "anonymous": false,
      "inputs": [
        {
          "indexed": false,
          "internalType": "uint256",
          "name": "_lifetime",
          "type": "uint256"
        }
      ],
      "name": "UpdateLifetime",
      "type": "event"
    },
    {
      "anonymous": false,
      "inputs": [
        {
          "indexed": false,
          "internalType": "uint256",
          "name": "_transactionFee",
          "type": "uint256"
        }
      ],
      "name": "UpdateTransactionFee",
      "type": "event"
    },
    {
      "anonymous": false,
      "inputs": [
        {
          "indexed": true,
          "internalType": "address",
          "name": "_account",
          "type": "address"
        }
      ],
      "name": "VerifyAccount",
      "type": "event"
    },
    {
      "payable": true,
      "stateMutability": "payable",
      "type": "fallback"
    },
    {
      "constant": true,
      "inputs": [
        {
          "internalType": "address",
          "name": "",
          "type": "address"
        }
      ],
      "name": "accountApproved",
      "outputs": [
        {
          "internalType": "bool",
          "name": "",
          "type": "bool"
        }
      ],
      "payable": false,
      "stateMutability": "view",
      "type": "function"
    },
    {
      "constant": false,
      "inputs": [
        {
          "internalType": "address",
          "name": "account",
          "type": "address"
        }
      ],
      "name": "addMinter",
      "outputs": [],
      "payable": false,
      "stateMutability": "nonpayable",
      "type": "function"
    },
    {
      "constant": true,
      "inputs": [
        {
          "internalType": "address",
          "name": "owner",
          "type": "address"
        },
        {
          "internalType": "address",
          "name": "spender",
          "type": "address"
        }
      ],
      "name": "allowance",
      "outputs": [
        {
          "internalType": "uint256",
          "name": "",
          "type": "uint256"
        }
      ],
      "payable": false,
      "stateMutability": "view",
      "type": "function"
    },
    {
      "constant": false,
      "inputs": [
        {
          "internalType": "address",
          "name": "spender",
          "type": "address"
        },
        {
          "internalType": "uint256",
          "name": "value",
          "type": "uint256"
        }
      ],
      "name": "approve",
      "outputs": [
        {
          "internalType": "bool",
          "name": "",
          "type": "bool"
        }
      ],
      "payable": false,
      "stateMutability": "nonpayable",
      "type": "function"
    },
    {
      "constant": true,
      "inputs": [
        {
          "internalType": "address",
          "name": "owner",
          "type": "address"
        }
      ],
      "name": "balanceOf",
      "outputs": [
        {
          "internalType": "uint256",
          "name": "",
          "type": "uint256"
        }
      ],
      "payable": false,
      "stateMutability": "view",
      "type": "function"
    },
    {
      "constant": true,
      "inputs": [],
      "name": "blocksMined",
      "outputs": [
        {
          "internalType": "uint256",
          "name": "",
          "type": "uint256"
        }
      ],
      "payable": false,
      "stateMutability": "view",
      "type": "function"
    },
    {
      "constant": false,
      "inputs": [
        {
          "internalType": "bool",
          "name": "_confirm",
          "type": "bool"
        }
      ],
      "name": "blowAllFuses",
      "outputs": [],
      "payable": false,
      "stateMutability": "nonpayable",
      "type": "function"
    },
    {
      "constant": false,
      "inputs": [
        {
          "internalType": "uint8",
          "name": "_fuseID",
          "type": "uint8"
        },
        {
          "internalType": "bool",
          "name": "_confirm",
          "type": "bool"
        }
      ],
      "name": "blowFuse",
      "outputs": [],
      "payable": false,
      "stateMutability": "nonpayable",
      "type": "function"
    },
    {
      "constant": false,
      "inputs": [
        {
          "internalType": "uint256",
          "name": "value",
          "type": "uint256"
        }
      ],
      "name": "burn",
      "outputs": [],
      "payable": false,
      "stateMutability": "nonpayable",
      "type": "function"
    },
    {
      "constant": false,
      "inputs": [
        {
          "internalType": "address",
          "name": "from",
          "type": "address"
        },
        {
          "internalType": "uint256",
          "name": "value",
          "type": "uint256"
        }
      ],
      "name": "burnFrom",
      "outputs": [],
      "payable": false,
      "stateMutability": "nonpayable",
      "type": "function"
    },
    {
      "constant": false,
      "inputs": [
        {
          "internalType": "address",
          "name": "_newController",
          "type": "address"
        }
      ],
      "name": "changeController",
      "outputs": [],
      "payable": false,
      "stateMutability": "nonpayable",
      "type": "function"
    },
    {
      "constant": true,
      "inputs": [],
      "name": "communityContribution",
      "outputs": [
        {
          "internalType": "uint256",
          "name": "",
          "type": "uint256"
        }
      ],
      "payable": false,
      "stateMutability": "view",
      "type": "function"
    },
    {
      "constant": true,
      "inputs": [],
      "name": "communityContributionAccount",
      "outputs": [
        {
          "internalType": "address",
          "name": "",
          "type": "address"
        }
      ],
      "payable": false,
      "stateMutability": "view",
      "type": "function"
    },
    {
      "constant": true,
      "inputs": [],
      "name": "contributionFeeDecimals",
      "outputs": [
        {
          "internalType": "uint256",
          "name": "",
          "type": "uint256"
        }
      ],
      "payable": false,
      "stateMutability": "view",
      "type": "function"
    },
    {
      "constant": true,
      "inputs": [],
      "name": "controller",
      "outputs": [
        {
          "internalType": "address",
          "name": "",
          "type": "address"
        }
      ],
      "payable": false,
      "stateMutability": "view",
      "type": "function"
    },
    {
      "constant": true,
      "inputs": [],
      "name": "decimals",
      "outputs": [
        {
          "internalType": "uint8",
          "name": "",
          "type": "uint8"
        }
      ],
      "payable": false,
      "stateMutability": "view",
      "type": "function"
    },
    {
      "constant": false,
      "inputs": [
        {
          "internalType": "address",
          "name": "spender",
          "type": "address"
        },
        {
          "internalType": "uint256",
          "name": "subtractedValue",
          "type": "uint256"
        }
      ],
      "name": "decreaseAllowance",
      "outputs": [
        {
          "internalType": "bool",
          "name": "",
          "type": "bool"
        }
      ],
      "payable": false,
      "stateMutability": "nonpayable",
      "type": "function"
    },
    {
      "constant": true,
      "inputs": [],
      "name": "generationAmount",
      "outputs": [
        {
          "internalType": "uint256",
          "name": "",
          "type": "uint256"
        }
      ],
      "payable": false,
      "stateMutability": "view",
      "type": "function"
    },
    {
      "constant": true,
      "inputs": [],
      "name": "generationPeriod",
      "outputs": [
        {
          "internalType": "uint256",
          "name": "",
          "type": "uint256"
        }
      ],
      "payable": false,
      "stateMutability": "view",
      "type": "function"
    },
    {
      "constant": false,
      "inputs": [
        {
          "internalType": "address",
          "name": "spender",
          "type": "address"
        },
        {
          "internalType": "uint256",
          "name": "addedValue",
          "type": "uint256"
        }
      ],
      "name": "increaseAllowance",
      "outputs": [
        {
          "internalType": "bool",
          "name": "",
          "type": "bool"
        }
      ],
      "payable": false,
      "stateMutability": "nonpayable",
      "type": "function"
    },
    {
      "constant": true,
      "inputs": [],
      "name": "initialBalance",
      "outputs": [
        {
          "internalType": "uint256",
          "name": "",
          "type": "uint256"
        }
      ],
      "payable": false,
      "stateMutability": "view",
      "type": "function"
    },
    {
      "constant": true,
      "inputs": [
        {
          "internalType": "address",
          "name": "account",
          "type": "address"
        }
      ],
      "name": "isMinter",
      "outputs": [
        {
          "internalType": "bool",
          "name": "",
          "type": "bool"
        }
      ],
      "payable": false,
      "stateMutability": "view",
      "type": "function"
    },
    {
      "constant": true,
      "inputs": [
        {
          "internalType": "address",
          "name": "",
          "type": "address"
        }
      ],
      "name": "lastGenerationBlock",
      "outputs": [
        {
          "internalType": "uint256",
          "name": "",
          "type": "uint256"
        }
      ],
      "payable": false,
      "stateMutability": "view",
      "type": "function"
    },
    {
      "constant": true,
      "inputs": [
        {
          "internalType": "address",
          "name": "",
          "type": "address"
        }
      ],
      "name": "lastTransactionBlock",
      "outputs": [
        {
          "internalType": "uint256",
          "name": "",
          "type": "uint256"
        }
      ],
      "payable": false,
      "stateMutability": "view",
      "type": "function"
    },
    {
      "constant": true,
      "inputs": [],
      "name": "lifetime",
      "outputs": [
        {
          "internalType": "uint256",
          "name": "",
          "type": "uint256"
        }
      ],
      "payable": false,
      "stateMutability": "view",
      "type": "function"
    },
    {
      "constant": true,
      "inputs": [],
      "name": "multiplier",
      "outputs": [
        {
          "internalType": "uint256",
          "name": "",
          "type": "uint256"
        }
      ],
      "payable": false,
      "stateMutability": "view",
      "type": "function"
    },
    {
      "constant": true,
      "inputs": [],
      "name": "name",
      "outputs": [
        {
          "internalType": "string",
          "name": "",
          "type": "string"
        }
      ],
      "payable": false,
      "stateMutability": "view",
      "type": "function"
    },
    {
      "constant": false,
      "inputs": [],
      "name": "renounceMinter",
      "outputs": [],
      "payable": false,
      "stateMutability": "nonpayable",
      "type": "function"
    },
    {
      "constant": true,
      "inputs": [],
      "name": "symbol",
      "outputs": [
        {
          "internalType": "string",
          "name": "",
          "type": "string"
        }
      ],
      "payable": false,
      "stateMutability": "view",
      "type": "function"
    },
    {
      "constant": true,
      "inputs": [],
      "name": "totalSupply",
      "outputs": [
        {
          "internalType": "uint256",
          "name": "",
          "type": "uint256"
        }
      ],
      "payable": false,
      "stateMutability": "view",
      "type": "function"
    },
    {
      "constant": true,
      "inputs": [],
      "name": "transactionFee",
      "outputs": [
        {
          "internalType": "uint256",
          "name": "",
          "type": "uint256"
        }
      ],
      "payable": false,
      "stateMutability": "view",
      "type": "function"
    },
    {
      "constant": true,
      "inputs": [
        {
          "internalType": "address",
          "name": "",
          "type": "address"
        }
      ],
      "name": "zeroBlock",
      "outputs": [
        {
          "internalType": "uint256",
          "name": "",
          "type": "uint256"
        }
      ],
      "payable": false,
      "stateMutability": "view",
      "type": "function"
    },
    {
      "constant": true,
      "inputs": [
        {
          "internalType": "uint256",
          "name": "_blockNumber",
          "type": "uint256"
        },
        {
          "internalType": "uint256",
          "name": "_lastGenerationBlock",
          "type": "uint256"
        },
        {
          "internalType": "uint256",
          "name": "_generationPeriod",
          "type": "uint256"
        }
      ],
      "name": "calcNumCompletedPeriods",
      "outputs": [
        {
          "internalType": "uint256",
          "name": "",
          "type": "uint256"
        }
      ],
      "payable": false,
      "stateMutability": "pure",
      "type": "function"
    },
    {
      "constant": false,
      "inputs": [
        {
          "internalType": "address",
          "name": "_account",
          "type": "address"
        }
      ],
      "name": "triggerOnchainBalanceUpdate",
      "outputs": [],
      "payable": false,
      "stateMutability": "nonpayable",
      "type": "function"
    },
    {
      "constant": true,
      "inputs": [
        {
          "internalType": "uint256",
          "name": "_blockNumber",
          "type": "uint256"
        },
        {
          "internalType": "uint256",
          "name": "_lastGenerationBlock",
          "type": "uint256"
        },
        {
          "internalType": "uint256",
          "name": "_lifetime",
          "type": "uint256"
        },
        {
          "internalType": "uint256",
          "name": "_generationAmount",
          "type": "uint256"
        },
        {
          "internalType": "uint256",
          "name": "_generationPeriod",
          "type": "uint256"
        }
      ],
      "name": "calcGeneration",
      "outputs": [
        {
          "internalType": "uint256",
          "name": "",
          "type": "uint256"
        }
      ],
      "payable": false,
      "stateMutability": "pure",
      "type": "function"
    },
    {
      "constant": true,
      "inputs": [
        {
          "internalType": "address",
          "name": "_account",
          "type": "address"
        }
      ],
      "name": "liveBalanceOf",
      "outputs": [
        {
          "internalType": "uint256",
          "name": "",
          "type": "uint256"
        }
      ],
      "payable": false,
      "stateMutability": "view",
      "type": "function"
    },
    {
      "constant": true,
      "inputs": [
        {
          "internalType": "address",
          "name": "_account",
          "type": "address"
        }
      ],
      "name": "getDecayedBalance",
      "outputs": [
        {
          "internalType": "uint256",
          "name": "",
          "type": "uint256"
        }
      ],
      "payable": false,
      "stateMutability": "view",
      "type": "function"
    },
    {
      "constant": false,
      "inputs": [
        {
          "internalType": "address",
          "name": "_to",
          "type": "address"
        },
        {
          "internalType": "uint256",
          "name": "_value",
          "type": "uint256"
        }
      ],
      "name": "transfer",
      "outputs": [
        {
          "internalType": "bool",
          "name": "",
          "type": "bool"
        }
      ],
      "payable": false,
      "stateMutability": "nonpayable",
      "type": "function"
    },
    {
      "constant": false,
      "inputs": [
        {
          "internalType": "address",
          "name": "",
          "type": "address"
        },
        {
          "internalType": "address",
          "name": "",
          "type": "address"
        },
        {
          "internalType": "uint256",
          "name": "",
          "type": "uint256"
        }
      ],
      "name": "transferFrom",
      "outputs": [
        {
          "internalType": "bool",
          "name": "",
          "type": "bool"
        }
      ],
      "payable": false,
      "stateMutability": "nonpayable",
      "type": "function"
    },
    {
      "constant": true,
      "inputs": [
        {
          "internalType": "uint256",
          "name": "_value",
          "type": "uint256"
        },
        {
          "internalType": "uint256",
          "name": "_feeRate",
          "type": "uint256"
        },
        {
          "internalType": "uint256",
          "name": "_contributionRate",
          "type": "uint256"
        }
      ],
      "name": "calcContribution",
      "outputs": [
        {
          "internalType": "uint256",
          "name": "",
          "type": "uint256"
        }
      ],
      "payable": false,
      "stateMutability": "pure",
      "type": "function"
    },
    {
      "constant": true,
      "inputs": [
        {
          "internalType": "uint256",
          "name": "_value",
          "type": "uint256"
        },
        {
          "internalType": "uint256",
          "name": "_feeRate",
          "type": "uint256"
        },
        {
          "internalType": "uint256",
          "name": "_contributionRate",
          "type": "uint256"
        }
      ],
      "name": "calcFeesToBurn",
      "outputs": [
        {
          "internalType": "uint256",
          "name": "",
          "type": "uint256"
        }
      ],
      "payable": false,
      "stateMutability": "pure",
      "type": "function"
    },
    {
      "constant": true,
      "inputs": [
        {
          "internalType": "uint256",
          "name": "_value",
          "type": "uint256"
        },
        {
          "internalType": "uint256",
          "name": "_feeRate",
          "type": "uint256"
        }
      ],
      "name": "calcFeesIncContribution",
      "outputs": [
        {
          "internalType": "uint256",
          "name": "",
          "type": "uint256"
        }
      ],
      "payable": false,
      "stateMutability": "pure",
      "type": "function"
    },
    {
      "constant": true,
      "inputs": [
        {
          "internalType": "address",
          "name": "_account",
          "type": "address"
        }
      ],
      "name": "getDetails",
      "outputs": [
        {
          "internalType": "uint256",
          "name": "_lastBlock",
          "type": "uint256"
        },
        {
          "internalType": "uint256",
          "name": "_balance",
          "type": "uint256"
        },
        {
          "internalType": "uint256",
          "name": "_zeroBlock",
          "type": "uint256"
        }
      ],
      "payable": false,
      "stateMutability": "view",
      "type": "function"
    },
    {
      "constant": true,
      "inputs": [
        {
          "internalType": "uint256",
          "name": "_value",
          "type": "uint256"
        },
        {
          "internalType": "uint256",
          "name": "_balance",
          "type": "uint256"
        },
        {
          "internalType": "uint256",
          "name": "_blockNumber",
          "type": "uint256"
        },
        {
          "internalType": "uint256",
          "name": "_lifetime",
          "type": "uint256"
        },
        {
          "internalType": "uint256",
          "name": "_originalZeroBlock",
          "type": "uint256"
        }
      ],
      "name": "calcZeroBlock",
      "outputs": [
        {
          "internalType": "uint256",
          "name": "",
          "type": "uint256"
        }
      ],
      "payable": false,
      "stateMutability": "pure",
      "type": "function"
    },
    {
      "constant": true,
      "inputs": [
        {
          "internalType": "uint256",
          "name": "_lastTransactionBlock",
          "type": "uint256"
        },
        {
          "internalType": "uint256",
          "name": "_balance",
          "type": "uint256"
        },
        {
          "internalType": "uint256",
          "name": "_thisBlock",
          "type": "uint256"
        },
        {
          "internalType": "uint256",
          "name": "_zeroBlock",
          "type": "uint256"
        }
      ],
      "name": "calcDecay",
      "outputs": [
        {
          "internalType": "uint256",
          "name": "",
          "type": "uint256"
        }
      ],
      "payable": false,
      "stateMutability": "pure",
      "type": "function"
    },
    {
      "constant": true,
      "inputs": [],
      "name": "getBlockNumber",
      "outputs": [
        {
          "internalType": "uint256",
          "name": "",
          "type": "uint256"
        }
      ],
      "payable": false,
      "stateMutability": "view",
      "type": "function"
    },
    {
      "constant": false,
      "inputs": [],
      "name": "finishMinting",
      "outputs": [
        {
          "internalType": "bool",
          "name": "",
          "type": "bool"
        }
      ],
      "payable": false,
      "stateMutability": "nonpayable",
      "type": "function"
    },
    {
      "constant": false,
      "inputs": [],
      "name": "mint",
      "outputs": [
        {
          "internalType": "bool",
          "name": "",
          "type": "bool"
        }
      ],
      "payable": false,
      "stateMutability": "nonpayable",
      "type": "function"
    },
    {
      "constant": false,
      "inputs": [
        {
          "internalType": "address",
          "name": "to",
          "type": "address"
        },
        {
          "internalType": "uint256",
          "name": "value",
          "type": "uint256"
        }
      ],
      "name": "mint",
      "outputs": [
        {
          "internalType": "bool",
          "name": "",
          "type": "bool"
        }
      ],
      "payable": false,
      "stateMutability": "nonpayable",
      "type": "function"
    },
    {
      "constant": false,
      "inputs": [
        {
          "internalType": "address",
          "name": "_account",
          "type": "address"
        }
      ],
      "name": "approveAccount",
      "outputs": [],
      "payable": false,
      "stateMutability": "nonpayable",
      "type": "function"
    },
    {
      "constant": false,
      "inputs": [
        {
          "internalType": "address",
          "name": "_account",
          "type": "address"
        }
      ],
      "name": "unapproveAccount",
      "outputs": [],
      "payable": false,
      "stateMutability": "nonpayable",
      "type": "function"
    },
    {
      "constant": false,
      "inputs": [
        {
          "internalType": "address",
          "name": "_account",
          "type": "address"
        }
      ],
      "name": "verifyAccount",
      "outputs": [],
      "payable": false,
      "stateMutability": "nonpayable",
      "type": "function"
    },
    {
      "constant": false,
      "inputs": [
        {
          "internalType": "uint256",
          "name": "_lifetime",
          "type": "uint256"
        }
      ],
      "name": "updateLifetime",
      "outputs": [],
      "payable": false,
      "stateMutability": "nonpayable",
      "type": "function"
    },
    {
      "constant": false,
      "inputs": [
        {
          "internalType": "uint256",
          "name": "_initialBalance",
          "type": "uint256"
        }
      ],
      "name": "updateInitialBalance",
      "outputs": [],
      "payable": false,
      "stateMutability": "nonpayable",
      "type": "function"
    },
    {
      "constant": false,
      "inputs": [
        {
          "internalType": "uint256",
          "name": "_generationPeriod",
          "type": "uint256"
        }
      ],
      "name": "updateGenerationPeriod",
      "outputs": [],
      "payable": false,
      "stateMutability": "nonpayable",
      "type": "function"
    },
    {
      "constant": false,
      "inputs": [
        {
          "internalType": "uint256",
          "name": "_generationAmount",
          "type": "uint256"
        }
      ],
      "name": "updateGenerationAmount",
      "outputs": [],
      "payable": false,
      "stateMutability": "nonpayable",
      "type": "function"
    },
    {
      "constant": true,
      "inputs": [],
      "name": "getGenerationAmount",
      "outputs": [
        {
          "internalType": "uint256",
          "name": "",
          "type": "uint256"
        }
      ],
      "payable": false,
      "stateMutability": "view",
      "type": "function"
    },
    {
      "constant": false,
      "inputs": [],
      "name": "mine",
      "outputs": [],
      "payable": false,
      "stateMutability": "nonpayable",
      "type": "function"
    },
    {
      "constant": false,
      "inputs": [
        {
          "internalType": "address",
          "name": "_newCommunityContributionAccount",
          "type": "address"
        }
      ],
      "name": "updateCommunityContributionAccount",
      "outputs": [],
      "payable": false,
      "stateMutability": "nonpayable",
      "type": "function"
    },
    {
      "constant": false,
      "inputs": [
        {
          "internalType": "uint256",
          "name": "_communityContribution",
          "type": "uint256"
        }
      ],
      "name": "updateCommunityContribution",
      "outputs": [],
      "payable": false,
      "stateMutability": "nonpayable",
      "type": "function"
    },
    {
      "constant": false,
      "inputs": [
        {
          "internalType": "uint256",
          "name": "_transactionFee",
          "type": "uint256"
        }
      ],
      "name": "updateTransactionFee",
      "outputs": [],
      "payable": false,
      "stateMutability": "nonpayable",
      "type": "function"
    },
    {
      "constant": false,
      "inputs": [
        {
          "internalType": "bool",
          "name": "_confirm",
          "type": "bool"
        },
        {
          "internalType": "address payable",
          "name": "_recoverFunds",
          "type": "address"
        }
      ],
      "name": "terminateCurrency",
      "outputs": [],
      "payable": false,
      "stateMutability": "nonpayable",
      "type": "function"
    }
  ],
  "bytecode": "0x60806040523480156200001157600080fd5b5060405162003f1538038062003f1583398181016040526101608110156200003857600080fd5b81019080805160405193929190846401000000008211156200005957600080fd5b9083019060208201858111156200006f57600080fd5b82516401000000008111828201881017156200008a57600080fd5b82525081516020918201929091019080838360005b83811015620000b95781810151838201526020016200009f565b50505050905090810190601f168015620000e75780820380516001836020036101000a031916815260200191505b50604052602001805160405193929190846401000000008211156200010b57600080fd5b9083019060208201858111156200012157600080fd5b82516401000000008111828201881017156200013c57600080fd5b82525081516020918201929091019080838360005b838110156200016b57818101518382015260200162000151565b50505050905090810190601f168015620001995780820380516001836020036101000a031916815260200191505b5060409081526020820151908201516060830151608084015160a085015160c086015160e0870151610100880151610120909801519699509497509295919490939190808b8b8b620001f4336001600160e01b03620002ed16565b82516200020990600490602086019062000435565b5081516200021f90600590602085019062000435565b506006805460ff191660ff9290921691909117905550506001600160a01b038116620002625760068054610100600160a81b031916336101000217905562000283565b60068054610100600160a81b0319166101006001600160a01b038416021790555b506008889055600e879055600d86905560108590556011849055600f839055601280546001600160a01b0319166001600160a01b03848116919091179182905516620002dc57601280546001600160a01b031916331790555b5050505050505050505050620004da565b620003088160036200033f60201b620034dc1790919060201c565b6040516001600160a01b038216907f6ae172837ea30b801fbfcdd4108aa1d5bf8ff775444fd70256b44e6bf3dfc3f690600090a250565b6200035482826001600160e01b03620003cc16565b15620003a7576040805162461bcd60e51b815260206004820152601f60248201527f526f6c65733a206163636f756e7420616c72656164792068617320726f6c6500604482015290519081900360640190fd5b6001600160a01b0316600090815260209190915260409020805460ff19166001179055565b60006001600160a01b038216620004155760405162461bcd60e51b815260040180806020018281038252602281526020018062003ef36022913960400191505060405180910390fd5b506001600160a01b03166000908152602091909152604090205460ff1690565b828054600181600116156101000203166002900490600052602060002090601f016020900481019282601f106200047857805160ff1916838001178555620004a8565b82800160010185558215620004a8579182015b82811115620004a85782518255916020019190600101906200048b565b50620004b6929150620004ba565b5090565b620004d791905b80821115620004b65760008155600101620004c1565b90565b613a0980620004ea6000396000f3fe6080604052600436106103ad5760003560e01c80638e505f4e116101e7578063d0a966ac1161010d578063ed451dff116100a0578063f77c47911161006f578063f77c479114610e1f578063f89f4e7714610e34578063f9128ed514610e67578063fbda28dc14610e9a576103ad565b8063ed451dff14610d59578063ed52f18214610d83578063f16dfbe914610db6578063f1b4e94114610de9576103ad565b8063e3321e1f116100dc578063e3321e1f14610cb0578063e49ac4cd14610ce5578063e60e0de614610d11578063ecd7dba614610d44576103ad565b8063d0a966ac14610c0f578063d6f8458214610c24578063dd62ed3e14610c60578063df6d57c114610c9b576103ad565b80639ed3edf011610185578063a990ecd411610154578063a990ecd414610b6c578063aa271e1a14610b81578063b9a84a0d14610bb4578063cfe3b78414610bde576103ad565b80639ed3edf014610ab2578063a457c2d714610ac7578063a707603814610b00578063a9059cbb14610b33576103ad565b806395d89b41116101c157806395d89b4114610a40578063983b2d5614610a555780639865027514610a8857806399f4b25114610a9d576103ad565b80638e505f4e146109ab5780638f2553e6146109e657806390e58b9c14610a10576103ad565b806339509351116102d75780635784969f1161026a5780637d64bcb4116102395780637d64bcb4146105625780637ee6b8cf1461092157806388db93a7146109635780638c4afaf614610996576103ad565b80635784969f1461087657806369d24f63146108a057806370a08231146108b557806379cc6790146108e8576103ad565b806342cbb15c116102a657806342cbb15c146107ce578063542a9c83146107e3578063544aeaf61461081957806354ffa8ef1461084c576103ad565b806339509351146106ff5780633cebb8231461073857806340c10f191461076b57806342966c68146107a4576103ad565b806318369a2a1161034f57806320147c6f1161031e57806320147c6f146105fe57806323b872dd1461064057806330289c6114610683578063313ce567146106d4576103ad565b806318369a2a1461058c5780631b3ed722146105a15780631d718f04146105b65780631f19216f146105e9576103ad565b8063096d59dd1161038b578063096d59dd146105025780630ee97696146105385780631249c58b1461056257806318160ddd14610577576103ad565b806302a69e48146103e657806306fdde031461042b578063095ea7b3146104b5575b60405162461bcd60e51b81526004018080602001828103825260218152602001806136f56021913960400191505060405180910390fd5b005b3480156103f257600080fd5b506104196004803603602081101561040957600080fd5b50356001600160a01b0316610ecd565b60408051918252519081900360200190f35b34801561043757600080fd5b50610440610fb4565b6040805160208082528351818301528351919283929083019185019080838360005b8381101561047a578181015183820152602001610462565b50505050905090810190601f1680156104a75780820380516001836020036101000a031916815260200191505b509250505060405180910390f35b3480156104c157600080fd5b506104ee600480360360408110156104d857600080fd5b506001600160a01b03813516906020013561104a565b604080519115158252519081900360200190f35b34801561050e57600080fd5b506104196004803603606081101561052557600080fd5b5080359060208101359060400135611061565b34801561054457600080fd5b506103e46004803603602081101561055b57600080fd5b50356110a1565b34801561056e57600080fd5b506104ee6111e5565b34801561058357600080fd5b5061041961126c565b34801561059857600080fd5b50610419611272565b3480156105ad57600080fd5b50610419611278565b3480156105c257600080fd5b50610419600480360360208110156105d957600080fd5b50356001600160a01b031661127f565b3480156105f557600080fd5b50610419611291565b34801561060a57600080fd5b50610419600480360360a081101561062157600080fd5b5080359060208101359060408101359060608101359060800135611296565b34801561064c57600080fd5b506104ee6004803603606081101561066357600080fd5b506001600160a01b03813581169160208101359091169060400135611349565b34801561068f57600080fd5b506106b6600480360360208110156106a657600080fd5b50356001600160a01b0316611390565b60408051938452602084019290925282820152519081900360600190f35b3480156106e057600080fd5b506106e96113c1565b6040805160ff9092168252519081900360200190f35b34801561070b57600080fd5b506104ee6004803603604081101561072257600080fd5b506001600160a01b0381351690602001356113ca565b34801561074457600080fd5b506103e46004803603602081101561075b57600080fd5b50356001600160a01b031661140b565b34801561077757600080fd5b506104ee6004803603604081101561078e57600080fd5b506001600160a01b0381351690602001356114b9565b3480156107b057600080fd5b506103e4600480360360208110156107c757600080fd5b5035611509565b3480156107da57600080fd5b50610419611516565b3480156107ef57600080fd5b506104196004803603606081101561080657600080fd5b508035906020810135906040013561151a565b34801561082557600080fd5b506104196004803603602081101561083c57600080fd5b50356001600160a01b031661153f565b34801561085857600080fd5b506103e46004803603602081101561086f57600080fd5b5035611551565b34801561088257600080fd5b506103e46004803603602081101561089957600080fd5b5035611695565b3480156108ac57600080fd5b506104196117d9565b3480156108c157600080fd5b50610419600480360360208110156108d857600080fd5b50356001600160a01b03166117df565b3480156108f457600080fd5b506103e46004803603604081101561090b57600080fd5b506001600160a01b0381351690602001356117fa565b34801561092d57600080fd5b50610419600480360360a081101561094457600080fd5b5080359060208101359060408101359060608101359060800135611808565b34801561096f57600080fd5b506104196004803603602081101561098657600080fd5b50356001600160a01b03166118a6565b3480156109a257600080fd5b50610419611913565b3480156109b757600080fd5b506103e4600480360360408110156109ce57600080fd5b508035151590602001356001600160a01b0316611919565b3480156109f257600080fd5b506103e460048036036020811015610a0957600080fd5b5035611a6e565b348015610a1c57600080fd5b5061041960048036036040811015610a3357600080fd5b5080359060200135611bb2565b348015610a4c57600080fd5b50610440611bd3565b348015610a6157600080fd5b506103e460048036036020811015610a7857600080fd5b50356001600160a01b0316611c34565b348015610a9457600080fd5b506103e4611c81565b348015610aa957600080fd5b506103e4611c8c565b348015610abe57600080fd5b50610419611cca565b348015610ad357600080fd5b506104ee60048036036040811015610aea57600080fd5b506001600160a01b038135169060200135611cd0565b348015610b0c57600080fd5b5061041960048036036020811015610b2357600080fd5b50356001600160a01b0316611d0c565b348015610b3f57600080fd5b506104ee60048036036040811015610b5657600080fd5b506001600160a01b038135169060200135611d1e565b348015610b7857600080fd5b50610419611fd5565b348015610b8d57600080fd5b506104ee60048036036020811015610ba457600080fd5b50356001600160a01b0316611fdb565b348015610bc057600080fd5b506103e460048036036020811015610bd757600080fd5b5035611fee565b348015610bea57600080fd5b50610bf3612132565b604080516001600160a01b039092168252519081900360200190f35b348015610c1b57600080fd5b50610419612141565b348015610c3057600080fd5b5061041960048036036080811015610c4757600080fd5b5080359060208101359060408101359060600135612147565b348015610c6c57600080fd5b5061041960048036036040811015610c8357600080fd5b506001600160a01b0381358116916020013516612218565b348015610ca757600080fd5b50610419612243565b348015610cbc57600080fd5b506103e460048036036040811015610cd357600080fd5b5060ff81351690602001351515612249565b348015610cf157600080fd5b506103e460048036036020811015610d0857600080fd5b5035151561234e565b348015610d1d57600080fd5b506103e460048036036020811015610d3457600080fd5b50356001600160a01b031661241b565b348015610d5057600080fd5b50610419612578565b348015610d6557600080fd5b506103e460048036036020811015610d7c57600080fd5b503561257e565b348015610d8f57600080fd5b506104ee60048036036020811015610da657600080fd5b50356001600160a01b03166126c2565b348015610dc257600080fd5b506103e460048036036020811015610dd957600080fd5b50356001600160a01b03166126d7565b348015610df557600080fd5b5061041960048036036060811015610e0c57600080fd5b5080359060208101359060400135612847565b348015610e2b57600080fd5b50610bf361287a565b348015610e4057600080fd5b506103e460048036036020811015610e5757600080fd5b50356001600160a01b031661288e565b348015610e7357600080fd5b506103e460048036036020811015610e8a57600080fd5b50356001600160a01b03166129f0565b348015610ea657600080fd5b506103e460048036036020811015610ebd57600080fd5b50356001600160a01b0316612c02565b6001600160a01b03811660009081526009602090815260408083205483835281842054600b909352908320548392610f0792914390612147565b6001600160a01b03841660009081526020819052604081205491925090610f34908363ffffffff612d6116565b6001600160a01b0385166000908152600a6020526040902054909150610f5d579150610faf9050565b6000610f9743600a6000886001600160a01b03166001600160a01b0316815260200190815260200160002054600854600e54600d54611808565b9050610fa9828263ffffffff612dbe16565b93505050505b919050565b60048054604080516020601f60026000196101006001881615020190951694909404938401819004810282018101909252828152606093909290918301828280156110405780601f1061101557610100808354040283529160200191611040565b820191906000526020600020905b81548152906001019060200180831161102357829003601f168201915b5050505050905090565b6000611057338484612e18565b5060015b92915050565b60006305f5e1006110988161108c85611080898963ffffffff612f0416565b9063ffffffff612f0416565b9063ffffffff612f5d16565b95945050505050565b60065461010090046001600160a01b031633146110f3576040805162461bcd60e51b815260206004820181905260248201526000805160206137c0833981519152604482015290519081900360640190fd5b600654600290600160a81b900460ff1615611143576040805162461bcd60e51b81526020600482018190526024820152600080516020613831833981519152604482015290519081900360640190fd5b60078160ff166020811061115357fe5b602081049091015460ff601f9092166101000a900416156111a9576040805162461bcd60e51b81526020600482018190526024820152600080516020613831833981519152604482015290519081900360640190fd5b60118290556040805183815290517fb0eafbd7bf0dfd994828ccc4941e26d6153f03fa274641773364c469893ecb4d9181900360200190a15050565b60006111f033611fdb565b61122b5760405162461bcd60e51b81526004018080602001828103825260308152602001806137e06030913960400191505060405180910390fd5b6040805162461bcd60e51b8152602060048201526011602482015270119d5b98dd1a5bdb88191a5cd8589b1959607a1b604482015290519081900360640190fd5b60025490565b600f5481565b620f424081565b600a6020526000908152604090205481565b600281565b60008415806112a3575081155b156112bf576112b8848463ffffffff612dbe16565b9050611098565b60006112e76112d4878963ffffffff612dbe16565b61108c89620f424063ffffffff612f0416565b90506000611312611305620f424061108c888663ffffffff612f0416565b859063ffffffff612dbe16565b9050611324868663ffffffff612dbe16565b81111561133e5761133b868663ffffffff612dbe16565b90505b979650505050505050565b6040805162461bcd60e51b81526020600482015260156024820152741d1c985b9cd9995c919c9bdb48191a5cd8589b1959605a1b6044820152905160009181900360640190fd5b6001600160a01b031660009081526009602090815260408083205483835281842054600b9093529220549192909190565b60065460ff1690565b3360008181526001602090815260408083206001600160a01b03871684529091528120549091611057918590611406908663ffffffff612dbe16565b612e18565b60065461010090046001600160a01b0316331461145d576040805162461bcd60e51b815260206004820181905260248201526000805160206137c0833981519152604482015290519081900360640190fd5b600680546001600160a01b0383166101008102610100600160a81b03199092169190911790915560408051918252517fc0c3fe6333763f87ec50ad1366067ab6f03fd677c62f3c20e50e9446afd32ef69181900360200190a150565b60006114c433611fdb565b6114ff5760405162461bcd60e51b81526004018080602001828103825260308152602001806137e06030913960400191505060405180910390fd5b6110578383612fc7565b61151333826130a5565b50565b4390565b60008061152d858563ffffffff612d6116565b9050611098818463ffffffff612f5d16565b600b6020526000908152604090205481565b60065461010090046001600160a01b031633146115a3576040805162461bcd60e51b815260206004820181905260248201526000805160206137c0833981519152604482015290519081900360640190fd5b600654600190600160a81b900460ff16156115f3576040805162461bcd60e51b81526020600482018190526024820152600080516020613831833981519152604482015290519081900360640190fd5b60078160ff166020811061160357fe5b602081049091015460ff601f9092166101000a90041615611659576040805162461bcd60e51b81526020600482018190526024820152600080516020613831833981519152604482015290519081900360640190fd5b60108290556040805183815290517ffbcfe400d40f66821e607b6730b04c270d0db7c3896db24e37c8faf589b2dce29181900360200190a15050565b60065461010090046001600160a01b031633146116e7576040805162461bcd60e51b815260206004820181905260248201526000805160206137c0833981519152604482015290519081900360640190fd5b600654600590600160a81b900460ff1615611737576040805162461bcd60e51b81526020600482018190526024820152600080516020613831833981519152604482015290519081900360640190fd5b60078160ff166020811061174757fe5b602081049091015460ff601f9092166101000a9004161561179d576040805162461bcd60e51b81526020600482018190526024820152600080516020613831833981519152604482015290519081900360640190fd5b60088290556040805183815290517f8fb16ec2895927adc6e3a99733210699b27690fdccf3ccf84d2be61df915f9239181900360200190a15050565b60085481565b6001600160a01b031660009081526020819052604090205490565b611804828261316c565b5050565b60008061181687878561151a565b9050600061182d620f42408763ffffffff612f5d16565b90506000611841828663ffffffff612f0416565b90506000611858620f42408363ffffffff612d6116565b90506000805b858110156118975761188d89611881620f424061108c868863ffffffff612f0416565b9063ffffffff612dbe16565b915060010161185e565b509a9950505050505050505050565b6001600160a01b03811660009081526009602090815260408083205483835281842054600b9093529083205483926118e092914390612147565b6001600160a01b03841660009081526020819052604090205490915061190c908263ffffffff612d6116565b9392505050565b60135481565b60065461010090046001600160a01b0316331461196b576040805162461bcd60e51b815260206004820181905260248201526000805160206137c0833981519152604482015290519081900360640190fd5b600654600890600160a81b900460ff16156119bb576040805162461bcd60e51b81526020600482018190526024820152600080516020613831833981519152604482015290519081900360640190fd5b60078160ff16602081106119cb57fe5b602081049091015460ff601f9092166101000a90041615611a21576040805162461bcd60e51b81526020600482018190526024820152600080516020613831833981519152604482015290519081900360640190fd5b600183151514611a625760405162461bcd60e51b81526004018080602001828103825260308152602001806137906030913960400191505060405180910390fd5b816001600160a01b0316ff5b60065461010090046001600160a01b03163314611ac0576040805162461bcd60e51b815260206004820181905260248201526000805160206137c0833981519152604482015290519081900360640190fd5b600654600490600160a81b900460ff1615611b10576040805162461bcd60e51b81526020600482018190526024820152600080516020613831833981519152604482015290519081900360640190fd5b60078160ff1660208110611b2057fe5b602081049091015460ff601f9092166101000a90041615611b76576040805162461bcd60e51b81526020600482018190526024820152600080516020613831833981519152604482015290519081900360640190fd5b600d8290556040805183815290517fa33ad833914e8c9f3e7ce6b82802aa3e930cf6dfde2d8a6149a42f6e78fb27129181900360200190a15050565b6000612710611bcb8161108c868663ffffffff612f0416565b949350505050565b60058054604080516020601f60026000196101006001881615020190951694909404938401819004810282018101909252828152606093909290918301828280156110405780601f1061101557610100808354040283529160200191611040565b611c3d33611fdb565b611c785760405162461bcd60e51b81526004018080602001828103825260308152602001806137e06030913960400191505060405180910390fd5b611513816131b1565b611c8a336131f9565b565b6013805460010190556040805143815290517f4229d50c63dbdc5551dd68e0a9879b01ac250cb31feaeba7588533462e6c7aaa9181900360200190a1565b60115481565b3360008181526001602090815260408083206001600160a01b03871684529091528120549091611057918590611406908663ffffffff612d6116565b60096020526000908152604090205481565b6000600080516020613872833981519152611d38336117df565b604080516020810192909252808252601c828201527f53656e6465722062616c616e6365206265666f726520757064617465000000006060830152519081900360800190a1611d86336129f0565b600080516020613872833981519152611d9e336117df565b604080516020810192909252808252601b828201527f53656e6465722062616c616e63652061667465722075706461746500000000006060830152519081900360800190a1600080516020613872833981519152611dfb846117df565b604080516020810192909252808252601f828201527f526563697069656e742062616c616e6365206265666f726520757064617465006060830152519081900360800190a1611e49836129f0565b600080516020613872833981519152611e61846117df565b604080516020810192909252808252601e828201527f526563697069656e742062616c616e63652061667465722075706461746500006060830152519081900360800190a133600090815260208190526040902054821115611ef45760405162461bcd60e51b81526004018080602001828103825260238152602001806138f56023913960400191505060405180910390fd5b6000611f0583601154601054613241565b90506000611f19848363ffffffff612d6116565b6001600160a01b03861660009081526020818152604080832054600854600b909352922054929350611f4f928492914391611296565b6001600160a01b0386166000908152600b60209081526040808320939093556009905220544314611f96576001600160a01b03851660009081526009602052604090204390555b336000908152600960205260409020544314611fbf573360009081526009602052604090204390555b611fc98582613360565b50600195945050505050565b600e5490565b600061105b60038363ffffffff61336d16565b60065461010090046001600160a01b03163314612040576040805162461bcd60e51b815260206004820181905260248201526000805160206137c0833981519152604482015290519081900360640190fd5b600654600390600160a81b900460ff1615612090576040805162461bcd60e51b81526020600482018190526024820152600080516020613831833981519152604482015290519081900360640190fd5b60078160ff16602081106120a057fe5b602081049091015460ff601f9092166101000a900416156120f6576040805162461bcd60e51b81526020600482018190526024820152600080516020613831833981519152604482015290519081900360640190fd5b600e8290556040805183815290517f430ef2291775088707f0aed2cc1058fee3b7f2f99b10dfa4107d1509b86da3f59181900360200190a15050565b6012546001600160a01b031681565b60105481565b6000848310156121885760405162461bcd60e51b815260040180806020018281038252602f815260200180613761602f913960400191505060405180910390fd5b8161219557506000611bcb565b8183106121a3575082611bcb565b60006121b5848763ffffffff612d6116565b9050806121c6576000915050611bcb565b60006121d8848863ffffffff612d6116565b905060006121f38261108c85620f424063ffffffff612f0416565b905061220c620f424061108c898463ffffffff612f0416565b98975050505050505050565b6001600160a01b03918216600090815260016020908152604080832093909416825291909152205490565b600e5481565b60065461010090046001600160a01b0316331461229b576040805162461bcd60e51b815260206004820181905260248201526000805160206137c0833981519152604482015290519081900360640190fd5b6001811515146122dc5760405162461bcd60e51b815260040180806020018281038252604b815260200180613716604b913960600191505060405180910390fd5b600160078360ff16602081106122ee57fe5b602091828204019190066101000a81548160ff0219169083151502179055507f0a1c4fbbe900dd991589095fcecc99c37b45915eb6e6574e7398954e874bbebe82604051808260ff1660ff16815260200191505060405180910390a15050565b60065461010090046001600160a01b031633146123a0576040805162461bcd60e51b815260206004820181905260248201526000805160206137c0833981519152604482015290519081900360640190fd5b806123dc5760405162461bcd60e51b815260040180806020018281038252605f81526020018061393c605f913960600191505060405180910390fd5b6006805460ff60a81b1916600160a81b1790556040517f3f6efc34971655abc7da08a1bf5e861a7e41e21c617aa42f0a9e1643ed4c199d90600090a150565b60065461010090046001600160a01b0316331461246d576040805162461bcd60e51b815260206004820181905260248201526000805160206137c0833981519152604482015290519081900360640190fd5b600654600090600160a81b900460ff16156124bd576040805162461bcd60e51b81526020600482018190526024820152600080516020613831833981519152604482015290519081900360640190fd5b60078160ff16602081106124cd57fe5b602081049091015460ff601f9092166101000a90041615612523576040805162461bcd60e51b81526020600482018190526024820152600080516020613831833981519152604482015290519081900360640190fd5b601280546001600160a01b0384166001600160a01b0319909116811790915560408051918252517f41ac1fb38d2383f4a7a06cb5a6cc6e099612e9f8835233773dfd98ef487f0bb09181900360200190a15050565b600d5481565b60065461010090046001600160a01b031633146125d0576040805162461bcd60e51b815260206004820181905260248201526000805160206137c0833981519152604482015290519081900360640190fd5b600654600890600160a81b900460ff1615612620576040805162461bcd60e51b81526020600482018190526024820152600080516020613831833981519152604482015290519081900360640190fd5b60078160ff166020811061263057fe5b602081049091015460ff601f9092166101000a90041615612686576040805162461bcd60e51b81526020600482018190526024820152600080516020613831833981519152604482015290519081900360640190fd5b600f8290556040805183815290517ffe907f1e713307f4d281f5c3f23673f83fb7c0ae005ff34aec76633abc90ab8c9181900360200190a15050565b600c6020526000908152604090205460ff1681565b60065461010090046001600160a01b03163314612729576040805162461bcd60e51b815260206004820181905260248201526000805160206137c0833981519152604482015290519081900360640190fd5b6001600160a01b0381166000908152600c60205260409020805460ff19166001179055600f541580159061277357506001600160a01b038116600090815260096020526040902054155b156127f35761278481600f54612fc7565b600f5460408051918252516001600160a01b038316917f0f6798a560793a54c3bcfe86a93cde1e73087d944c0ea20544137d4121396885919081900360200190a26008546127d990439063ffffffff612dbe16565b6001600160a01b0382166000908152600b60205260409020555b6001600160a01b0381166000818152600a602090815260408083204390819055600990925280832091909155517f619bf7388c3d01e96351d15ea181010fb3ae477b7d27b1bf9a40d0f9ac526f659190a250565b600061271061109861285a868686611061565b61286e8361108c898963ffffffff612f0416565b9063ffffffff612d6116565b60065461010090046001600160a01b031681565b60065461010090046001600160a01b031633146128e0576040805162461bcd60e51b815260206004820181905260248201526000805160206137c0833981519152604482015290519081900360640190fd5b600654600790600160a81b900460ff1615612930576040805162461bcd60e51b81526020600482018190526024820152600080516020613831833981519152604482015290519081900360640190fd5b60078160ff166020811061294057fe5b602081049091015460ff601f9092166101000a90041615612996576040805162461bcd60e51b81526020600482018190526024820152600080516020613831833981519152604482015290519081900360640190fd5b6001600160a01b0382166000818152600c60209081526040808320805460ff19166001179055600a909152808220439055517f0b3bb3963a5b889b711093b9a0d54f9532f011b9f7212e68e205e4d91c1de5c59190a25050565b6001600160a01b03811660009081526009602090815260408083205483835281842054600b90935290832054612a2892904390612147565b905060008115612a8257612a3c83836133d4565b6040805184815290519192506001600160a01b038516917f6f74b3eca06b903fc0adcd210776d0305bc65bde19c82200f70329eec3f1e5669181900360200190a2612a9d565b506001600160a01b0382166000908152602081905260409020545b6001600160a01b0383166000908152600c602052604081205460ff1615612bcc57612af643600a6000876001600160a01b03166001600160a01b0316815260200190815260200160002054600854600e54600d54611808565b90508015612bcc57612b088482612fc7565b6040805182815290516001600160a01b038616917fd5ee6b7d9a8d86ee35109671b287d23a05380d802f4a327dea2a68231378c689919081900360200190a2600d546001600160a01b0385166000908152600a6020526040902054612b7491906110809043908361151a565b6001600160a01b0385166000908152600a602090815260408083208054909401909355600854600b90915291902054612bb291839185914391611296565b6001600160a01b0385166000908152600b60205260409020555b6000831180612bdb5750600081115b15612bfc576001600160a01b03841660009081526009602052604090204390555b50505050565b60065461010090046001600160a01b03163314612c54576040805162461bcd60e51b815260206004820181905260248201526000805160206137c0833981519152604482015290519081900360640190fd5b60068054600160a81b900460ff1615612ca2576040805162461bcd60e51b81526020600482018190526024820152600080516020613831833981519152604482015290519081900360640190fd5b60078160ff1660208110612cb257fe5b602081049091015460ff601f9092166101000a90041615612d08576040805162461bcd60e51b81526020600482018190526024820152600080516020613831833981519152604482015290519081900360640190fd5b6001600160a01b0382166000818152600c6020908152604091829020805460ff19169055815192835290517ffc15dd3f26943a069c0abb77db936db2118c5826d2c99ce8d90290a5073559bd9281900390910190a15050565b600082821115612db8576040805162461bcd60e51b815260206004820152601e60248201527f536166654d6174683a207375627472616374696f6e206f766572666c6f770000604482015290519081900360640190fd5b50900390565b60008282018381101561190c576040805162461bcd60e51b815260206004820152601b60248201527f536166654d6174683a206164646974696f6e206f766572666c6f770000000000604482015290519081900360640190fd5b6001600160a01b038316612e5d5760405162461bcd60e51b81526004018080602001828103825260248152602001806139186024913960400191505060405180910390fd5b6001600160a01b038216612ea25760405162461bcd60e51b81526004018080602001828103825260228152602001806136d36022913960400191505060405180910390fd5b6001600160a01b03808416600081815260016020908152604080832094871680845294825291829020859055815185815291517f8c5be1e5ebec7d5bd14f71427d1e84f3dd0314c0f7b2291e5b200ac8c7c3b9259281900390910190a3505050565b600082612f135750600061105b565b82820282848281612f2057fe5b041461190c5760405162461bcd60e51b81526004018080602001828103825260218152602001806138516021913960400191505060405180910390fd5b6000808211612fb3576040805162461bcd60e51b815260206004820152601a60248201527f536166654d6174683a206469766973696f6e206279207a65726f000000000000604482015290519081900360640190fd5b6000828481612fbe57fe5b04949350505050565b6001600160a01b038216613022576040805162461bcd60e51b815260206004820152601f60248201527f45524332303a206d696e7420746f20746865207a65726f206164647265737300604482015290519081900360640190fd5b600254613035908263ffffffff612dbe16565b6002556001600160a01b038216600090815260208190526040902054613061908263ffffffff612dbe16565b6001600160a01b0383166000818152602081815260408083209490945583518581529351929391926000805160206138b48339815191529281900390910190a35050565b6001600160a01b0382166130ea5760405162461bcd60e51b81526004018080602001828103825260218152602001806138d46021913960400191505060405180910390fd5b6002546130fd908263ffffffff612d6116565b6002556001600160a01b038216600090815260208190526040902054613129908263ffffffff612d6116565b6001600160a01b038316600081815260208181526040808320949094558351858152935191936000805160206138b4833981519152929081900390910190a35050565b61317682826130a5565b6001600160a01b038216600090815260016020908152604080832033808552925290912054611804918491611406908563ffffffff612d6116565b6131c260038263ffffffff6134dc16565b6040516001600160a01b038216907f6ae172837ea30b801fbfcdd4108aa1d5bf8ff775444fd70256b44e6bf3dfc3f690600090a250565b61320a60038263ffffffff61355d16565b6040516001600160a01b038216907fe94479a9f7e1952cc78f2d6baab678adc1b772d936c6583def489e524cb6669290600090a250565b60008061324e8585611bb2565b9050600061325d868686611061565b9050600061326c878787612847565b905061327e828263ffffffff612dbe16565b83146132bb5760405162461bcd60e51b815260040180806020018281038252603a81526020018061399b603a913960400191505060405180910390fd5b8015613301576132ca81611509565b60408051828152905133917fd98d62df90bc7fdf81c1ca8995757b5ff2f1b629d71fbe5bd68ff297bb372883919081900360200190a25b81156133555760125461331d906001600160a01b031683613360565b5060408051838152905133917f3ac7a027ea1c0995b6337236934d07249e6cb4475c7b39157ee119989f5c27b3919081900360200190a25b509095945050505050565b60006110573384846135c4565b60006001600160a01b0382166133b45760405162461bcd60e51b81526004018080602001828103825260228152602001806138926022913960400191505060405180910390fd5b506001600160a01b03166000908152602091909152604090205460ff1690565b6001600160a01b0382166000908152602081905260408120548211156133f957600080fd5b6001600160a01b038316600090815260208190526040902054613422908363ffffffff612d6116565b6001600160a01b03841660009081526020819052604090205560025461344e908363ffffffff612d6116565b6002556040805183815290516001600160a01b038516917fcc16f5dbb4873280815c1ee09dbd06736cffcc184412cf7a71a0fdb75d397ca5919081900360200190a26040805183815290516000916001600160a01b038616916000805160206138b48339815191529181900360200190a350506001600160a01b031660009081526020819052604090205490565b6134e6828261336d565b15613538576040805162461bcd60e51b815260206004820152601f60248201527f526f6c65733a206163636f756e7420616c72656164792068617320726f6c6500604482015290519081900360640190fd5b6001600160a01b0316600090815260209190915260409020805460ff19166001179055565b613567828261336d565b6135a25760405162461bcd60e51b81526004018080602001828103825260218152602001806138106021913960400191505060405180910390fd5b6001600160a01b0316600090815260209190915260409020805460ff19169055565b6001600160a01b0382166136095760405162461bcd60e51b81526004018080602001828103825260238152602001806136b06023913960400191505060405180910390fd5b6001600160a01b038316600090815260208190526040902054613632908263ffffffff612d6116565b6001600160a01b038085166000908152602081905260408082209390935590841681522054613667908263ffffffff612dbe16565b6001600160a01b038084166000818152602081815260409182902094909455805185815290519193928716926000805160206138b483398151915292918290030190a350505056fe45524332303a207472616e7366657220746f20746865207a65726f206164647265737345524332303a20617070726f766520746f20746865207a65726f2061646472657373446f206e6f742073656e64206d6f6e657920746f2074686520636f6e7472616374546869732077696c6c207065726d616e656e746c792064697361626c652066756e6374696f6e2c20706c6561736520736574205f636f6e6669726d3d7472756520746f20636f6e6669726d43757272656e7420626c6f636b206d757374206265203e3d206c617374207472616e73616374696f6e20626c6f636b506c6561736520636f6e6669726d20796f752077616e7420746f2064657374726f79207468697320636f6e7472616374436f6e74726f6c6c6572206163636f756e742f636f6e7472616374206f6e6c794d696e746572526f6c653a2063616c6c657220646f6573206e6f74206861766520746865204d696e74657220726f6c65526f6c65733a206163636f756e7420646f6573206e6f74206861766520726f6c6546756e6374696f6e206675736520686173206265656e20747269676765726564536166654d6174683a206d756c7469706c69636174696f6e206f766572666c6f77dd970dd9b5bfe707922155b058a407655cb18288b807e2216442bca8ad83d6b5526f6c65733a206163636f756e7420697320746865207a65726f2061646472657373ddf252ad1be2c89b69c2b068fc378daa952ba7f163c4a11628f55a4df523b3ef45524332303a206275726e2066726f6d20746865207a65726f20616464726573734e6f7420656e6f7567682062616c616e636520746f206d616b65207472616e7366657245524332303a20617070726f76652066726f6d20746865207a65726f2061646472657373546869732077696c6c207065726d616e656e746c792064697361626c652066756e6374696f6e20616c6c2066757365642066756e6374696f6e732c20706c6561736520736574205f636f6e6669726d3d7472756520746f20636f6e6669726d66656573496e63436f6e747269627574696f6e2073686f756c6420657175616c20636f6e747269627574696f6e202b2066656573546f4275726ea265627a7a723158208f090bdac508c810bd5c42a74c2ea83b33184863d3dd8eb0af9593528a381d8964736f6c63430005100032526f6c65733a206163636f756e7420697320746865207a65726f2061646472657373",
  "source": "pragma solidity ^0.5.8;\n\n/**\n    @title An open source smart contract for a UBI token with demurrage that\n        gives control of the currency to the community.\n    @author The Value Instrument Team\n    @notice In the current form, the contract does not use a decentralised\n        approach to identification. It relies on the use of the key associated\n        with the 'community' address as a special account that confirms the\n        validity of a particular person. For example, a community like enkel\n        would confirm that we know who \"Bob Smith\" is, and that he doesn't have\n        an account already. The community handles the processes of verifying\n        participants, and is responsible for any KYC process that may be\n        required now or in the future. We don't know what laws apply to the\n        deployment and use of this smart contract.\n    @dev This contract was developed for solc 0.5.8\n    @dev Contract prioritised readability and testability over performance and\n        minimisation of gas. Performance tweaking can come later.\n*/\n\nimport './lib/openzeppelin-solidity/contracts/token/ERC20/ERC20Mintable.sol';\nimport './lib/openzeppelin-solidity/contracts/token/ERC20/ERC20Burnable.sol';\nimport './lib/openzeppelin-solidity/contracts/token/ERC20/ERC20Detailed.sol';\nimport './lib/openzeppelin-solidity/contracts/math/Math.sol';\nimport './FusedController.sol';\n\n/// @notice One contract is deployed for each community\n/// @dev Based on openzeppelin's burnable and mintable ERC20 tokens\ncontract VICoin is\n    ERC20Mintable,\n    ERC20Burnable,\n    ERC20Detailed,\n    FusedController\n{\n\n    using SafeMath for uint;\n    using SafeMath for int;\n\n    // 1. Limited lifetime (decayed tokens)\n\n    uint public lifetime;\n    // number of blocks until balance decays to zero\n    mapping (address => uint) public lastTransactionBlock;\n    // last incoming transaction\n    mapping (address => uint) public lastGenerationBlock;\n    // last generation received\n    mapping (address => uint) public zeroBlock;\n    // current 0 balance block\n\n    // 2. Generation (new tokens)\n\n    mapping (address => bool) public accountApproved;\n    // is the account approved to receive generation\n    uint public generationPeriod;\n    // blocks between each generation period\n    uint public generationAmount;\n    // tokens issued to each account at each generation period\n    uint public initialBalance;\n    // starting balance for a new account\n\n    // 3. Fees and contribution\n    uint public communityContribution;\n    // contribution % taken from the transaction fee on every transfer\n    uint public transactionFee;\n    // transaction fee % taken from every transfer\n    address public communityContributionAccount;\n    // account that receives the contribution payments\n\n    // Constants\n    uint constant public multiplier = 10 ** 6;\n    // accuracy for floating point multiplication\n    uint constant public contributionFeeDecimals = 2;\n    // number of decimal places for contribution and fee %\n\n\n    // Testing\n    uint public blocksMined;\n    // blocks mined manually (for testing)\n\n    // Events:\n    event IncomeReceived(address indexed _account, uint _income);\n    event Decay(address indexed _account, uint _decay);\n    event Mint(address indexed to, uint value);\n    event VerifyAccount(address indexed _account);\n    event Burn(address indexed to, uint value);\n    event PaidContribution(address indexed to, uint value);\n    event BurnedFees(address indexed to, uint value);\n    event ApproveAccount(address indexed _account);\n    event UnapproveAccount(address _account);\n    event UpdateLifetime(uint _lifetime);\n    event UpdateInitialBalance(uint _initialBalance);\n    event UpdateGenerationAmount(uint _generationAmount);\n    event UpdateGenerationPeriod(uint _generationPeriod);\n    event UpdateCommunityContributionAccount(address _newCommunityContributionAccount);\n    event UpdateTransactionFee(uint _transactionFee);\n    event UpdateCommunityContribution(uint _communityContribution);\n    event Mined(uint _block);\n    event Log(string _name, uint _value);\n\n    constructor(\n        string memory _name,\n        string memory _symbol,\n        uint8 _decimals,\n        uint _lifetime,\n        uint _generationAmount,\n        uint _generationPeriod,\n        uint _communityContribution,\n        uint _transactionFee,\n        uint _initialBalance,\n        address _communityContributionAccount,\n        address _controller\n    )\n        ERC20Detailed(_name, _symbol, _decimals)\n        FusedController(_controller)\n        public\n    {\n        lifetime = _lifetime;\n        generationAmount = _generationAmount;\n        generationPeriod = _generationPeriod;\n        communityContribution = _communityContribution;\n        transactionFee = _transactionFee;\n        initialBalance = _initialBalance;\n        communityContributionAccount = _communityContributionAccount;\n        if (communityContributionAccount == address(0)) communityContributionAccount = msg.sender;\n    }\n\n    function () external payable {\n        require(1 == 2, \"Do not send money to the contract\");\n    }\n\n    /** @notice Calculate the number of generation periods since the last\n            generation block\n        @return The number of completed periods since last generation block*/\n    function calcNumCompletedPeriods(\n        uint _blockNumber,\n        uint _lastGenerationBlock,\n        uint _generationPeriod\n    )\n        public\n        pure\n        returns (uint)\n    {\n        uint blocksSinceLastGeneration = _blockNumber.sub(_lastGenerationBlock);\n        return blocksSinceLastGeneration.div(_generationPeriod);\n    }\n\n    /// @notice Manually trigger an onchain update of the live balance\n    function triggerOnchainBalanceUpdate(address _account) public {\n\n        // 1. Decay the balance\n        uint decay = calcDecay(\n            lastTransactionBlock[_account],\n            _balances[_account],\n            block.number,\n            zeroBlock[_account]\n        );\n        uint decayedBalance;\n        if (decay > 0) {\n            decayedBalance = burnAt(_account, decay);\n            emit Decay(_account, decay);\n        } else {\n            decayedBalance = _balances[_account];\n        }\n\n        // 2. Generate tokens\n        uint generationAccrued;\n        if (accountApproved[_account]) {\n            // Calculate the accrued generation, taking into account decay\n            generationAccrued = calcGeneration(\n                block.number,\n                lastGenerationBlock[_account],\n                lifetime,\n                generationAmount,\n                generationPeriod\n            );\n\n            if (generationAccrued > 0) {\n                // Issue the generated tokens\n                _mint(_account, generationAccrued);\n                emit IncomeReceived(_account, generationAccrued);\n\n                // Record the last generation block\n                lastGenerationBlock[_account] += calcNumCompletedPeriods(\n                    block.number,\n                    lastGenerationBlock[_account],\n                    generationPeriod\n                ).mul(generationPeriod);\n\n                // Extend the zero block\n                zeroBlock[_account] = calcZeroBlock(\n                    generationAccrued,\n                    decayedBalance,\n                    block.number,\n                    lifetime,\n                    zeroBlock[_account]\n                );\n\n            }\n        }\n        // Record the last transaction block\n        if (decay > 0 || generationAccrued > 0) {\n            lastTransactionBlock[_account] = block.number;\n        }\n    }\n\n    /** @notice Calculate the generation accrued since the last generation\n            period\n        @dev This function contains a for loop, so in theory may fail for\n            accounts that have been inactive for an extremely long time. These\n            accounts will have zero balance anyway. */\n    function calcGeneration(\n        uint _blockNumber,\n        uint _lastGenerationBlock,\n        uint _lifetime,\n        uint _generationAmount,\n        uint _generationPeriod\n    )\n        public\n        pure\n        returns (uint)\n    {\n        uint numCompletePeriods = calcNumCompletedPeriods(\n            _blockNumber,\n            _lastGenerationBlock,\n            _generationPeriod\n        );\n\n        uint decayPerBlock = multiplier.div(_lifetime);\n        uint decayPerGenerationPeriod = decayPerBlock.mul(_generationPeriod);\n        uint remainingPerGenerationPeriod = multiplier.sub(\n            decayPerGenerationPeriod\n        );\n\n        uint generation;\n        for(uint i; i < numCompletePeriods; i++) {\n            generation = generation.mul(\n                remainingPerGenerationPeriod\n            ).div(multiplier).add(_generationAmount);\n        }\n        return generation;\n    }\n\n    /** @notice Return the real balance of the account, as of this block\n        @return Latest balance */\n    function liveBalanceOf(address _account) public view returns (uint) {\n        uint decay = calcDecay(\n            lastTransactionBlock[_account],\n            _balances[_account],\n            block.number,\n            zeroBlock[_account]\n        );\n        uint decayedBalance = _balances[_account].sub(decay);\n        if (lastGenerationBlock[_account] == 0) {\n            return(decayedBalance);\n        }\n        uint generationAccrued = calcGeneration(\n            block.number,\n            lastGenerationBlock[_account],\n            lifetime,\n            generationAmount,\n            generationPeriod\n        );\n        return decayedBalance.add(generationAccrued);\n    }\n\n    /** @notice Return the balance including decay up to the current block,\n                but ignoring any accrued generation\n        @return Balance after decay */\n    function getDecayedBalance(address _account) public view returns (uint) {\n        uint decay = calcDecay(\n            lastTransactionBlock[_account],\n            _balances[_account],\n            block.number,\n            zeroBlock[_account]\n        );\n        return _balances[_account].sub(decay);\n    }\n\n    /////////////////\n    // Transfer\n    /////////////////\n\n    /** @notice Transfer the currency from one account to another,\n                updating each account to reflect the time passed, and the\n                effects of the transfer\n        @return Success */\n    function transfer(address _to, uint _value) public returns (bool) {\n\n        // Process generation and decay for sender\n        emit Log(\"Sender balance before update\", balanceOf(msg.sender));\n        triggerOnchainBalanceUpdate(msg.sender);\n        emit Log(\"Sender balance after update\", balanceOf(msg.sender));\n\n        // Process generation and decay for recipient\n        emit Log(\"Recipient balance before update\", balanceOf(_to));\n        triggerOnchainBalanceUpdate(_to);\n        emit Log(\"Recipient balance after update\", balanceOf(_to));\n\n        require(\n            _balances[msg.sender] >= _value,\n            \"Not enough balance to make transfer\"\n        );\n\n        // Process fees and contribution\n        uint feesAndContribution = processFeesAndContribution(\n            _value,\n            transactionFee,\n            communityContribution\n        );\n        uint valueAfterFees = _value.sub(feesAndContribution);\n\n        //Extend zero block based on transfer\n        zeroBlock[_to] = calcZeroBlock(\n            valueAfterFees,\n            _balances[_to],\n            block.number,\n            lifetime,\n            zeroBlock[_to]\n        );\n\n        /* If they haven't already been updated (during decay or generation),\n            then update the lastTransactionBlock for both sender and recipient */\n        if (lastTransactionBlock[_to] != block.number) {\n            lastTransactionBlock[_to] = block.number;\n        }\n        if (lastTransactionBlock[msg.sender] != block.number) {\n            lastTransactionBlock[msg.sender] = block.number;\n        }\n\n        super.transfer(_to, valueAfterFees);\n\n        return true;\n    }\n\n    /// @notice transferFrom disabled\n    function transferFrom(address, address, uint256)\n        public\n        returns (bool)\n    {\n        revert(\"transferFrom disabled\");\n    }\n\n    /////////////////\n    // Contributiones and fees\n    /////////////////\n\n    /** @notice Calculate the contribution due. Contribution is a percentage taken from the fee\n        @dev Percentage to x dp as defined by contributionFeeDecimals e.g.\n            when contributionFeeDecimals is 2, 1200 is 12.00%\n        @return Tokens to pay as contribution */\n    function calcContribution(uint _value, uint _feeRate, uint _contributionRate)\n        public\n        pure\n        returns (uint)\n    {\n        uint contributionFeeMultiplier = (100 * 10**contributionFeeDecimals) ** 2;\n        return _value.mul(_feeRate).mul(_contributionRate).div(contributionFeeMultiplier);\n    }\n\n    /** @notice Calculate fees to burn. This is the fee % minus the contribution due\n        @dev Percentage to x dp as defined by contributionFeeDecimals e.g.\n            when contributionFeeDecimals is 2, 1200 is 12.00%\n        @return Tokens to burn as fees */\n    function calcFeesToBurn(uint _value, uint _feeRate, uint _contributionRate)\n        public\n        pure\n        returns (uint)\n    {\n        uint contributionFeeMultiplier = 100 * 10**contributionFeeDecimals;\n        return _value.mul(_feeRate).div(contributionFeeMultiplier).sub(\n            calcContribution(\n                _value,\n                _feeRate,\n                _contributionRate\n            )\n        );\n    }\n\n    /** @notice Calculate the total amount allocated for both fees and contribution\n            Contribution % is not relavent as contributiones are taken from the fee\n        @dev Percentage to x dp as defined by contributionFeeDecimals e.g.\n            when contributionFeeDecimals is 2, 1200 is 12.00%\n        @return Tokens to cover fees, inclusive of contribution */\n    function calcFeesIncContribution(uint _value, uint _feeRate)\n        public\n        pure\n        returns (uint)\n    {\n        uint contributionFeeMultiplier = 100 * 10**contributionFeeDecimals;\n        return _value.mul(_feeRate).div(contributionFeeMultiplier);\n    }\n\n    /** @notice Calculate the fees and contribution, send contribution to the communtiy account,\n            and burn the fees\n        @dev Percentage to x dp as defined by contributionFeeDecimals e.g.\n            when contributionFeeDecimals is 2, 1200 is 12.00%\n        @return The total amount used for fees and contribution */\n    function processFeesAndContribution(\n        uint _value,\n        uint _transactionFee,\n        uint _communityContribution)\n        internal\n        returns (uint)\n    {\n        uint feesIncContribution = calcFeesIncContribution(\n            _value,\n            _transactionFee\n        );\n        uint contribution = calcContribution(\n            _value,\n            _transactionFee,\n            _communityContribution\n        );\n        uint feesToBurn = calcFeesToBurn(\n            _value,\n            _transactionFee,\n            _communityContribution\n        );\n        require(feesIncContribution == contribution.add(feesToBurn),\n            \"feesIncContribution should equal contribution + feesToBurn\"\n        );\n\n        if (feesToBurn > 0) {\n            burn(feesToBurn);\n            emit BurnedFees(msg.sender, feesToBurn);\n        }\n\n        if (contribution > 0) {\n            super.transfer(communityContributionAccount, contribution);\n            emit PaidContribution(msg.sender, contribution);\n        }\n\n        return feesIncContribution;\n    }\n\n    ///////////////////////\n    // Decay\n    ///////////////////////\n\n    /// @notice Used only for debugging\n    function getDetails(address _account)\n        public\n        view\n        returns (uint _lastBlock, uint _balance, uint _zeroBlock)\n    {\n        _lastBlock = lastTransactionBlock[_account];\n        _balance = _balances[_account];\n        _zeroBlock = zeroBlock[_account];\n    }\n\n    /////////////////\n    // Burn / Decay\n    /////////////////\n\n    /** @notice Calculate the block at which the balance for this account will\n            be zero\n        @return Block at which balance is 0 */\n    function calcZeroBlock(\n        uint _value,\n        uint _balance,\n        uint _blockNumber,\n        uint _lifetime,\n        uint _originalZeroBlock\n    )\n        public\n        pure\n        returns (uint)\n    {\n        if (_balance == 0 || _originalZeroBlock == 0) {\n            // No other transaction to consider, so use the full lifetime\n            return _blockNumber.add(_lifetime);\n        }\n\n        /* transactionWeight is the ratio of the transfer value to the total\n            balance after the transfer */\n        uint transactionWeight = _value.mul(multiplier).div(\n            _balance.add(_value)\n        );\n\n        /* multiply the full lifetime by this ratio, and add\n            the result to the original zero block */\n        uint newZeroBlock = _originalZeroBlock.add(\n            _lifetime.mul(transactionWeight).div(multiplier)\n        );\n\n        if (newZeroBlock > _blockNumber.add(_lifetime)) {\n            newZeroBlock = _blockNumber.add(_lifetime);\n        }\n        return newZeroBlock;\n    }\n\n    /** @notice Burn balance at the specified address\n        @return Balance after the burn */\n    function burnAt(address _recipient, uint256 _value)\n        internal\n        returns (uint)\n    {\n        require(_value <= _balances[_recipient]);\n        _balances[_recipient] = _balances[_recipient].sub(_value);\n        _totalSupply = _totalSupply.sub(_value);\n        emit Burn(_recipient, _value);\n        emit Transfer(_recipient, address(0), _value);\n        return _balances[_recipient];\n    }\n\n    /** @notice Calculate the number of tokens decayed since the last transaction\n        @return Number of tokens decayed since last transaction */\n    function calcDecay(\n        uint _lastTransactionBlock,\n        uint _balance,\n        uint _thisBlock,\n        uint _zeroBlock\n    )\n        public\n        pure\n        returns (uint)\n    {\n        require(_thisBlock >= _lastTransactionBlock,\n            \"Current block must be >= last transaction block\"\n        );\n\n        // If zero block has not been set, decay = 0\n        if (_zeroBlock == 0) {\n            return 0;\n        }\n\n        // If zero block passed, decay all\n        if (_thisBlock >= _zeroBlock) {\n            return _balance;\n        }\n\n        // If no blocks passed since last transfer, nothing to decay\n        uint blocksSinceLast = _thisBlock.sub(_lastTransactionBlock);\n        if (blocksSinceLast == 0) {\n            return 0;\n        }\n        /* Otherwise linear burn based on 'distance' moved to zeroblock since\n            last transaction */\n        uint fullDistance = _zeroBlock.sub(_lastTransactionBlock);\n        uint relativeMovementToZero = blocksSinceLast.mul(\n            multiplier\n        ).div(fullDistance);\n        return _balance.mul(relativeMovementToZero).div(multiplier);\n    }\n\n    /** @notice Return the current block number\n        @return Current block number */\n    function getBlockNumber() public view returns (uint) {\n        return block.number;\n    }\n\n    /// @dev Disable ability to finishMinting\n    function finishMinting() public onlyMinter returns (bool) {\n        revert(\"Function disabled\");\n    }\n\n    /// @dev Disable ability to mint manually\n    function mint() public onlyMinter returns (bool) {\n        revert(\"Function disabled\");\n    }\n\n    /////////////////\n    // Approving / unapproving accounts\n    /////////////////\n\n    /// @notice Approve the specified account to receive generation\n    function approveAccount(address _account)\n        external\n        onlyController\n        fused(7)\n    {\n        accountApproved[_account] = true;\n        lastGenerationBlock[_account] = block.number;\n        emit ApproveAccount(_account);\n    }\n\n    /** @notice Unapprove the specified account so that it no longer receives\n        generation */\n    function unapproveAccount(address _account)\n        external\n        onlyController\n        fused(6)\n    {\n        accountApproved[_account] = false;\n        emit UnapproveAccount(_account);\n    }\n\n    /** @notice Create a new account with the specified role\n        @dev New accounts can always be created.\n            This function can't be disabled. */\n    function verifyAccount(\n        address _account\n    )\n        external\n        onlyController\n    {\n        accountApproved[_account] = true;\n        if (initialBalance > 0 && lastTransactionBlock[_account] == 0) {\n            _mint(_account, initialBalance);\n            emit Mint(_account, initialBalance);\n            zeroBlock[_account] = block.number.add(lifetime);\n        }\n        lastGenerationBlock[_account] = block.number;\n        lastTransactionBlock[_account] = block.number;\n        emit VerifyAccount(_account);\n    }\n\n    /////////////////\n    // Lockable constant updates\n    /////////////////\n\n    /// @notice Update the lifetime for this currency.\n    /// (The number of blocks after which a balance decays to zero)\n    function updateLifetime(uint _lifetime)\n        external\n        onlyController\n        fused(5)\n    {\n        lifetime = _lifetime;\n        emit UpdateLifetime(_lifetime);\n    }\n\n    /// @notice Update the balance issued to an account on creation\n    function updateInitialBalance(uint _initialBalance)\n        external\n        onlyController\n        fused(8)\n    {\n        initialBalance = _initialBalance;\n        emit UpdateInitialBalance(_initialBalance);\n    }\n\n    /// @notice Update the number of blocks between each generation period\n    function updateGenerationPeriod(uint _generationPeriod)\n        external\n        onlyController\n        fused(4)\n    {\n        generationPeriod = _generationPeriod;\n        //TODO: delete/update lastGenerationBlock to prevent calculation errors\n        emit UpdateGenerationPeriod(_generationPeriod);\n    }\n\n    /** @notice Update the number of tokens issued to each account after each\n            generation period */\n    function updateGenerationAmount(uint _generationAmount)\n        external\n        onlyController\n        fused(3)\n    {\n        generationAmount = _generationAmount;\n        emit UpdateGenerationAmount(_generationAmount);\n    }\n\n\n    /////////////////\n    // Getters\n    /////////////////\n\n    /** @notice Get the number of tokens issued to each account after each\n            generation period\n        @return Number of tokens issued during generation */\n    function getGenerationAmount() public view returns (uint) {\n        return generationAmount;\n    }\n\n    /////////////////\n    // For test purposes\n    /////////////////\n\n    /** @notice For testing purposes, manually mine a block to simulate the\n        passing of time */\n    function mine() public {\n        blocksMined = blocksMined + 1;\n        emit Mined(block.number);\n    }\n\n    /////////////////\n    // Adjust contributiones\n    /////////////////\n\n    /// @notice Set the address that the contribution will be sent to\n    function updateCommunityContributionAccount(address _newCommunityContributionAccount)\n        external\n        onlyController\n        fused(0)\n    {\n      \tcommunityContributionAccount = _newCommunityContributionAccount;\n        emit UpdateCommunityContributionAccount(_newCommunityContributionAccount);\n    }\n\n    /// @notice Set the contribution percentage, to be taken from the fee %\n    function updateCommunityContribution(uint _communityContribution)\n        external\n        onlyController\n        fused(1)\n    {\n        communityContribution = _communityContribution;\n        emit UpdateCommunityContribution(_communityContribution);\n    }\n\n    /// @notice Set the fee %, to be taken from every transaction\n    function updateTransactionFee(uint _transactionFee)\n        external\n        onlyController\n        fused(2)\n    {\n        transactionFee = _transactionFee;\n        emit UpdateTransactionFee(_transactionFee);\n    }\n\n    /// @notice Delete the contract. Only use for testing.\n    function terminateCurrency(bool _confirm, address payable _recoverFunds)\n        external\n        onlyController\n        fused(8)\n    {\n        require(\n            _confirm == true,\n            \"Please confirm you want to destroy this contract\"\n        );\n        selfdestruct(_recoverFunds);\n    }\n\n}\n",
  "sourcePath": "/home/grifma/Code/vi-admin-ui/contracts/VICoin.sol",
  "compiler": {
    "name": "solc",
    "version": "0.5.16+commit.9c3226ce.Emscripten.clang"
  },
  "schemaVersion": "3.0.23",
  "updatedAt": "2020-06-08T12:22:50.592Z",
  "networkType": "ethereum",
  "devdoc": {
    "details": "Based on openzeppelin's burnable and mintable ERC20 tokens",
    "methods": {
      "allowance(address,address)": {
        "details": "Function to check the amount of tokens that an owner allowed to a spender.",
        "params": {
          "owner": "address The address which owns the funds.",
          "spender": "address The address which will spend the funds."
        },
        "return": "A uint256 specifying the amount of tokens still available for the spender."
      },
      "approve(address,uint256)": {
        "details": "Approve the passed address to spend the specified amount of tokens on behalf of msg.sender. Beware that changing an allowance with this method brings the risk that someone may use both the old and the new allowance by unfortunate transaction ordering. One possible solution to mitigate this race condition is to first reduce the spender's allowance to 0 and set the desired value afterwards: https://github.com/ethereum/EIPs/issues/20#issuecomment-263524729",
        "params": {
          "spender": "The address which will spend the funds.",
          "value": "The amount of tokens to be spent."
        }
      },
      "balanceOf(address)": {
        "details": "Gets the balance of the specified address.",
        "params": {
          "owner": "The address to query the balance of."
        },
        "return": "A uint256 representing the amount owned by the passed address."
      },
      "burn(uint256)": {
        "details": "Burns a specific amount of tokens.",
        "params": {
          "value": "The amount of token to be burned."
        }
      },
      "burnFrom(address,uint256)": {
        "details": "Burns a specific amount of tokens from the target address and decrements allowance.",
        "params": {
          "from": "address The account whose tokens will be burned.",
          "value": "uint256 The amount of token to be burned."
        }
      },
      "calcContribution(uint256,uint256,uint256)": {
        "details": "Percentage to x dp as defined by contributionFeeDecimals e.g. when contributionFeeDecimals is 2, 1200 is 12.00%",
        "return": "Tokens to pay as contribution "
      },
      "calcDecay(uint256,uint256,uint256,uint256)": {
        "return": "Number of tokens decayed since last transaction "
      },
      "calcFeesIncContribution(uint256,uint256)": {
        "details": "Percentage to x dp as defined by contributionFeeDecimals e.g. when contributionFeeDecimals is 2, 1200 is 12.00%",
        "return": "Tokens to cover fees, inclusive of contribution "
      },
      "calcFeesToBurn(uint256,uint256,uint256)": {
        "details": "Percentage to x dp as defined by contributionFeeDecimals e.g. when contributionFeeDecimals is 2, 1200 is 12.00%",
        "return": "Tokens to burn as fees "
      },
      "calcGeneration(uint256,uint256,uint256,uint256,uint256)": {
        "details": "This function contains a for loop, so in theory may fail for accounts that have been inactive for an extremely long time. These accounts will have zero balance anyway. "
      },
      "calcNumCompletedPeriods(uint256,uint256,uint256)": {
        "return": "The number of completed periods since last generation block"
      },
      "calcZeroBlock(uint256,uint256,uint256,uint256,uint256)": {
        "return": "Block at which balance is 0 "
      },
      "decimals()": {
        "return": "the number of decimals of the token."
      },
      "decreaseAllowance(address,uint256)": {
        "details": "Decrease the amount of tokens that an owner allowed to a spender. approve should be called when _allowed[msg.sender][spender] == 0. To decrement allowed value is better to use this function to avoid 2 calls (and wait until the first transaction is mined) From MonolithDAO Token.sol Emits an Approval event.",
        "params": {
          "spender": "The address which will spend the funds.",
          "subtractedValue": "The amount of tokens to decrease the allowance by."
        }
      },
      "finishMinting()": {
        "details": "Disable ability to finishMinting"
      },
      "getBlockNumber()": {
        "return": "Current block number "
      },
      "getDecayedBalance(address)": {
        "return": "Balance after decay "
      },
      "getGenerationAmount()": {
        "return": "Number of tokens issued during generation "
      },
      "increaseAllowance(address,uint256)": {
        "details": "Increase the amount of tokens that an owner allowed to a spender. approve should be called when _allowed[msg.sender][spender] == 0. To increment allowed value is better to use this function to avoid 2 calls (and wait until the first transaction is mined) From MonolithDAO Token.sol Emits an Approval event.",
        "params": {
          "addedValue": "The amount of tokens to increase the allowance by.",
          "spender": "The address which will spend the funds."
        }
      },
      "liveBalanceOf(address)": {
        "return": "Latest balance "
      },
      "mint()": {
        "details": "Disable ability to mint manually"
      },
      "mint(address,uint256)": {
        "details": "Function to mint tokens",
        "params": {
          "to": "The address that will receive the minted tokens.",
          "value": "The amount of tokens to mint."
        },
        "return": "A boolean that indicates if the operation was successful."
      },
      "name()": {
        "return": "the name of the token."
      },
      "symbol()": {
        "return": "the symbol of the token."
      },
      "totalSupply()": {
        "details": "Total number of tokens in existence."
      },
      "transfer(address,uint256)": {
        "return": "Success "
      },
      "verifyAccount(address)": {
        "details": "New accounts can always be created. This function can't be disabled. "
      }
    }
  },
  "userdoc": {
    "methods": {
      "approveAccount(address)": {
        "notice": "//////////////Approve the specified account to receive generation"
      },
      "blowAllFuses(bool)": {
        "notice": "Functions"
      },
      "calcContribution(uint256,uint256,uint256)": {
        "notice": "Calculate the contribution due. Contribution is a percentage taken from the fee"
      },
      "calcDecay(uint256,uint256,uint256,uint256)": {
        "notice": "Calculate the number of tokens decayed since the last transaction"
      },
      "calcFeesIncContribution(uint256,uint256)": {
        "notice": "Calculate the total amount allocated for both fees and contribution Contribution % is not relavent as contributiones are taken from the fee"
      },
      "calcFeesToBurn(uint256,uint256,uint256)": {
        "notice": "Calculate fees to burn. This is the fee % minus the contribution due"
      },
      "calcGeneration(uint256,uint256,uint256,uint256,uint256)": {
        "notice": "Calculate the generation accrued since the last generation period"
      },
      "calcNumCompletedPeriods(uint256,uint256,uint256)": {
        "notice": "Calculate the number of generation periods since the last generation block"
      },
      "calcZeroBlock(uint256,uint256,uint256,uint256,uint256)": {
        "notice": "Calculate the block at which the balance for this account will be zero"
      },
      "getBlockNumber()": {
        "notice": "Return the current block number"
      },
      "getDecayedBalance(address)": {
        "notice": "Return the balance including decay up to the current block, but ignoring any accrued generation"
      },
      "getDetails(address)": {
        "notice": "////////////////////Used only for debugging"
      },
      "getGenerationAmount()": {
        "notice": "Get the number of tokens issued to each account after each generation period"
      },
      "liveBalanceOf(address)": {
        "notice": "Return the real balance of the account, as of this block"
      },
      "mine()": {
        "notice": "For testing purposes, manually mine a block to simulate the passing of time "
      },
      "terminateCurrency(bool,address)": {
        "notice": "Delete the contract. Only use for testing."
      },
      "transfer(address,uint256)": {
        "notice": "Transfer the currency from one account to another, updating each account to reflect the time passed, and the effects of the transfer"
      },
      "transferFrom(address,address,uint256)": {
        "notice": "transferFrom disabled"
      },
      "triggerOnchainBalanceUpdate(address)": {
        "notice": "Manually trigger an onchain update of the live balance"
      },
      "unapproveAccount(address)": {
        "notice": "Unapprove the specified account so that it no longer receives generation "
      },
      "updateCommunityContribution(uint256)": {
        "notice": "Set the contribution percentage, to be taken from the fee %"
      },
      "updateCommunityContributionAccount(address)": {
        "notice": "//////////////Set the address that the contribution will be sent to"
      },
      "updateGenerationAmount(uint256)": {
        "notice": "Update the number of tokens issued to each account after each generation period "
      },
      "updateGenerationPeriod(uint256)": {
        "notice": "Update the number of blocks between each generation period"
      },
      "updateInitialBalance(uint256)": {
        "notice": "Update the balance issued to an account on creation"
      },
      "updateLifetime(uint256)": {
        "notice": "//////////////Update the lifetime for this currency. (The number of blocks after which a balance decays to zero)"
      },
      "updateTransactionFee(uint256)": {
        "notice": "Set the fee %, to be taken from every transaction"
      },
      "verifyAccount(address)": {
        "notice": "Create a new account with the specified role"
      }
    },
    "notice": "One contract is deployed for each community"
  }
}