{
  "contractName": "WhitelistAdminRoleMock",
  "abi": [
    {
      "anonymous": false,
      "inputs": [
        {
          "indexed": true,
          "internalType": "address",
          "name": "account",
          "type": "address"
        }
      ],
      "name": "WhitelistAdminAdded",
      "type": "event"
    },
    {
      "anonymous": false,
      "inputs": [
        {
          "indexed": true,
          "internalType": "address",
          "name": "account",
          "type": "address"
        }
      ],
      "name": "WhitelistAdminRemoved",
      "type": "event"
    },
    {
      "constant": false,
      "inputs": [
        {
          "internalType": "address",
          "name": "account",
          "type": "address"
        }
      ],
      "name": "addWhitelistAdmin",
      "outputs": [],
      "payable": false,
      "stateMutability": "nonpayable",
      "type": "function"
    },
    {
      "constant": true,
      "inputs": [
        {
          "internalType": "address",
          "name": "account",
          "type": "address"
        }
      ],
      "name": "isWhitelistAdmin",
      "outputs": [
        {
          "internalType": "bool",
          "name": "",
          "type": "bool"
        }
      ],
      "payable": false,
      "stateMutability": "view",
      "type": "function"
    },
    {
      "constant": false,
      "inputs": [],
      "name": "renounceWhitelistAdmin",
      "outputs": [],
      "payable": false,
      "stateMutability": "nonpayable",
      "type": "function"
    },
    {
      "constant": false,
      "inputs": [
        {
          "internalType": "address",
          "name": "account",
          "type": "address"
        }
      ],
      "name": "removeWhitelistAdmin",
      "outputs": [],
      "payable": false,
      "stateMutability": "nonpayable",
      "type": "function"
    },
    {
      "constant": true,
      "inputs": [],
      "name": "onlyWhitelistAdminMock",
      "outputs": [],
      "payable": false,
      "stateMutability": "view",
      "type": "function"
    }
  ],
  "bytecode": "0x6080604052610016336001600160e01b0361001b16565b61015b565b61003381600061006a60201b6102b41790919060201c565b6040516001600160a01b038216907f22380c05984257a1cb900161c713dd71d39e74820f1aea43bd3f1bdd2096129990600090a250565b61007d82826001600160e01b036100f416565b156100cf576040805162461bcd60e51b815260206004820152601f60248201527f526f6c65733a206163636f756e7420616c72656164792068617320726f6c6500604482015290519081900360640190fd5b6001600160a01b0316600090815260209190915260409020805460ff19166001179055565b60006001600160a01b03821661013b5760405162461bcd60e51b81526004018080602001828103825260228152602001806105be6022913960400191505060405180910390fd5b506001600160a01b03166000908152602091909152604090205460ff1690565b6104548061016a6000396000f3fe608060405234801561001057600080fd5b50600436106100575760003560e01c80634c5a628c1461005c578063564c74a3146100665780636897e9741461006e5780637362d9c814610094578063bb5f747b146100ba575b600080fd5b6100646100f4565b005b6100646100ff565b6100646004803603602081101561008457600080fd5b50356001600160a01b0316610143565b610064600480360360208110156100aa57600080fd5b50356001600160a01b031661014f565b6100e0600480360360208110156100d057600080fd5b50356001600160a01b031661019c565b604080519115158252519081900360200190f35b6100fd336101b4565b565b6101083361019c565b6100fd5760405162461bcd60e51b81526004018080602001828103825260408152602001806103e06040913960400191505060405180910390fd5b61014c816101b4565b50565b6101583361019c565b6101935760405162461bcd60e51b81526004018080602001828103825260408152602001806103e06040913960400191505060405180910390fd5b61014c816101bd565b60006101ae818363ffffffff61020516565b92915050565b61014c8161026c565b6101ce60008263ffffffff6102b416565b6040516001600160a01b038216907f22380c05984257a1cb900161c713dd71d39e74820f1aea43bd3f1bdd2096129990600090a250565b60006001600160a01b03821661024c5760405162461bcd60e51b81526004018080602001828103825260228152602001806103be6022913960400191505060405180910390fd5b506001600160a01b03166000908152602091909152604090205460ff1690565b61027d60008263ffffffff61033516565b6040516001600160a01b038216907f0a8eb35e5ca14b3d6f28e4abf2f128dbab231a58b56e89beb5d636115001e16590600090a250565b6102be8282610205565b15610310576040805162461bcd60e51b815260206004820152601f60248201527f526f6c65733a206163636f756e7420616c72656164792068617320726f6c6500604482015290519081900360640190fd5b6001600160a01b0316600090815260209190915260409020805460ff19166001179055565b61033f8282610205565b61037a5760405162461bcd60e51b815260040180806020018281038252602181526020018061039d6021913960400191505060405180910390fd5b6001600160a01b0316600090815260209190915260409020805460ff1916905556fe526f6c65733a206163636f756e7420646f6573206e6f74206861766520726f6c65526f6c65733a206163636f756e7420697320746865207a65726f206164647265737357686974656c69737441646d696e526f6c653a2063616c6c657220646f6573206e6f742068617665207468652057686974656c69737441646d696e20726f6c65a265627a7a723158200a4b9cd90003ce7f8c7468efb07a379bf0abd03fb71c9356e48ca689019edb9064736f6c63430005100032526f6c65733a206163636f756e7420697320746865207a65726f2061646472657373",
  "source": "pragma solidity ^0.5.0;\n\nimport \"../access/roles/WhitelistAdminRole.sol\";\n\ncontract WhitelistAdminRoleMock is WhitelistAdminRole {\n    function removeWhitelistAdmin(address account) public {\n        _removeWhitelistAdmin(account);\n    }\n\n    function onlyWhitelistAdminMock() public view onlyWhitelistAdmin {\n        // solhint-disable-previous-line no-empty-blocks\n    }\n\n    // Causes a compilation error if super._removeWhitelistAdmin is not internal\n    function _removeWhitelistAdmin(address account) internal {\n        super._removeWhitelistAdmin(account);\n    }\n}\n",
  "sourcePath": "/home/grifma/Code/vi-admin-ui/contracts/lib/openzeppelin-solidity/contracts/mocks/WhitelistAdminRoleMock.sol",
  "compiler": {
    "name": "solc",
    "version": "0.5.16+commit.9c3226ce.Emscripten.clang"
  },
  "schemaVersion": "3.0.23",
  "updatedAt": "2020-05-14T11:10:26.119Z",
  "devdoc": {
    "methods": {}
  },
  "userdoc": {
    "methods": {}
  }
}