{
  "contractName": "WhitelistedRoleMock",
  "abi": [
    {
      "anonymous": false,
      "inputs": [
        {
          "indexed": true,
          "internalType": "address",
          "name": "account",
          "type": "address"
        }
      ],
      "name": "WhitelistAdminAdded",
      "type": "event"
    },
    {
      "anonymous": false,
      "inputs": [
        {
          "indexed": true,
          "internalType": "address",
          "name": "account",
          "type": "address"
        }
      ],
      "name": "WhitelistAdminRemoved",
      "type": "event"
    },
    {
      "anonymous": false,
      "inputs": [
        {
          "indexed": true,
          "internalType": "address",
          "name": "account",
          "type": "address"
        }
      ],
      "name": "WhitelistedAdded",
      "type": "event"
    },
    {
      "anonymous": false,
      "inputs": [
        {
          "indexed": true,
          "internalType": "address",
          "name": "account",
          "type": "address"
        }
      ],
      "name": "WhitelistedRemoved",
      "type": "event"
    },
    {
      "constant": false,
      "inputs": [
        {
          "internalType": "address",
          "name": "account",
          "type": "address"
        }
      ],
      "name": "addWhitelistAdmin",
      "outputs": [],
      "payable": false,
      "stateMutability": "nonpayable",
      "type": "function"
    },
    {
      "constant": false,
      "inputs": [
        {
          "internalType": "address",
          "name": "account",
          "type": "address"
        }
      ],
      "name": "addWhitelisted",
      "outputs": [],
      "payable": false,
      "stateMutability": "nonpayable",
      "type": "function"
    },
    {
      "constant": true,
      "inputs": [
        {
          "internalType": "address",
          "name": "account",
          "type": "address"
        }
      ],
      "name": "isWhitelistAdmin",
      "outputs": [
        {
          "internalType": "bool",
          "name": "",
          "type": "bool"
        }
      ],
      "payable": false,
      "stateMutability": "view",
      "type": "function"
    },
    {
      "constant": true,
      "inputs": [
        {
          "internalType": "address",
          "name": "account",
          "type": "address"
        }
      ],
      "name": "isWhitelisted",
      "outputs": [
        {
          "internalType": "bool",
          "name": "",
          "type": "bool"
        }
      ],
      "payable": false,
      "stateMutability": "view",
      "type": "function"
    },
    {
      "constant": false,
      "inputs": [
        {
          "internalType": "address",
          "name": "account",
          "type": "address"
        }
      ],
      "name": "removeWhitelisted",
      "outputs": [],
      "payable": false,
      "stateMutability": "nonpayable",
      "type": "function"
    },
    {
      "constant": false,
      "inputs": [],
      "name": "renounceWhitelistAdmin",
      "outputs": [],
      "payable": false,
      "stateMutability": "nonpayable",
      "type": "function"
    },
    {
      "constant": false,
      "inputs": [],
      "name": "renounceWhitelisted",
      "outputs": [],
      "payable": false,
      "stateMutability": "nonpayable",
      "type": "function"
    },
    {
      "constant": true,
      "inputs": [],
      "name": "onlyWhitelistedMock",
      "outputs": [],
      "payable": false,
      "stateMutability": "view",
      "type": "function"
    }
  ],
  "bytecode": "0x6080604052610016336001600160e01b0361001b16565b61015b565b61003381600061006a60201b61046d1790919060201c565b6040516001600160a01b038216907f22380c05984257a1cb900161c713dd71d39e74820f1aea43bd3f1bdd2096129990600090a250565b61007d82826001600160e01b036100f416565b156100cf576040805162461bcd60e51b815260206004820152601f60248201527f526f6c65733a206163636f756e7420616c72656164792068617320726f6c6500604482015290519081900360640190fd5b6001600160a01b0316600090815260209190915260409020805460ff19166001179055565b60006001600160a01b03821661013b5760405162461bcd60e51b81526004018080602001828103825260228152602001806107b16022913960400191505060405180910390fd5b506001600160a01b03166000908152602091909152604090205460ff1690565b6106478061016a6000396000f3fe608060405234801561001057600080fd5b50600436106100885760003560e01c80637362d9c81161005b5780637362d9c81461011d5780637491c97e14610143578063bb5f747b1461014b578063d6cd94731461017157610088565b806310154bad1461008d578063291d9549146100b55780633af32abf146100db5780634c5a628c14610115575b600080fd5b6100b3600480360360208110156100a357600080fd5b50356001600160a01b0316610179565b005b6100b3600480360360208110156100cb57600080fd5b50356001600160a01b03166101c9565b610101600480360360208110156100f157600080fd5b50356001600160a01b0316610216565b604080519115158252519081900360200190f35b6100b361022f565b6100b36004803603602081101561013357600080fd5b50356001600160a01b031661023a565b6100b3610287565b6101016004803603602081101561016157600080fd5b50356001600160a01b03166102cb565b6100b36102dd565b610182336102cb565b6101bd5760405162461bcd60e51b81526004018080602001828103825260408152602001806105996040913960400191505060405180910390fd5b6101c6816102e6565b50565b6101d2336102cb565b61020d5760405162461bcd60e51b81526004018080602001828103825260408152602001806105996040913960400191505060405180910390fd5b6101c68161032e565b600061022960018363ffffffff61037616565b92915050565b610238336103dd565b565b610243336102cb565b61027e5760405162461bcd60e51b81526004018080602001828103825260408152602001806105996040913960400191505060405180910390fd5b6101c681610425565b61029033610216565b6102385760405162461bcd60e51b815260040180806020018281038252603a8152602001806105d9603a913960400191505060405180910390fd5b6000610229818363ffffffff61037616565b6102383361032e565b6102f760018263ffffffff61046d16565b6040516001600160a01b038216907fee1504a83b6d4a361f4c1dc78ab59bfa30d6a3b6612c403e86bb01ef2984295f90600090a250565b61033f60018263ffffffff6104ee16565b6040516001600160a01b038216907f270d9b30cf5b0793bbfd54c9d5b94aeb49462b8148399000265144a8722da6b690600090a250565b60006001600160a01b0382166103bd5760405162461bcd60e51b81526004018080602001828103825260228152602001806105776022913960400191505060405180910390fd5b506001600160a01b03166000908152602091909152604090205460ff1690565b6103ee60008263ffffffff6104ee16565b6040516001600160a01b038216907f0a8eb35e5ca14b3d6f28e4abf2f128dbab231a58b56e89beb5d636115001e16590600090a250565b61043660008263ffffffff61046d16565b6040516001600160a01b038216907f22380c05984257a1cb900161c713dd71d39e74820f1aea43bd3f1bdd2096129990600090a250565b6104778282610376565b156104c9576040805162461bcd60e51b815260206004820152601f60248201527f526f6c65733a206163636f756e7420616c72656164792068617320726f6c6500604482015290519081900360640190fd5b6001600160a01b0316600090815260209190915260409020805460ff19166001179055565b6104f88282610376565b6105335760405162461bcd60e51b81526004018080602001828103825260218152602001806105566021913960400191505060405180910390fd5b6001600160a01b0316600090815260209190915260409020805460ff1916905556fe526f6c65733a206163636f756e7420646f6573206e6f74206861766520726f6c65526f6c65733a206163636f756e7420697320746865207a65726f206164647265737357686974656c69737441646d696e526f6c653a2063616c6c657220646f6573206e6f742068617665207468652057686974656c69737441646d696e20726f6c6557686974656c6973746564526f6c653a2063616c6c657220646f6573206e6f742068617665207468652057686974656c697374656420726f6c65a265627a7a7231582020904a3f32ed3d38dc9afcc274ebd3a238aa5476bb2ba689d6fd401b1af3629864736f6c63430005100032526f6c65733a206163636f756e7420697320746865207a65726f2061646472657373",
  "source": "pragma solidity ^0.5.0;\n\nimport \"../access/roles/WhitelistedRole.sol\";\n\ncontract WhitelistedRoleMock is WhitelistedRole {\n    function onlyWhitelistedMock() public view onlyWhitelisted {\n        // solhint-disable-previous-line no-empty-blocks\n    }\n}\n",
  "sourcePath": "/home/grifma/Code/vi-admin-ui/contracts/lib/openzeppelin-solidity/contracts/mocks/WhitelistedRoleMock.sol",
  "compiler": {
    "name": "solc",
    "version": "0.5.16+commit.9c3226ce.Emscripten.clang"
  },
  "schemaVersion": "3.0.23",
  "updatedAt": "2020-05-14T11:10:26.120Z",
  "devdoc": {
    "methods": {}
  },
  "userdoc": {
    "methods": {}
  }
}