{
  "contractName": "WhitelistCrowdsaleImpl",
  "abi": [
    {
      "inputs": [
        {
          "internalType": "uint256",
          "name": "_rate",
          "type": "uint256"
        },
        {
          "internalType": "address payable",
          "name": "_wallet",
          "type": "address"
        },
        {
          "internalType": "contract IERC20",
          "name": "_token",
          "type": "address"
        }
      ],
      "payable": false,
      "stateMutability": "nonpayable",
      "type": "constructor"
    },
    {
      "anonymous": false,
      "inputs": [
        {
          "indexed": true,
          "internalType": "address",
          "name": "purchaser",
          "type": "address"
        },
        {
          "indexed": true,
          "internalType": "address",
          "name": "beneficiary",
          "type": "address"
        },
        {
          "indexed": false,
          "internalType": "uint256",
          "name": "value",
          "type": "uint256"
        },
        {
          "indexed": false,
          "internalType": "uint256",
          "name": "amount",
          "type": "uint256"
        }
      ],
      "name": "TokensPurchased",
      "type": "event"
    },
    {
      "anonymous": false,
      "inputs": [
        {
          "indexed": true,
          "internalType": "address",
          "name": "account",
          "type": "address"
        }
      ],
      "name": "WhitelistAdminAdded",
      "type": "event"
    },
    {
      "anonymous": false,
      "inputs": [
        {
          "indexed": true,
          "internalType": "address",
          "name": "account",
          "type": "address"
        }
      ],
      "name": "WhitelistAdminRemoved",
      "type": "event"
    },
    {
      "anonymous": false,
      "inputs": [
        {
          "indexed": true,
          "internalType": "address",
          "name": "account",
          "type": "address"
        }
      ],
      "name": "WhitelistedAdded",
      "type": "event"
    },
    {
      "anonymous": false,
      "inputs": [
        {
          "indexed": true,
          "internalType": "address",
          "name": "account",
          "type": "address"
        }
      ],
      "name": "WhitelistedRemoved",
      "type": "event"
    },
    {
      "payable": true,
      "stateMutability": "payable",
      "type": "fallback"
    },
    {
      "constant": false,
      "inputs": [
        {
          "internalType": "address",
          "name": "account",
          "type": "address"
        }
      ],
      "name": "addWhitelistAdmin",
      "outputs": [],
      "payable": false,
      "stateMutability": "nonpayable",
      "type": "function"
    },
    {
      "constant": false,
      "inputs": [
        {
          "internalType": "address",
          "name": "account",
          "type": "address"
        }
      ],
      "name": "addWhitelisted",
      "outputs": [],
      "payable": false,
      "stateMutability": "nonpayable",
      "type": "function"
    },
    {
      "constant": false,
      "inputs": [
        {
          "internalType": "address",
          "name": "beneficiary",
          "type": "address"
        }
      ],
      "name": "buyTokens",
      "outputs": [],
      "payable": true,
      "stateMutability": "payable",
      "type": "function"
    },
    {
      "constant": true,
      "inputs": [
        {
          "internalType": "address",
          "name": "account",
          "type": "address"
        }
      ],
      "name": "isWhitelistAdmin",
      "outputs": [
        {
          "internalType": "bool",
          "name": "",
          "type": "bool"
        }
      ],
      "payable": false,
      "stateMutability": "view",
      "type": "function"
    },
    {
      "constant": true,
      "inputs": [
        {
          "internalType": "address",
          "name": "account",
          "type": "address"
        }
      ],
      "name": "isWhitelisted",
      "outputs": [
        {
          "internalType": "bool",
          "name": "",
          "type": "bool"
        }
      ],
      "payable": false,
      "stateMutability": "view",
      "type": "function"
    },
    {
      "constant": true,
      "inputs": [],
      "name": "rate",
      "outputs": [
        {
          "internalType": "uint256",
          "name": "",
          "type": "uint256"
        }
      ],
      "payable": false,
      "stateMutability": "view",
      "type": "function"
    },
    {
      "constant": false,
      "inputs": [
        {
          "internalType": "address",
          "name": "account",
          "type": "address"
        }
      ],
      "name": "removeWhitelisted",
      "outputs": [],
      "payable": false,
      "stateMutability": "nonpayable",
      "type": "function"
    },
    {
      "constant": false,
      "inputs": [],
      "name": "renounceWhitelistAdmin",
      "outputs": [],
      "payable": false,
      "stateMutability": "nonpayable",
      "type": "function"
    },
    {
      "constant": false,
      "inputs": [],
      "name": "renounceWhitelisted",
      "outputs": [],
      "payable": false,
      "stateMutability": "nonpayable",
      "type": "function"
    },
    {
      "constant": true,
      "inputs": [],
      "name": "token",
      "outputs": [
        {
          "internalType": "contract IERC20",
          "name": "",
          "type": "address"
        }
      ],
      "payable": false,
      "stateMutability": "view",
      "type": "function"
    },
    {
      "constant": true,
      "inputs": [],
      "name": "wallet",
      "outputs": [
        {
          "internalType": "address payable",
          "name": "",
          "type": "address"
        }
      ],
      "payable": false,
      "stateMutability": "view",
      "type": "function"
    },
    {
      "constant": true,
      "inputs": [],
      "name": "weiRaised",
      "outputs": [
        {
          "internalType": "uint256",
          "name": "",
          "type": "uint256"
        }
      ],
      "payable": false,
      "stateMutability": "view",
      "type": "function"
    }
  ],
  "bytecode": "0x608060405234801561001057600080fd5b5060405161102b38038061102b8339818101604052606081101561003357600080fd5b5080516020820151604090920151909190828282610059336001600160e01b0361017516565b6001600255826100b0576040805162461bcd60e51b815260206004820152601460248201527f43726f776473616c653a20726174652069732030000000000000000000000000604482015290519081900360640190fd5b6001600160a01b0382166100f55760405162461bcd60e51b81526004018080602001828103825260258152602001806110066025913960400191505060405180910390fd5b6001600160a01b03811661013a5760405162461bcd60e51b8152600401808060200182810382526024815260200180610fc06024913960400191505060405180910390fd5b600592909255600480546001600160a01b039283166001600160a01b03199182161790915560038054929093169116179055506102b5915050565b61018d8160006101c460201b61088b1790919060201c565b6040516001600160a01b038216907f22380c05984257a1cb900161c713dd71d39e74820f1aea43bd3f1bdd2096129990600090a250565b6101d782826001600160e01b0361024e16565b15610229576040805162461bcd60e51b815260206004820152601f60248201527f526f6c65733a206163636f756e7420616c72656164792068617320726f6c6500604482015290519081900360640190fd5b6001600160a01b0316600090815260209190915260409020805460ff19166001179055565b60006001600160a01b0382166102955760405162461bcd60e51b8152600401808060200182810382526022815260200180610fe46022913960400191505060405180910390fd5b506001600160a01b03166000908152602091909152604090205460ff1690565b610cfc806102c46000396000f3fe6080604052600436106100a75760003560e01c8063521eb27311610064578063521eb273146101b05780637362d9c8146101e1578063bb5f747b14610214578063d6cd947314610247578063ec8ac4d81461025c578063fc0c546a14610282576100a7565b806310154bad146100b2578063291d9549146100e55780632c4e722e146101185780633af32abf1461013f5780634042b66f146101865780634c5a628c1461019b575b6100b033610297565b005b3480156100be57600080fd5b506100b0600480360360208110156100d557600080fd5b50356001600160a01b031661039b565b3480156100f157600080fd5b506100b06004803603602081101561010857600080fd5b50356001600160a01b03166103eb565b34801561012457600080fd5b5061012d610438565b60408051918252519081900360200190f35b34801561014b57600080fd5b506101726004803603602081101561016257600080fd5b50356001600160a01b031661043e565b604080519115158252519081900360200190f35b34801561019257600080fd5b5061012d610457565b3480156101a757600080fd5b506100b061045d565b3480156101bc57600080fd5b506101c5610468565b604080516001600160a01b039092168252519081900360200190f35b3480156101ed57600080fd5b506100b06004803603602081101561020457600080fd5b50356001600160a01b0316610477565b34801561022057600080fd5b506101726004803603602081101561023757600080fd5b50356001600160a01b03166104c4565b34801561025357600080fd5b506100b06104d6565b6100b06004803603602081101561027257600080fd5b50356001600160a01b0316610297565b34801561028e57600080fd5b506101c56104df565b6002805460010190819055346102ad83826104ee565b60006102b88261053c565b6006549091506102ce908363ffffffff61055316565b6006556102db84826105b4565b604080518381526020810183905281516001600160a01b0387169233927f6faf93231a456e552dbc9961f58d9713ee4f2e69d15f1975b050ef0911053a7b929081900390910190a361032d8483610397565b6103356105be565b61033f8483610397565b50506002548114610397576040805162461bcd60e51b815260206004820152601f60248201527f5265656e7472616e637947756172643a207265656e7472616e742063616c6c00604482015290519081900360640190fd5b5050565b6103a4336104c4565b6103df5760405162461bcd60e51b8152600401808060200182810382526040815260200180610c346040913960400191505060405180910390fd5b6103e8816105f7565b50565b6103f4336104c4565b61042f5760405162461bcd60e51b8152600401808060200182810382526040815260200180610c346040913960400191505060405180910390fd5b6103e88161063f565b60055490565b600061045160018363ffffffff61068716565b92915050565b60065490565b610466336106ee565b565b6004546001600160a01b031690565b610480336104c4565b6104bb5760405162461bcd60e51b8152600401808060200182810382526040815260200180610c346040913960400191505060405180910390fd5b6103e881610736565b6000610451818363ffffffff61068716565b6104663361063f565b6003546001600160a01b031690565b6104f78261043e565b6105325760405162461bcd60e51b8152600401808060200182810382526041815260200180610b8f6041913960600191505060405180910390fd5b610397828261077e565b60006104516005548361081590919063ffffffff16565b6000828201838110156105ad576040805162461bcd60e51b815260206004820152601b60248201527f536166654d6174683a206164646974696f6e206f766572666c6f770000000000604482015290519081900360640190fd5b9392505050565b610397828261086e565b6004546040516001600160a01b03909116903480156108fc02916000818181858888f193505050501580156103e8573d6000803e3d6000fd5b61060860018263ffffffff61088b16565b6040516001600160a01b038216907fee1504a83b6d4a361f4c1dc78ab59bfa30d6a3b6612c403e86bb01ef2984295f90600090a250565b61065060018263ffffffff61090c16565b6040516001600160a01b038216907f270d9b30cf5b0793bbfd54c9d5b94aeb49462b8148399000265144a8722da6b690600090a250565b60006001600160a01b0382166106ce5760405162461bcd60e51b8152600401808060200182810382526022815260200180610c126022913960400191505060405180910390fd5b506001600160a01b03166000908152602091909152604090205460ff1690565b6106ff60008263ffffffff61090c16565b6040516001600160a01b038216907f0a8eb35e5ca14b3d6f28e4abf2f128dbab231a58b56e89beb5d636115001e16590600090a250565b61074760008263ffffffff61088b16565b6040516001600160a01b038216907f22380c05984257a1cb900161c713dd71d39e74820f1aea43bd3f1bdd2096129990600090a250565b6001600160a01b0382166107c35760405162461bcd60e51b815260040180806020018281038252602a815260200180610c74602a913960400191505060405180910390fd5b80610397576040805162461bcd60e51b815260206004820152601960248201527f43726f776473616c653a20776569416d6f756e74206973203000000000000000604482015290519081900360640190fd5b60008261082457506000610451565b8282028284828161083157fe5b04146105ad5760405162461bcd60e51b8152600401808060200182810382526021815260200180610bf16021913960400191505060405180910390fd5b600354610397906001600160a01b0316838363ffffffff61097316565b6108958282610687565b156108e7576040805162461bcd60e51b815260206004820152601f60248201527f526f6c65733a206163636f756e7420616c72656164792068617320726f6c6500604482015290519081900360640190fd5b6001600160a01b0316600090815260209190915260409020805460ff19166001179055565b6109168282610687565b6109515760405162461bcd60e51b8152600401808060200182810382526021815260200180610bd06021913960400191505060405180910390fd5b6001600160a01b0316600090815260209190915260409020805460ff19169055565b604080516001600160a01b038416602482015260448082018490528251808303909101815260649091019091526020810180516001600160e01b031663a9059cbb60e01b1790526109c59084906109ca565b505050565b6109dc826001600160a01b0316610b88565b610a2d576040805162461bcd60e51b815260206004820152601f60248201527f5361666545524332303a2063616c6c20746f206e6f6e2d636f6e747261637400604482015290519081900360640190fd5b60006060836001600160a01b0316836040518082805190602001908083835b60208310610a6b5780518252601f199092019160209182019101610a4c565b6001836020036101000a0380198251168184511680821785525050505050509050019150506000604051808303816000865af19150503d8060008114610acd576040519150601f19603f3d011682016040523d82523d6000602084013e610ad2565b606091505b509150915081610b29576040805162461bcd60e51b815260206004820181905260248201527f5361666545524332303a206c6f772d6c6576656c2063616c6c206661696c6564604482015290519081900360640190fd5b805115610b8257808060200190516020811015610b4557600080fd5b5051610b825760405162461bcd60e51b815260040180806020018281038252602a815260200180610c9e602a913960400191505060405180910390fd5b50505050565b3b15159056fe57686974656c69737443726f776473616c653a2062656e656669636961727920646f65736e27742068617665207468652057686974656c697374656420726f6c65526f6c65733a206163636f756e7420646f6573206e6f74206861766520726f6c65536166654d6174683a206d756c7469706c69636174696f6e206f766572666c6f77526f6c65733a206163636f756e7420697320746865207a65726f206164647265737357686974656c69737441646d696e526f6c653a2063616c6c657220646f6573206e6f742068617665207468652057686974656c69737441646d696e20726f6c6543726f776473616c653a2062656e656669636961727920697320746865207a65726f20616464726573735361666545524332303a204552433230206f7065726174696f6e20646964206e6f742073756363656564a265627a7a723158208ab9ec6c3d53a7413d9adfb30f455c379ec453c9ae360f4c942407782405b81764736f6c6343000510003243726f776473616c653a20746f6b656e20697320746865207a65726f2061646472657373526f6c65733a206163636f756e7420697320746865207a65726f206164647265737343726f776473616c653a2077616c6c657420697320746865207a65726f2061646472657373",
  "source": "pragma solidity ^0.5.0;\n\nimport \"../token/ERC20/IERC20.sol\";\nimport \"../crowdsale/validation/WhitelistCrowdsale.sol\";\nimport \"../crowdsale/Crowdsale.sol\";\n\n\ncontract WhitelistCrowdsaleImpl is Crowdsale, WhitelistCrowdsale {\n    constructor (uint256 _rate, address payable _wallet, IERC20 _token) public Crowdsale(_rate, _wallet, _token) {\n        // solhint-disable-previous-line no-empty-blocks\n    }\n}\n",
  "sourcePath": "/home/grifma/Code/vi-admin-ui/contracts/lib/openzeppelin-solidity/contracts/mocks/WhitelistCrowdsaleImpl.sol",
  "compiler": {
    "name": "solc",
    "version": "0.5.16+commit.9c3226ce.Emscripten.clang"
  },
  "schemaVersion": "3.0.23",
  "updatedAt": "2020-05-14T20:26:11.366Z",
  "devdoc": {
    "methods": {
      "buyTokens(address)": {
        "details": "low level token purchase ***DO NOT OVERRIDE*** This function has a non-reentrancy guard, so it shouldn't be called by another `nonReentrant` function.",
        "params": {
          "beneficiary": "Recipient of the token purchase"
        }
      },
      "rate()": {
        "return": "the number of token units a buyer gets per wei."
      },
      "token()": {
        "return": "the token being sold."
      },
      "wallet()": {
        "return": "the address where funds are collected."
      },
      "weiRaised()": {
        "return": "the amount of wei raised."
      }
    }
  },
  "userdoc": {
    "methods": {}
  }
}